{
	"contracts/auction.sol": {
		"Auction": {
			"abi": [
				{
					"inputs": [],
					"stateMutability": "nonpayable",
					"type": "constructor"
				},
				{
					"inputs": [],
					"name": "auctionState",
					"outputs": [
						{
							"internalType": "enum Auction.State",
							"name": "",
							"type": "uint8"
						}
					],
					"stateMutability": "view",
					"type": "function"
				},
				{
					"inputs": [
						{
							"internalType": "address",
							"name": "",
							"type": "address"
						}
					],
					"name": "bids",
					"outputs": [
						{
							"internalType": "uint256",
							"name": "",
							"type": "uint256"
						}
					],
					"stateMutability": "view",
					"type": "function"
				},
				{
					"inputs": [],
					"name": "cancelAuction",
					"outputs": [],
					"stateMutability": "nonpayable",
					"type": "function"
				},
				{
					"inputs": [],
					"name": "endBlock",
					"outputs": [
						{
							"internalType": "uint256",
							"name": "",
							"type": "uint256"
						}
					],
					"stateMutability": "view",
					"type": "function"
				},
				{
					"inputs": [],
					"name": "finalizeAuction",
					"outputs": [],
					"stateMutability": "nonpayable",
					"type": "function"
				},
				{
					"inputs": [],
					"name": "highestBidder",
					"outputs": [
						{
							"internalType": "address payable",
							"name": "",
							"type": "address"
						}
					],
					"stateMutability": "view",
					"type": "function"
				},
				{
					"inputs": [],
					"name": "highestBindingBid",
					"outputs": [
						{
							"internalType": "uint256",
							"name": "",
							"type": "uint256"
						}
					],
					"stateMutability": "view",
					"type": "function"
				},
				{
					"inputs": [],
					"name": "ipfsHash",
					"outputs": [
						{
							"internalType": "string",
							"name": "",
							"type": "string"
						}
					],
					"stateMutability": "view",
					"type": "function"
				},
				{
					"inputs": [],
					"name": "owner",
					"outputs": [
						{
							"internalType": "address payable",
							"name": "",
							"type": "address"
						}
					],
					"stateMutability": "view",
					"type": "function"
				},
				{
					"inputs": [],
					"name": "ownerFinalized",
					"outputs": [
						{
							"internalType": "bool",
							"name": "",
							"type": "bool"
						}
					],
					"stateMutability": "view",
					"type": "function"
				},
				{
					"inputs": [],
					"name": "placeBid",
					"outputs": [
						{
							"internalType": "bool",
							"name": "",
							"type": "bool"
						}
					],
					"stateMutability": "payable",
					"type": "function"
				},
				{
					"inputs": [],
					"name": "startBlock",
					"outputs": [
						{
							"internalType": "uint256",
							"name": "",
							"type": "uint256"
						}
					],
					"stateMutability": "view",
					"type": "function"
				}
			],
			"devdoc": {
				"kind": "dev",
				"methods": {},
				"version": 1
			},
			"evm": {
				"assembly": "    /* \"contracts/auction.sol\":73:4376  contract Auction{... */\n  mstore(0x40, 0x80)\n    /* \"contracts/auction.sol\":572:577  false */\n  0x00\n    /* \"contracts/auction.sol\":543:577  bool public ownerFinalized = false */\n  0x09\n  exp(0x0100, 0x00)\n  dup2\n  sload\n  dup2\n  0xff\n  mul\n  not\n  and\n  swap1\n  dup4\n  iszero\n  iszero\n  mul\n  or\n  swap1\n  sstore\n  pop\n    /* \"contracts/auction.sol\":585:863  constructor(){... */\n  callvalue\n  dup1\n  iszero\n  tag_1\n  jumpi\n  0x00\n  dup1\n  revert\ntag_1:\n  pop\n    /* \"contracts/auction.sol\":624:634  msg.sender */\n  caller\n    /* \"contracts/auction.sol\":608:613  owner */\n  0x00\n  dup1\n    /* \"contracts/auction.sol\":608:635  owner = payable(msg.sender) */\n  0x0100\n  exp\n  dup2\n  sload\n  dup2\n  0xffffffffffffffffffffffffffffffffffffffff\n  mul\n  not\n  and\n  swap1\n  dup4\n  0xffffffffffffffffffffffffffffffffffffffff\n  and\n  mul\n  or\n  swap1\n  sstore\n  pop\n    /* \"contracts/auction.sol\":660:673  State.Running */\n  0x01\n    /* \"contracts/auction.sol\":645:657  auctionState */\n  0x04\n  0x00\n    /* \"contracts/auction.sol\":645:673  auctionState = State.Running */\n  0x0100\n  exp\n  dup2\n  sload\n  dup2\n  0xff\n  mul\n  not\n  and\n  swap1\n  dup4\n  0x03\n  dup2\n  gt\n  iszero\n  tag_4\n  jumpi\n  tag_5\n  tag_6\n  jump\t// in\ntag_5:\ntag_4:\n  mul\n  or\n  swap1\n  sstore\n  pop\n    /* \"contracts/auction.sol\":705:717  block.number */\n  number\n    /* \"contracts/auction.sol\":692:702  startBlock */\n  0x01\n    /* \"contracts/auction.sol\":692:717  startBlock = block.number */\n  dup2\n  swap1\n  sstore\n  pop\n    /* \"contracts/auction.sol\":751:752  3 */\n  0x03\n    /* \"contracts/auction.sol\":738:748  startBlock */\n  sload(0x01)\n    /* \"contracts/auction.sol\":738:752  startBlock + 3 */\n  tag_7\n  swap2\n  swap1\n  tag_8\n  jump\t// in\ntag_7:\n    /* \"contracts/auction.sol\":727:735  endBlock */\n  0x02\n    /* \"contracts/auction.sol\":727:752  endBlock = startBlock + 3 */\n  dup2\n  swap1\n  sstore\n  pop\n    /* \"contracts/auction.sol\":769:782  ipfsHash = \"\" */\n  mload(0x40)\n  dup1\n  0x20\n  add\n  0x40\n  mstore\n  dup1\n  0x00\n  dup2\n  mstore\n  pop\n    /* \"contracts/auction.sol\":769:777  ipfsHash */\n  0x03\n    /* \"contracts/auction.sol\":769:782  ipfsHash = \"\" */\n  swap1\n  dup2\n  tag_9\n  swap2\n  swap1\n  tag_10\n  jump\t// in\ntag_9:\n  pop\n    /* \"contracts/auction.sol\":807:826  1000000000000000000 */\n  0x0de0b6b3a7640000\n    /* \"contracts/auction.sol\":792:804  bidIncrement */\n  0x08\n    /* \"contracts/auction.sol\":792:826  bidIncrement = 1000000000000000000 */\n  dup2\n  swap1\n  sstore\n  pop\n    /* \"contracts/auction.sol\":73:4376  contract Auction{... */\n  jump(tag_11)\n    /* \"#utility.yul\":7:187   */\ntag_6:\n    /* \"#utility.yul\":55:132   */\n  0x4e487b7100000000000000000000000000000000000000000000000000000000\n    /* \"#utility.yul\":52:53   */\n  0x00\n    /* \"#utility.yul\":45:133   */\n  mstore\n    /* \"#utility.yul\":152:156   */\n  0x21\n    /* \"#utility.yul\":149:150   */\n  0x04\n    /* \"#utility.yul\":142:157   */\n  mstore\n    /* \"#utility.yul\":176:180   */\n  0x24\n    /* \"#utility.yul\":173:174   */\n  0x00\n    /* \"#utility.yul\":166:181   */\n  revert\n    /* \"#utility.yul\":193:270   */\ntag_12:\n    /* \"#utility.yul\":230:237   */\n  0x00\n    /* \"#utility.yul\":259:264   */\n  dup2\n    /* \"#utility.yul\":248:264   */\n  swap1\n  pop\n    /* \"#utility.yul\":193:270   */\n  swap2\n  swap1\n  pop\n  jump\t// out\n    /* \"#utility.yul\":276:456   */\ntag_13:\n    /* \"#utility.yul\":324:401   */\n  0x4e487b7100000000000000000000000000000000000000000000000000000000\n    /* \"#utility.yul\":321:322   */\n  0x00\n    /* \"#utility.yul\":314:402   */\n  mstore\n    /* \"#utility.yul\":421:425   */\n  0x11\n    /* \"#utility.yul\":418:419   */\n  0x04\n    /* \"#utility.yul\":411:426   */\n  mstore\n    /* \"#utility.yul\":445:449   */\n  0x24\n    /* \"#utility.yul\":442:443   */\n  0x00\n    /* \"#utility.yul\":435:450   */\n  revert\n    /* \"#utility.yul\":462:653   */\ntag_8:\n    /* \"#utility.yul\":502:505   */\n  0x00\n    /* \"#utility.yul\":521:541   */\n  tag_38\n    /* \"#utility.yul\":539:540   */\n  dup3\n    /* \"#utility.yul\":521:541   */\n  tag_12\n  jump\t// in\ntag_38:\n    /* \"#utility.yul\":516:541   */\n  swap2\n  pop\n    /* \"#utility.yul\":555:575   */\n  tag_39\n    /* \"#utility.yul\":573:574   */\n  dup4\n    /* \"#utility.yul\":555:575   */\n  tag_12\n  jump\t// in\ntag_39:\n    /* \"#utility.yul\":550:575   */\n  swap3\n  pop\n    /* \"#utility.yul\":598:599   */\n  dup3\n    /* \"#utility.yul\":595:596   */\n  dup3\n    /* \"#utility.yul\":591:600   */\n  add\n    /* \"#utility.yul\":584:600   */\n  swap1\n  pop\n    /* \"#utility.yul\":619:622   */\n  dup1\n    /* \"#utility.yul\":616:617   */\n  dup3\n    /* \"#utility.yul\":613:623   */\n  gt\n    /* \"#utility.yul\":610:646   */\n  iszero\n  tag_40\n  jumpi\n    /* \"#utility.yul\":626:644   */\n  tag_41\n  tag_13\n  jump\t// in\ntag_41:\n    /* \"#utility.yul\":610:646   */\ntag_40:\n    /* \"#utility.yul\":462:653   */\n  swap3\n  swap2\n  pop\n  pop\n  jump\t// out\n    /* \"#utility.yul\":659:758   */\ntag_14:\n    /* \"#utility.yul\":711:717   */\n  0x00\n    /* \"#utility.yul\":745:750   */\n  dup2\n    /* \"#utility.yul\":739:751   */\n  mload\n    /* \"#utility.yul\":729:751   */\n  swap1\n  pop\n    /* \"#utility.yul\":659:758   */\n  swap2\n  swap1\n  pop\n  jump\t// out\n    /* \"#utility.yul\":764:944   */\ntag_15:\n    /* \"#utility.yul\":812:889   */\n  0x4e487b7100000000000000000000000000000000000000000000000000000000\n    /* \"#utility.yul\":809:810   */\n  0x00\n    /* \"#utility.yul\":802:890   */\n  mstore\n    /* \"#utility.yul\":909:913   */\n  0x41\n    /* \"#utility.yul\":906:907   */\n  0x04\n    /* \"#utility.yul\":899:914   */\n  mstore\n    /* \"#utility.yul\":933:937   */\n  0x24\n    /* \"#utility.yul\":930:931   */\n  0x00\n    /* \"#utility.yul\":923:938   */\n  revert\n    /* \"#utility.yul\":950:1130   */\ntag_16:\n    /* \"#utility.yul\":998:1075   */\n  0x4e487b7100000000000000000000000000000000000000000000000000000000\n    /* \"#utility.yul\":995:996   */\n  0x00\n    /* \"#utility.yul\":988:1076   */\n  mstore\n    /* \"#utility.yul\":1095:1099   */\n  0x22\n    /* \"#utility.yul\":1092:1093   */\n  0x04\n    /* \"#utility.yul\":1085:1100   */\n  mstore\n    /* \"#utility.yul\":1119:1123   */\n  0x24\n    /* \"#utility.yul\":1116:1117   */\n  0x00\n    /* \"#utility.yul\":1109:1124   */\n  revert\n    /* \"#utility.yul\":1136:1456   */\ntag_17:\n    /* \"#utility.yul\":1180:1186   */\n  0x00\n    /* \"#utility.yul\":1217:1218   */\n  0x02\n    /* \"#utility.yul\":1211:1215   */\n  dup3\n    /* \"#utility.yul\":1207:1219   */\n  div\n    /* \"#utility.yul\":1197:1219   */\n  swap1\n  pop\n    /* \"#utility.yul\":1264:1265   */\n  0x01\n    /* \"#utility.yul\":1258:1262   */\n  dup3\n    /* \"#utility.yul\":1254:1266   */\n  and\n    /* \"#utility.yul\":1285:1303   */\n  dup1\n    /* \"#utility.yul\":1275:1356   */\n  tag_46\n  jumpi\n    /* \"#utility.yul\":1341:1345   */\n  0x7f\n    /* \"#utility.yul\":1333:1339   */\n  dup3\n    /* \"#utility.yul\":1329:1346   */\n  and\n    /* \"#utility.yul\":1319:1346   */\n  swap2\n  pop\n    /* \"#utility.yul\":1275:1356   */\ntag_46:\n    /* \"#utility.yul\":1403:1405   */\n  0x20\n    /* \"#utility.yul\":1395:1401   */\n  dup3\n    /* \"#utility.yul\":1392:1406   */\n  lt\n    /* \"#utility.yul\":1372:1390   */\n  dup2\n    /* \"#utility.yul\":1369:1407   */\n  sub\n    /* \"#utility.yul\":1366:1450   */\n  tag_47\n  jumpi\n    /* \"#utility.yul\":1422:1440   */\n  tag_48\n  tag_16\n  jump\t// in\ntag_48:\n    /* \"#utility.yul\":1366:1450   */\ntag_47:\n    /* \"#utility.yul\":1187:1456   */\n  pop\n    /* \"#utility.yul\":1136:1456   */\n  swap2\n  swap1\n  pop\n  jump\t// out\n    /* \"#utility.yul\":1462:1603   */\ntag_18:\n    /* \"#utility.yul\":1511:1515   */\n  0x00\n    /* \"#utility.yul\":1534:1537   */\n  dup2\n    /* \"#utility.yul\":1526:1537   */\n  swap1\n  pop\n    /* \"#utility.yul\":1557:1560   */\n  dup2\n    /* \"#utility.yul\":1554:1555   */\n  0x00\n    /* \"#utility.yul\":1547:1561   */\n  mstore\n    /* \"#utility.yul\":1591:1595   */\n  0x20\n    /* \"#utility.yul\":1588:1589   */\n  0x00\n    /* \"#utility.yul\":1578:1596   */\n  keccak256\n    /* \"#utility.yul\":1570:1596   */\n  swap1\n  pop\n    /* \"#utility.yul\":1462:1603   */\n  swap2\n  swap1\n  pop\n  jump\t// out\n    /* \"#utility.yul\":1609:1702   */\ntag_19:\n    /* \"#utility.yul\":1646:1652   */\n  0x00\n    /* \"#utility.yul\":1693:1695   */\n  0x20\n    /* \"#utility.yul\":1688:1690   */\n  0x1f\n    /* \"#utility.yul\":1681:1686   */\n  dup4\n    /* \"#utility.yul\":1677:1691   */\n  add\n    /* \"#utility.yul\":1673:1696   */\n  div\n    /* \"#utility.yul\":1663:1696   */\n  swap1\n  pop\n    /* \"#utility.yul\":1609:1702   */\n  swap2\n  swap1\n  pop\n  jump\t// out\n    /* \"#utility.yul\":1708:1815   */\ntag_20:\n    /* \"#utility.yul\":1752:1760   */\n  0x00\n    /* \"#utility.yul\":1802:1807   */\n  dup3\n    /* \"#utility.yul\":1796:1800   */\n  dup3\n    /* \"#utility.yul\":1792:1808   */\n  shl\n    /* \"#utility.yul\":1771:1808   */\n  swap1\n  pop\n    /* \"#utility.yul\":1708:1815   */\n  swap3\n  swap2\n  pop\n  pop\n  jump\t// out\n    /* \"#utility.yul\":1821:2214   */\ntag_21:\n    /* \"#utility.yul\":1890:1896   */\n  0x00\n    /* \"#utility.yul\":1940:1941   */\n  0x08\n    /* \"#utility.yul\":1928:1938   */\n  dup4\n    /* \"#utility.yul\":1924:1942   */\n  mul\n    /* \"#utility.yul\":1963:2060   */\n  tag_53\n    /* \"#utility.yul\":1993:2059   */\n  0xffffffffffffffffffffffffffffffffffffffffffffffffffffffffffffffff\n    /* \"#utility.yul\":1982:1991   */\n  dup3\n    /* \"#utility.yul\":1963:2060   */\n  tag_20\n  jump\t// in\ntag_53:\n    /* \"#utility.yul\":2081:2120   */\n  tag_54\n    /* \"#utility.yul\":2111:2119   */\n  dup7\n    /* \"#utility.yul\":2100:2109   */\n  dup4\n    /* \"#utility.yul\":2081:2120   */\n  tag_20\n  jump\t// in\ntag_54:\n    /* \"#utility.yul\":2069:2120   */\n  swap6\n  pop\n    /* \"#utility.yul\":2153:2157   */\n  dup1\n    /* \"#utility.yul\":2149:2158   */\n  not\n    /* \"#utility.yul\":2142:2147   */\n  dup5\n    /* \"#utility.yul\":2138:2159   */\n  and\n    /* \"#utility.yul\":2129:2159   */\n  swap4\n  pop\n    /* \"#utility.yul\":2202:2206   */\n  dup1\n    /* \"#utility.yul\":2192:2200   */\n  dup7\n    /* \"#utility.yul\":2188:2207   */\n  and\n    /* \"#utility.yul\":2181:2186   */\n  dup5\n    /* \"#utility.yul\":2178:2208   */\n  or\n    /* \"#utility.yul\":2168:2208   */\n  swap3\n  pop\n    /* \"#utility.yul\":1897:2214   */\n  pop\n  pop\n    /* \"#utility.yul\":1821:2214   */\n  swap4\n  swap3\n  pop\n  pop\n  pop\n  jump\t// out\n    /* \"#utility.yul\":2220:2280   */\ntag_22:\n    /* \"#utility.yul\":2248:2251   */\n  0x00\n    /* \"#utility.yul\":2269:2274   */\n  dup2\n    /* \"#utility.yul\":2262:2274   */\n  swap1\n  pop\n    /* \"#utility.yul\":2220:2280   */\n  swap2\n  swap1\n  pop\n  jump\t// out\n    /* \"#utility.yul\":2286:2428   */\ntag_23:\n    /* \"#utility.yul\":2336:2345   */\n  0x00\n    /* \"#utility.yul\":2369:2422   */\n  tag_57\n    /* \"#utility.yul\":2387:2421   */\n  tag_58\n    /* \"#utility.yul\":2396:2420   */\n  tag_59\n    /* \"#utility.yul\":2414:2419   */\n  dup5\n    /* \"#utility.yul\":2396:2420   */\n  tag_12\n  jump\t// in\ntag_59:\n    /* \"#utility.yul\":2387:2421   */\n  tag_22\n  jump\t// in\ntag_58:\n    /* \"#utility.yul\":2369:2422   */\n  tag_12\n  jump\t// in\ntag_57:\n    /* \"#utility.yul\":2356:2422   */\n  swap1\n  pop\n    /* \"#utility.yul\":2286:2428   */\n  swap2\n  swap1\n  pop\n  jump\t// out\n    /* \"#utility.yul\":2434:2509   */\ntag_24:\n    /* \"#utility.yul\":2477:2480   */\n  0x00\n    /* \"#utility.yul\":2498:2503   */\n  dup2\n    /* \"#utility.yul\":2491:2503   */\n  swap1\n  pop\n    /* \"#utility.yul\":2434:2509   */\n  swap2\n  swap1\n  pop\n  jump\t// out\n    /* \"#utility.yul\":2515:2784   */\ntag_25:\n    /* \"#utility.yul\":2625:2664   */\n  tag_62\n    /* \"#utility.yul\":2656:2663   */\n  dup4\n    /* \"#utility.yul\":2625:2664   */\n  tag_23\n  jump\t// in\ntag_62:\n    /* \"#utility.yul\":2686:2777   */\n  tag_63\n    /* \"#utility.yul\":2735:2776   */\n  tag_64\n    /* \"#utility.yul\":2759:2775   */\n  dup3\n    /* \"#utility.yul\":2735:2776   */\n  tag_24\n  jump\t// in\ntag_64:\n    /* \"#utility.yul\":2727:2733   */\n  dup5\n    /* \"#utility.yul\":2720:2724   */\n  dup5\n    /* \"#utility.yul\":2714:2725   */\n  sload\n    /* \"#utility.yul\":2686:2777   */\n  tag_21\n  jump\t// in\ntag_63:\n    /* \"#utility.yul\":2680:2684   */\n  dup3\n    /* \"#utility.yul\":2673:2778   */\n  sstore\n    /* \"#utility.yul\":2591:2784   */\n  pop\n    /* \"#utility.yul\":2515:2784   */\n  pop\n  pop\n  pop\n  jump\t// out\n    /* \"#utility.yul\":2790:2863   */\ntag_26:\n    /* \"#utility.yul\":2835:2838   */\n  0x00\n    /* \"#utility.yul\":2790:2863   */\n  swap1\n  jump\t// out\n    /* \"#utility.yul\":2869:3058   */\ntag_27:\n    /* \"#utility.yul\":2946:2978   */\n  tag_67\n  tag_26\n  jump\t// in\ntag_67:\n    /* \"#utility.yul\":2987:3052   */\n  tag_68\n    /* \"#utility.yul\":3045:3051   */\n  dup2\n    /* \"#utility.yul\":3037:3043   */\n  dup5\n    /* \"#utility.yul\":3031:3035   */\n  dup5\n    /* \"#utility.yul\":2987:3052   */\n  tag_25\n  jump\t// in\ntag_68:\n    /* \"#utility.yul\":2922:3058   */\n  pop\n    /* \"#utility.yul\":2869:3058   */\n  pop\n  pop\n  jump\t// out\n    /* \"#utility.yul\":3064:3250   */\ntag_28:\n    /* \"#utility.yul\":3124:3244   */\ntag_70:\n    /* \"#utility.yul\":3141:3144   */\n  dup2\n    /* \"#utility.yul\":3134:3139   */\n  dup2\n    /* \"#utility.yul\":3131:3145   */\n  lt\n    /* \"#utility.yul\":3124:3244   */\n  iszero\n  tag_72\n  jumpi\n    /* \"#utility.yul\":3195:3234   */\n  tag_73\n    /* \"#utility.yul\":3232:3233   */\n  0x00\n    /* \"#utility.yul\":3225:3230   */\n  dup3\n    /* \"#utility.yul\":3195:3234   */\n  tag_27\n  jump\t// in\ntag_73:\n    /* \"#utility.yul\":3168:3169   */\n  0x01\n    /* \"#utility.yul\":3161:3166   */\n  dup2\n    /* \"#utility.yul\":3157:3170   */\n  add\n    /* \"#utility.yul\":3148:3170   */\n  swap1\n  pop\n    /* \"#utility.yul\":3124:3244   */\n  jump(tag_70)\ntag_72:\n    /* \"#utility.yul\":3064:3250   */\n  pop\n  pop\n  jump\t// out\n    /* \"#utility.yul\":3256:3799   */\ntag_29:\n    /* \"#utility.yul\":3357:3359   */\n  0x1f\n    /* \"#utility.yul\":3352:3355   */\n  dup3\n    /* \"#utility.yul\":3349:3360   */\n  gt\n    /* \"#utility.yul\":3346:3792   */\n  iszero\n  tag_75\n  jumpi\n    /* \"#utility.yul\":3391:3429   */\n  tag_76\n    /* \"#utility.yul\":3423:3428   */\n  dup2\n    /* \"#utility.yul\":3391:3429   */\n  tag_18\n  jump\t// in\ntag_76:\n    /* \"#utility.yul\":3475:3504   */\n  tag_77\n    /* \"#utility.yul\":3493:3503   */\n  dup5\n    /* \"#utility.yul\":3475:3504   */\n  tag_19\n  jump\t// in\ntag_77:\n    /* \"#utility.yul\":3465:3473   */\n  dup2\n    /* \"#utility.yul\":3461:3505   */\n  add\n    /* \"#utility.yul\":3658:3660   */\n  0x20\n    /* \"#utility.yul\":3646:3656   */\n  dup6\n    /* \"#utility.yul\":3643:3661   */\n  lt\n    /* \"#utility.yul\":3640:3689   */\n  iszero\n  tag_78\n  jumpi\n    /* \"#utility.yul\":3679:3687   */\n  dup2\n    /* \"#utility.yul\":3664:3687   */\n  swap1\n  pop\n    /* \"#utility.yul\":3640:3689   */\ntag_78:\n    /* \"#utility.yul\":3702:3782   */\n  tag_79\n    /* \"#utility.yul\":3758:3780   */\n  tag_80\n    /* \"#utility.yul\":3776:3779   */\n  dup6\n    /* \"#utility.yul\":3758:3780   */\n  tag_19\n  jump\t// in\ntag_80:\n    /* \"#utility.yul\":3748:3756   */\n  dup4\n    /* \"#utility.yul\":3744:3781   */\n  add\n    /* \"#utility.yul\":3731:3742   */\n  dup3\n    /* \"#utility.yul\":3702:3782   */\n  tag_28\n  jump\t// in\ntag_79:\n    /* \"#utility.yul\":3361:3792   */\n  pop\n  pop\n    /* \"#utility.yul\":3346:3792   */\ntag_75:\n    /* \"#utility.yul\":3256:3799   */\n  pop\n  pop\n  pop\n  jump\t// out\n    /* \"#utility.yul\":3805:3922   */\ntag_30:\n    /* \"#utility.yul\":3859:3867   */\n  0x00\n    /* \"#utility.yul\":3909:3914   */\n  dup3\n    /* \"#utility.yul\":3903:3907   */\n  dup3\n    /* \"#utility.yul\":3899:3915   */\n  shr\n    /* \"#utility.yul\":3878:3915   */\n  swap1\n  pop\n    /* \"#utility.yul\":3805:3922   */\n  swap3\n  swap2\n  pop\n  pop\n  jump\t// out\n    /* \"#utility.yul\":3928:4097   */\ntag_31:\n    /* \"#utility.yul\":3972:3978   */\n  0x00\n    /* \"#utility.yul\":4005:4056   */\n  tag_83\n    /* \"#utility.yul\":4053:4054   */\n  0x00\n    /* \"#utility.yul\":4049:4055   */\n  not\n    /* \"#utility.yul\":4041:4046   */\n  dup5\n    /* \"#utility.yul\":4038:4039   */\n  0x08\n    /* \"#utility.yul\":4034:4047   */\n  mul\n    /* \"#utility.yul\":4005:4056   */\n  tag_30\n  jump\t// in\ntag_83:\n    /* \"#utility.yul\":4001:4057   */\n  not\n    /* \"#utility.yul\":4086:4090   */\n  dup1\n    /* \"#utility.yul\":4080:4084   */\n  dup4\n    /* \"#utility.yul\":4076:4091   */\n  and\n    /* \"#utility.yul\":4066:4091   */\n  swap2\n  pop\n    /* \"#utility.yul\":3979:4097   */\n  pop\n    /* \"#utility.yul\":3928:4097   */\n  swap3\n  swap2\n  pop\n  pop\n  jump\t// out\n    /* \"#utility.yul\":4102:4397   */\ntag_32:\n    /* \"#utility.yul\":4178:4182   */\n  0x00\n    /* \"#utility.yul\":4324:4353   */\n  tag_85\n    /* \"#utility.yul\":4349:4352   */\n  dup4\n    /* \"#utility.yul\":4343:4347   */\n  dup4\n    /* \"#utility.yul\":4324:4353   */\n  tag_31\n  jump\t// in\ntag_85:\n    /* \"#utility.yul\":4316:4353   */\n  swap2\n  pop\n    /* \"#utility.yul\":4386:4389   */\n  dup3\n    /* \"#utility.yul\":4383:4384   */\n  0x02\n    /* \"#utility.yul\":4379:4390   */\n  mul\n    /* \"#utility.yul\":4373:4377   */\n  dup3\n    /* \"#utility.yul\":4370:4391   */\n  or\n    /* \"#utility.yul\":4362:4391   */\n  swap1\n  pop\n    /* \"#utility.yul\":4102:4397   */\n  swap3\n  swap2\n  pop\n  pop\n  jump\t// out\n    /* \"#utility.yul\":4402:5797   */\ntag_10:\n    /* \"#utility.yul\":4519:4556   */\n  tag_87\n    /* \"#utility.yul\":4552:4555   */\n  dup3\n    /* \"#utility.yul\":4519:4556   */\n  tag_14\n  jump\t// in\ntag_87:\n    /* \"#utility.yul\":4621:4639   */\n  0xffffffffffffffff\n    /* \"#utility.yul\":4613:4619   */\n  dup2\n    /* \"#utility.yul\":4610:4640   */\n  gt\n    /* \"#utility.yul\":4607:4663   */\n  iszero\n  tag_88\n  jumpi\n    /* \"#utility.yul\":4643:4661   */\n  tag_89\n  tag_15\n  jump\t// in\ntag_89:\n    /* \"#utility.yul\":4607:4663   */\ntag_88:\n    /* \"#utility.yul\":4687:4725   */\n  tag_90\n    /* \"#utility.yul\":4719:4723   */\n  dup3\n    /* \"#utility.yul\":4713:4724   */\n  sload\n    /* \"#utility.yul\":4687:4725   */\n  tag_17\n  jump\t// in\ntag_90:\n    /* \"#utility.yul\":4772:4839   */\n  tag_91\n    /* \"#utility.yul\":4832:4838   */\n  dup3\n    /* \"#utility.yul\":4824:4830   */\n  dup3\n    /* \"#utility.yul\":4818:4822   */\n  dup6\n    /* \"#utility.yul\":4772:4839   */\n  tag_29\n  jump\t// in\ntag_91:\n    /* \"#utility.yul\":4866:4867   */\n  0x00\n    /* \"#utility.yul\":4890:4894   */\n  0x20\n    /* \"#utility.yul\":4877:4894   */\n  swap1\n  pop\n    /* \"#utility.yul\":4922:4924   */\n  0x1f\n    /* \"#utility.yul\":4914:4920   */\n  dup4\n    /* \"#utility.yul\":4911:4925   */\n  gt\n    /* \"#utility.yul\":4939:4940   */\n  0x01\n    /* \"#utility.yul\":4934:5552   */\n  dup2\n  eq\n  tag_93\n  jumpi\n    /* \"#utility.yul\":5596:5597   */\n  0x00\n    /* \"#utility.yul\":5613:5619   */\n  dup5\n    /* \"#utility.yul\":5610:5687   */\n  iszero\n  tag_94\n  jumpi\n    /* \"#utility.yul\":5662:5671   */\n  dup3\n    /* \"#utility.yul\":5657:5660   */\n  dup8\n    /* \"#utility.yul\":5653:5672   */\n  add\n    /* \"#utility.yul\":5647:5673   */\n  mload\n    /* \"#utility.yul\":5638:5673   */\n  swap1\n  pop\n    /* \"#utility.yul\":5610:5687   */\ntag_94:\n    /* \"#utility.yul\":5713:5780   */\n  tag_95\n    /* \"#utility.yul\":5773:5779   */\n  dup6\n    /* \"#utility.yul\":5766:5771   */\n  dup3\n    /* \"#utility.yul\":5713:5780   */\n  tag_32\n  jump\t// in\ntag_95:\n    /* \"#utility.yul\":5707:5711   */\n  dup7\n    /* \"#utility.yul\":5700:5781   */\n  sstore\n    /* \"#utility.yul\":5569:5791   */\n  pop\n    /* \"#utility.yul\":4904:5791   */\n  jump(tag_92)\n    /* \"#utility.yul\":4934:5552   */\ntag_93:\n    /* \"#utility.yul\":4986:4990   */\n  0x1f\n    /* \"#utility.yul\":4982:4991   */\n  not\n    /* \"#utility.yul\":4974:4980   */\n  dup5\n    /* \"#utility.yul\":4970:4992   */\n  and\n    /* \"#utility.yul\":5020:5057   */\n  tag_96\n    /* \"#utility.yul\":5052:5056   */\n  dup7\n    /* \"#utility.yul\":5020:5057   */\n  tag_18\n  jump\t// in\ntag_96:\n    /* \"#utility.yul\":5079:5080   */\n  0x00\n    /* \"#utility.yul\":5093:5301   */\ntag_97:\n    /* \"#utility.yul\":5107:5114   */\n  dup3\n    /* \"#utility.yul\":5104:5105   */\n  dup2\n    /* \"#utility.yul\":5101:5115   */\n  lt\n    /* \"#utility.yul\":5093:5301   */\n  iszero\n  tag_99\n  jumpi\n    /* \"#utility.yul\":5186:5195   */\n  dup5\n    /* \"#utility.yul\":5181:5184   */\n  dup10\n    /* \"#utility.yul\":5177:5196   */\n  add\n    /* \"#utility.yul\":5171:5197   */\n  mload\n    /* \"#utility.yul\":5163:5169   */\n  dup3\n    /* \"#utility.yul\":5156:5198   */\n  sstore\n    /* \"#utility.yul\":5237:5238   */\n  0x01\n    /* \"#utility.yul\":5229:5235   */\n  dup3\n    /* \"#utility.yul\":5225:5239   */\n  add\n    /* \"#utility.yul\":5215:5239   */\n  swap2\n  pop\n    /* \"#utility.yul\":5284:5286   */\n  0x20\n    /* \"#utility.yul\":5273:5282   */\n  dup6\n    /* \"#utility.yul\":5269:5287   */\n  add\n    /* \"#utility.yul\":5256:5287   */\n  swap5\n  pop\n    /* \"#utility.yul\":5130:5134   */\n  0x20\n    /* \"#utility.yul\":5127:5128   */\n  dup2\n    /* \"#utility.yul\":5123:5135   */\n  add\n    /* \"#utility.yul\":5118:5135   */\n  swap1\n  pop\n    /* \"#utility.yul\":5093:5301   */\n  jump(tag_97)\ntag_99:\n    /* \"#utility.yul\":5329:5335   */\n  dup7\n    /* \"#utility.yul\":5320:5327   */\n  dup4\n    /* \"#utility.yul\":5317:5336   */\n  lt\n    /* \"#utility.yul\":5314:5493   */\n  iszero\n  tag_100\n  jumpi\n    /* \"#utility.yul\":5387:5396   */\n  dup5\n    /* \"#utility.yul\":5382:5385   */\n  dup10\n    /* \"#utility.yul\":5378:5397   */\n  add\n    /* \"#utility.yul\":5372:5398   */\n  mload\n    /* \"#utility.yul\":5430:5478   */\n  tag_101\n    /* \"#utility.yul\":5472:5476   */\n  0x1f\n    /* \"#utility.yul\":5464:5470   */\n  dup10\n    /* \"#utility.yul\":5460:5477   */\n  and\n    /* \"#utility.yul\":5449:5458   */\n  dup3\n    /* \"#utility.yul\":5430:5478   */\n  tag_31\n  jump\t// in\ntag_101:\n    /* \"#utility.yul\":5422:5428   */\n  dup4\n    /* \"#utility.yul\":5415:5479   */\n  sstore\n    /* \"#utility.yul\":5337:5493   */\n  pop\n    /* \"#utility.yul\":5314:5493   */\ntag_100:\n    /* \"#utility.yul\":5539:5540   */\n  0x01\n    /* \"#utility.yul\":5535:5536   */\n  0x02\n    /* \"#utility.yul\":5527:5533   */\n  dup9\n    /* \"#utility.yul\":5523:5537   */\n  mul\n    /* \"#utility.yul\":5519:5541   */\n  add\n    /* \"#utility.yul\":5513:5517   */\n  dup9\n    /* \"#utility.yul\":5506:5542   */\n  sstore\n    /* \"#utility.yul\":4941:5552   */\n  pop\n  pop\n  pop\n    /* \"#utility.yul\":4904:5791   */\ntag_92:\n  pop\n    /* \"#utility.yul\":4494:5797   */\n  pop\n  pop\n  pop\n    /* \"#utility.yul\":4402:5797   */\n  pop\n  pop\n  jump\t// out\n    /* \"contracts/auction.sol\":73:4376  contract Auction{... */\ntag_11:\n  dataSize(sub_0)\n  dup1\n  dataOffset(sub_0)\n  0x00\n  codecopy\n  0x00\n  return\nstop\n\nsub_0: assembly {\n        /* \"contracts/auction.sol\":73:4376  contract Auction{... */\n      mstore(0x40, 0x80)\n      jumpi(tag_1, lt(calldatasize, 0x04))\n      shr(0xe0, calldataload(0x00))\n      dup1\n      0x8fa8b790\n      gt\n      tag_14\n      jumpi\n      dup1\n      0x8fa8b790\n      eq\n      tag_8\n      jumpi\n      dup1\n      0x91f90157\n      eq\n      tag_9\n      jumpi\n      dup1\n      0xc623674f\n      eq\n      tag_10\n      jumpi\n      dup1\n      0xecfc7ecc\n      eq\n      tag_11\n      jumpi\n      dup1\n      0xf5b56c56\n      eq\n      tag_12\n      jumpi\n      dup1\n      0xf77282ab\n      eq\n      tag_13\n      jumpi\n      jump(tag_1)\n    tag_14:\n      dup1\n      0x083c6323\n      eq\n      tag_2\n      jumpi\n      dup1\n      0x48cd4cb1\n      eq\n      tag_3\n      jumpi\n      dup1\n      0x62ea82db\n      eq\n      tag_4\n      jumpi\n      dup1\n      0x7fb45099\n      eq\n      tag_5\n      jumpi\n      dup1\n      0x8b7b097f\n      eq\n      tag_6\n      jumpi\n      dup1\n      0x8da5cb5b\n      eq\n      tag_7\n      jumpi\n    tag_1:\n      0x00\n      dup1\n      revert\n        /* \"contracts/auction.sol\":157:177  uint public endBlock */\n    tag_2:\n      callvalue\n      dup1\n      iszero\n      tag_15\n      jumpi\n      0x00\n      dup1\n      revert\n    tag_15:\n      pop\n      tag_16\n      tag_17\n      jump\t// in\n    tag_16:\n      mload(0x40)\n      tag_18\n      swap2\n      swap1\n      tag_19\n      jump\t// in\n    tag_18:\n      mload(0x40)\n      dup1\n      swap2\n      sub\n      swap1\n      return\n        /* \"contracts/auction.sol\":129:151  uint public startBlock */\n    tag_3:\n      callvalue\n      dup1\n      iszero\n      tag_20\n      jumpi\n      0x00\n      dup1\n      revert\n    tag_20:\n      pop\n      tag_21\n      tag_22\n      jump\t// in\n    tag_21:\n      mload(0x40)\n      tag_23\n      swap2\n      swap1\n      tag_19\n      jump\t// in\n    tag_23:\n      mload(0x40)\n      dup1\n      swap2\n      sub\n      swap1\n      return\n        /* \"contracts/auction.sol\":392:428  mapping(address => uint) public bids */\n    tag_4:\n      callvalue\n      dup1\n      iszero\n      tag_24\n      jumpi\n      0x00\n      dup1\n      revert\n    tag_24:\n      pop\n      tag_25\n      0x04\n      dup1\n      calldatasize\n      sub\n      dup2\n      add\n      swap1\n      tag_26\n      swap2\n      swap1\n      tag_27\n      jump\t// in\n    tag_26:\n      tag_28\n      jump\t// in\n    tag_25:\n      mload(0x40)\n      tag_29\n      swap2\n      swap1\n      tag_19\n      jump\t// in\n    tag_29:\n      mload(0x40)\n      dup1\n      swap2\n      sub\n      swap1\n      return\n        /* \"contracts/auction.sol\":269:294  State public auctionState */\n    tag_5:\n      callvalue\n      dup1\n      iszero\n      tag_30\n      jumpi\n      0x00\n      dup1\n      revert\n    tag_30:\n      pop\n      tag_31\n      tag_32\n      jump\t// in\n    tag_31:\n      mload(0x40)\n      tag_33\n      swap2\n      swap1\n      tag_34\n      jump\t// in\n    tag_33:\n      mload(0x40)\n      dup1\n      swap2\n      sub\n      swap1\n      return\n        /* \"contracts/auction.sol\":543:577  bool public ownerFinalized = false */\n    tag_6:\n      callvalue\n      dup1\n      iszero\n      tag_35\n      jumpi\n      0x00\n      dup1\n      revert\n    tag_35:\n      pop\n      tag_36\n      tag_37\n      jump\t// in\n    tag_36:\n      mload(0x40)\n      tag_38\n      swap2\n      swap1\n      tag_39\n      jump\t// in\n    tag_38:\n      mload(0x40)\n      dup1\n      swap2\n      sub\n      swap1\n      return\n        /* \"contracts/auction.sol\":95:123  address payable public owner */\n    tag_7:\n      callvalue\n      dup1\n      iszero\n      tag_40\n      jumpi\n      0x00\n      dup1\n      revert\n    tag_40:\n      pop\n      tag_41\n      tag_42\n      jump\t// in\n    tag_41:\n      mload(0x40)\n      tag_43\n      swap2\n      swap1\n      tag_44\n      jump\t// in\n    tag_43:\n      mload(0x40)\n      dup1\n      swap2\n      sub\n      swap1\n      return\n        /* \"contracts/auction.sol\":1588:1685  function cancelAuction() public beforeEnd onlyOwner{... */\n    tag_8:\n      callvalue\n      dup1\n      iszero\n      tag_45\n      jumpi\n      0x00\n      dup1\n      revert\n    tag_45:\n      pop\n      tag_46\n      tag_47\n      jump\t// in\n    tag_46:\n      stop\n        /* \"contracts/auction.sol\":350:386  address payable public highestBidder */\n    tag_9:\n      callvalue\n      dup1\n      iszero\n      tag_48\n      jumpi\n      0x00\n      dup1\n      revert\n    tag_48:\n      pop\n      tag_49\n      tag_50\n      jump\t// in\n    tag_49:\n      mload(0x40)\n      tag_51\n      swap2\n      swap1\n      tag_44\n      jump\t// in\n    tag_51:\n      mload(0x40)\n      dup1\n      swap2\n      sub\n      swap1\n      return\n        /* \"contracts/auction.sol\":183:205  string public ipfsHash */\n    tag_10:\n      callvalue\n      dup1\n      iszero\n      tag_52\n      jumpi\n      0x00\n      dup1\n      revert\n    tag_52:\n      pop\n      tag_53\n      tag_54\n      jump\t// in\n    tag_53:\n      mload(0x40)\n      tag_55\n      swap2\n      swap1\n      tag_56\n      jump\t// in\n    tag_55:\n      mload(0x40)\n      dup1\n      swap2\n      sub\n      swap1\n      return\n        /* \"contracts/auction.sol\":1747:2741  function placeBid() public payable notOwner afterStart beforeEnd returns(bool){... */\n    tag_11:\n      tag_57\n      tag_58\n      jump\t// in\n    tag_57:\n      mload(0x40)\n      tag_59\n      swap2\n      swap1\n      tag_39\n      jump\t// in\n    tag_59:\n      mload(0x40)\n      dup1\n      swap2\n      sub\n      swap1\n      return\n        /* \"contracts/auction.sol\":305:334  uint public highestBindingBid */\n    tag_12:\n      callvalue\n      dup1\n      iszero\n      tag_60\n      jumpi\n      0x00\n      dup1\n      revert\n    tag_60:\n      pop\n      tag_61\n      tag_62\n      jump\t// in\n    tag_61:\n      mload(0x40)\n      tag_63\n      swap2\n      swap1\n      tag_19\n      jump\t// in\n    tag_63:\n      mload(0x40)\n      dup1\n      swap2\n      sub\n      swap1\n      return\n        /* \"contracts/auction.sol\":2761:4373  function finalizeAuction() public{... */\n    tag_13:\n      callvalue\n      dup1\n      iszero\n      tag_64\n      jumpi\n      0x00\n      dup1\n      revert\n    tag_64:\n      pop\n      tag_65\n      tag_66\n      jump\t// in\n    tag_65:\n      stop\n        /* \"contracts/auction.sol\":157:177  uint public endBlock */\n    tag_17:\n      sload(0x02)\n      dup2\n      jump\t// out\n        /* \"contracts/auction.sol\":129:151  uint public startBlock */\n    tag_22:\n      sload(0x01)\n      dup2\n      jump\t// out\n        /* \"contracts/auction.sol\":392:428  mapping(address => uint) public bids */\n    tag_28:\n      mstore(0x20, 0x07)\n      dup1\n      0x00\n      mstore\n      keccak256(0x00, 0x40)\n      0x00\n      swap2\n      pop\n      swap1\n      pop\n      sload\n      dup2\n      jump\t// out\n        /* \"contracts/auction.sol\":269:294  State public auctionState */\n    tag_32:\n      0x04\n      0x00\n      swap1\n      sload\n      swap1\n      0x0100\n      exp\n      swap1\n      div\n      0xff\n      and\n      dup2\n      jump\t// out\n        /* \"contracts/auction.sol\":543:577  bool public ownerFinalized = false */\n    tag_37:\n      0x09\n      0x00\n      swap1\n      sload\n      swap1\n      0x0100\n      exp\n      swap1\n      div\n      0xff\n      and\n      dup2\n      jump\t// out\n        /* \"contracts/auction.sol\":95:123  address payable public owner */\n    tag_42:\n      0x00\n      dup1\n      sload\n      swap1\n      0x0100\n      exp\n      swap1\n      div\n      0xffffffffffffffffffffffffffffffffffffffff\n      and\n      dup2\n      jump\t// out\n        /* \"contracts/auction.sol\":1588:1685  function cancelAuction() public beforeEnd onlyOwner{... */\n    tag_47:\n        /* \"contracts/auction.sol\":1228:1236  endBlock */\n      sload(0x02)\n        /* \"contracts/auction.sol\":1212:1224  block.number */\n      number\n        /* \"contracts/auction.sol\":1212:1236  block.number <= endBlock */\n      gt\n      iszero\n        /* \"contracts/auction.sol\":1204:1237  require(block.number <= endBlock) */\n      tag_68\n      jumpi\n      0x00\n      dup1\n      revert\n    tag_68:\n        /* \"contracts/auction.sol\":1046:1051  owner */\n      0x00\n      dup1\n      sload\n      swap1\n      0x0100\n      exp\n      swap1\n      div\n      0xffffffffffffffffffffffffffffffffffffffff\n      and\n        /* \"contracts/auction.sol\":1032:1051  msg.sender == owner */\n      0xffffffffffffffffffffffffffffffffffffffff\n      and\n        /* \"contracts/auction.sol\":1032:1042  msg.sender */\n      caller\n        /* \"contracts/auction.sol\":1032:1051  msg.sender == owner */\n      0xffffffffffffffffffffffffffffffffffffffff\n      and\n      eq\n        /* \"contracts/auction.sol\":1024:1052  require(msg.sender == owner) */\n      tag_70\n      jumpi\n      0x00\n      dup1\n      revert\n    tag_70:\n        /* \"contracts/auction.sol\":1664:1678  State.Canceled */\n      0x03\n        /* \"contracts/auction.sol\":1649:1661  auctionState */\n      0x04\n      0x00\n        /* \"contracts/auction.sol\":1649:1678  auctionState = State.Canceled */\n      0x0100\n      exp\n      dup2\n      sload\n      dup2\n      0xff\n      mul\n      not\n      and\n      swap1\n      dup4\n      0x03\n      dup2\n      gt\n      iszero\n      tag_72\n      jumpi\n      tag_73\n      tag_74\n      jump\t// in\n    tag_73:\n    tag_72:\n      mul\n      or\n      swap1\n      sstore\n      pop\n        /* \"contracts/auction.sol\":1588:1685  function cancelAuction() public beforeEnd onlyOwner{... */\n      jump\t// out\n        /* \"contracts/auction.sol\":350:386  address payable public highestBidder */\n    tag_50:\n      0x06\n      0x00\n      swap1\n      sload\n      swap1\n      0x0100\n      exp\n      swap1\n      div\n      0xffffffffffffffffffffffffffffffffffffffff\n      and\n      dup2\n      jump\t// out\n        /* \"contracts/auction.sol\":183:205  string public ipfsHash */\n    tag_54:\n      0x03\n      dup1\n      sload\n      tag_75\n      swap1\n      tag_76\n      jump\t// in\n    tag_75:\n      dup1\n      0x1f\n      add\n      0x20\n      dup1\n      swap2\n      div\n      mul\n      0x20\n      add\n      mload(0x40)\n      swap1\n      dup2\n      add\n      0x40\n      mstore\n      dup1\n      swap3\n      swap2\n      swap1\n      dup2\n      dup2\n      mstore\n      0x20\n      add\n      dup3\n      dup1\n      sload\n      tag_77\n      swap1\n      tag_76\n      jump\t// in\n    tag_77:\n      dup1\n      iszero\n      tag_78\n      jumpi\n      dup1\n      0x1f\n      lt\n      tag_79\n      jumpi\n      0x0100\n      dup1\n      dup4\n      sload\n      div\n      mul\n      dup4\n      mstore\n      swap2\n      0x20\n      add\n      swap2\n      jump(tag_78)\n    tag_79:\n      dup3\n      add\n      swap2\n      swap1\n      0x00\n      mstore\n      keccak256(0x00, 0x20)\n      swap1\n    tag_80:\n      dup2\n      sload\n      dup2\n      mstore\n      swap1\n      0x01\n      add\n      swap1\n      0x20\n      add\n      dup1\n      dup4\n      gt\n      tag_80\n      jumpi\n      dup3\n      swap1\n      sub\n      0x1f\n      and\n      dup3\n      add\n      swap2\n    tag_78:\n      pop\n      pop\n      pop\n      pop\n      pop\n      dup2\n      jump\t// out\n        /* \"contracts/auction.sol\":1747:2741  function placeBid() public payable notOwner afterStart beforeEnd returns(bool){... */\n    tag_58:\n        /* \"contracts/auction.sol\":1820:1824  bool */\n      0x00\n        /* \"contracts/auction.sol\":960:965  owner */\n      dup1\n      0x00\n      swap1\n      sload\n      swap1\n      0x0100\n      exp\n      swap1\n      div\n      0xffffffffffffffffffffffffffffffffffffffff\n      and\n        /* \"contracts/auction.sol\":946:965  msg.sender != owner */\n      0xffffffffffffffffffffffffffffffffffffffff\n      and\n        /* \"contracts/auction.sol\":946:956  msg.sender */\n      caller\n        /* \"contracts/auction.sol\":946:965  msg.sender != owner */\n      0xffffffffffffffffffffffffffffffffffffffff\n      and\n      sub\n        /* \"contracts/auction.sol\":938:966  require(msg.sender != owner) */\n      tag_82\n      jumpi\n      0x00\n      dup1\n      revert\n    tag_82:\n        /* \"contracts/auction.sol\":1135:1145  startBlock */\n      sload(0x01)\n        /* \"contracts/auction.sol\":1119:1131  block.number */\n      number\n        /* \"contracts/auction.sol\":1119:1145  block.number >= startBlock */\n      lt\n      iszero\n        /* \"contracts/auction.sol\":1111:1146  require(block.number >= startBlock) */\n      tag_84\n      jumpi\n      0x00\n      dup1\n      revert\n    tag_84:\n        /* \"contracts/auction.sol\":1228:1236  endBlock */\n      sload(0x02)\n        /* \"contracts/auction.sol\":1212:1224  block.number */\n      number\n        /* \"contracts/auction.sol\":1212:1236  block.number <= endBlock */\n      gt\n      iszero\n        /* \"contracts/auction.sol\":1204:1237  require(block.number <= endBlock) */\n      tag_86\n      jumpi\n      0x00\n      dup1\n      revert\n    tag_86:\n        /* \"contracts/auction.sol\":1911:1924  State.Running */\n      0x01\n        /* \"contracts/auction.sol\":1895:1924  auctionState == State.Running */\n      0x03\n      dup2\n      gt\n      iszero\n      tag_88\n      jumpi\n      tag_89\n      tag_74\n      jump\t// in\n    tag_89:\n    tag_88:\n        /* \"contracts/auction.sol\":1895:1907  auctionState */\n      0x04\n      0x00\n      swap1\n      sload\n      swap1\n      0x0100\n      exp\n      swap1\n      div\n      0xff\n      and\n        /* \"contracts/auction.sol\":1895:1924  auctionState == State.Running */\n      0x03\n      dup2\n      gt\n      iszero\n      tag_90\n      jumpi\n      tag_91\n      tag_74\n      jump\t// in\n    tag_91:\n    tag_90:\n      eq\n        /* \"contracts/auction.sol\":1887:1925  require(auctionState == State.Running) */\n      tag_92\n      jumpi\n      0x00\n      dup1\n      revert\n    tag_92:\n        /* \"contracts/auction.sol\":2034:2049  uint currentBid */\n      0x00\n        /* \"contracts/auction.sol\":2071:2080  msg.value */\n      callvalue\n        /* \"contracts/auction.sol\":2052:2056  bids */\n      0x07\n        /* \"contracts/auction.sol\":2052:2068  bids[msg.sender] */\n      0x00\n        /* \"contracts/auction.sol\":2057:2067  msg.sender */\n      caller\n        /* \"contracts/auction.sol\":2052:2068  bids[msg.sender] */\n      0xffffffffffffffffffffffffffffffffffffffff\n      and\n      0xffffffffffffffffffffffffffffffffffffffff\n      and\n      dup2\n      mstore\n      0x20\n      add\n      swap1\n      dup2\n      mstore\n      0x20\n      add\n      0x00\n      keccak256\n      sload\n        /* \"contracts/auction.sol\":2052:2080  bids[msg.sender] + msg.value */\n      tag_93\n      swap2\n      swap1\n      tag_94\n      jump\t// in\n    tag_93:\n        /* \"contracts/auction.sol\":2034:2080  uint currentBid = bids[msg.sender] + msg.value */\n      swap1\n      pop\n        /* \"contracts/auction.sol\":2237:2254  highestBindingBid */\n      sload(0x05)\n        /* \"contracts/auction.sol\":2224:2234  currentBid */\n      dup2\n        /* \"contracts/auction.sol\":2224:2254  currentBid > highestBindingBid */\n      gt\n        /* \"contracts/auction.sol\":2216:2255  require(currentBid > highestBindingBid) */\n      tag_95\n      jumpi\n      0x00\n      dup1\n      revert\n    tag_95:\n        /* \"contracts/auction.sol\":2334:2344  currentBid */\n      dup1\n        /* \"contracts/auction.sol\":2315:2319  bids */\n      0x07\n        /* \"contracts/auction.sol\":2315:2331  bids[msg.sender] */\n      0x00\n        /* \"contracts/auction.sol\":2320:2330  msg.sender */\n      caller\n        /* \"contracts/auction.sol\":2315:2331  bids[msg.sender] */\n      0xffffffffffffffffffffffffffffffffffffffff\n      and\n      0xffffffffffffffffffffffffffffffffffffffff\n      and\n      dup2\n      mstore\n      0x20\n      add\n      swap1\n      dup2\n      mstore\n      0x20\n      add\n      0x00\n      keccak256\n        /* \"contracts/auction.sol\":2315:2344  bids[msg.sender] = currentBid */\n      dup2\n      swap1\n      sstore\n      pop\n        /* \"contracts/auction.sol\":2381:2385  bids */\n      0x07\n        /* \"contracts/auction.sol\":2381:2400  bids[highestBidder] */\n      0x00\n        /* \"contracts/auction.sol\":2386:2399  highestBidder */\n      0x06\n      0x00\n      swap1\n      sload\n      swap1\n      0x0100\n      exp\n      swap1\n      div\n      0xffffffffffffffffffffffffffffffffffffffff\n      and\n        /* \"contracts/auction.sol\":2381:2400  bids[highestBidder] */\n      0xffffffffffffffffffffffffffffffffffffffff\n      and\n      0xffffffffffffffffffffffffffffffffffffffff\n      and\n      dup2\n      mstore\n      0x20\n      add\n      swap1\n      dup2\n      mstore\n      0x20\n      add\n      0x00\n      keccak256\n      sload\n        /* \"contracts/auction.sol\":2367:2377  currentBid */\n      dup2\n        /* \"contracts/auction.sol\":2367:2400  currentBid <= bids[highestBidder] */\n      gt\n        /* \"contracts/auction.sol\":2363:2718  if (currentBid <= bids[highestBidder]){ // highestBidder remains unchanged... */\n      tag_96\n      jumpi\n        /* \"contracts/auction.sol\":2470:2521  min(currentBid + bidIncrement, bids[highestBidder]) */\n      tag_97\n        /* \"contracts/auction.sol\":2487:2499  bidIncrement */\n      sload(0x08)\n        /* \"contracts/auction.sol\":2474:2484  currentBid */\n      dup3\n        /* \"contracts/auction.sol\":2474:2499  currentBid + bidIncrement */\n      tag_98\n      swap2\n      swap1\n      tag_94\n      jump\t// in\n    tag_98:\n        /* \"contracts/auction.sol\":2501:2505  bids */\n      0x07\n        /* \"contracts/auction.sol\":2501:2520  bids[highestBidder] */\n      0x00\n        /* \"contracts/auction.sol\":2506:2519  highestBidder */\n      0x06\n      0x00\n      swap1\n      sload\n      swap1\n      0x0100\n      exp\n      swap1\n      div\n      0xffffffffffffffffffffffffffffffffffffffff\n      and\n        /* \"contracts/auction.sol\":2501:2520  bids[highestBidder] */\n      0xffffffffffffffffffffffffffffffffffffffff\n      and\n      0xffffffffffffffffffffffffffffffffffffffff\n      and\n      dup2\n      mstore\n      0x20\n      add\n      swap1\n      dup2\n      mstore\n      0x20\n      add\n      0x00\n      keccak256\n      sload\n        /* \"contracts/auction.sol\":2470:2473  min */\n      tag_99\n        /* \"contracts/auction.sol\":2470:2521  min(currentBid + bidIncrement, bids[highestBidder]) */\n      jump\t// in\n    tag_97:\n        /* \"contracts/auction.sol\":2450:2467  highestBindingBid */\n      0x05\n        /* \"contracts/auction.sol\":2450:2521  highestBindingBid = min(currentBid + bidIncrement, bids[highestBidder]) */\n      dup2\n      swap1\n      sstore\n      pop\n        /* \"contracts/auction.sol\":2363:2718  if (currentBid <= bids[highestBidder]){ // highestBidder remains unchanged... */\n      jump(tag_100)\n    tag_96:\n        /* \"contracts/auction.sol\":2606:2657  min(currentBid, bids[highestBidder] + bidIncrement) */\n      tag_101\n        /* \"contracts/auction.sol\":2610:2620  currentBid */\n      dup2\n        /* \"contracts/auction.sol\":2644:2656  bidIncrement */\n      sload(0x08)\n        /* \"contracts/auction.sol\":2622:2626  bids */\n      0x07\n        /* \"contracts/auction.sol\":2622:2641  bids[highestBidder] */\n      0x00\n        /* \"contracts/auction.sol\":2627:2640  highestBidder */\n      0x06\n      0x00\n      swap1\n      sload\n      swap1\n      0x0100\n      exp\n      swap1\n      div\n      0xffffffffffffffffffffffffffffffffffffffff\n      and\n        /* \"contracts/auction.sol\":2622:2641  bids[highestBidder] */\n      0xffffffffffffffffffffffffffffffffffffffff\n      and\n      0xffffffffffffffffffffffffffffffffffffffff\n      and\n      dup2\n      mstore\n      0x20\n      add\n      swap1\n      dup2\n      mstore\n      0x20\n      add\n      0x00\n      keccak256\n      sload\n        /* \"contracts/auction.sol\":2622:2656  bids[highestBidder] + bidIncrement */\n      tag_102\n      swap2\n      swap1\n      tag_94\n      jump\t// in\n    tag_102:\n        /* \"contracts/auction.sol\":2606:2609  min */\n      tag_99\n        /* \"contracts/auction.sol\":2606:2657  min(currentBid, bids[highestBidder] + bidIncrement) */\n      jump\t// in\n    tag_101:\n        /* \"contracts/auction.sol\":2586:2603  highestBindingBid */\n      0x05\n        /* \"contracts/auction.sol\":2586:2657  highestBindingBid = min(currentBid, bids[highestBidder] + bidIncrement) */\n      dup2\n      swap1\n      sstore\n      pop\n        /* \"contracts/auction.sol\":2696:2706  msg.sender */\n      caller\n        /* \"contracts/auction.sol\":2672:2685  highestBidder */\n      0x06\n      0x00\n        /* \"contracts/auction.sol\":2672:2707  highestBidder = payable(msg.sender) */\n      0x0100\n      exp\n      dup2\n      sload\n      dup2\n      0xffffffffffffffffffffffffffffffffffffffff\n      mul\n      not\n      and\n      swap1\n      dup4\n      0xffffffffffffffffffffffffffffffffffffffff\n      and\n      mul\n      or\n      swap1\n      sstore\n      pop\n        /* \"contracts/auction.sol\":2363:2718  if (currentBid <= bids[highestBidder]){ // highestBidder remains unchanged... */\n    tag_100:\n        /* \"contracts/auction.sol\":2730:2734  true */\n      0x01\n        /* \"contracts/auction.sol\":2723:2734  return true */\n      swap2\n      pop\n      pop\n        /* \"contracts/auction.sol\":1747:2741  function placeBid() public payable notOwner afterStart beforeEnd returns(bool){... */\n      swap1\n      jump\t// out\n        /* \"contracts/auction.sol\":305:334  uint public highestBindingBid */\n    tag_62:\n      sload(0x05)\n      dup2\n      jump\t// out\n        /* \"contracts/auction.sol\":2761:4373  function finalizeAuction() public{... */\n    tag_66:\n        /* \"contracts/auction.sol\":2876:2890  State.Canceled */\n      0x03\n        /* \"contracts/auction.sol\":2860:2890  auctionState == State.Canceled */\n      dup1\n      dup2\n      gt\n      iszero\n      tag_104\n      jumpi\n      tag_105\n      tag_74\n      jump\t// in\n    tag_105:\n    tag_104:\n        /* \"contracts/auction.sol\":2860:2872  auctionState */\n      0x04\n      0x00\n      swap1\n      sload\n      swap1\n      0x0100\n      exp\n      swap1\n      div\n      0xff\n      and\n        /* \"contracts/auction.sol\":2860:2890  auctionState == State.Canceled */\n      0x03\n      dup2\n      gt\n      iszero\n      tag_106\n      jumpi\n      tag_107\n      tag_74\n      jump\t// in\n    tag_107:\n    tag_106:\n      eq\n        /* \"contracts/auction.sol\":2860:2917  auctionState == State.Canceled || block.number > endBlock */\n      dup1\n      tag_108\n      jumpi\n      pop\n        /* \"contracts/auction.sol\":2909:2917  endBlock */\n      sload(0x02)\n        /* \"contracts/auction.sol\":2894:2906  block.number */\n      number\n        /* \"contracts/auction.sol\":2894:2917  block.number > endBlock */\n      gt\n        /* \"contracts/auction.sol\":2860:2917  auctionState == State.Canceled || block.number > endBlock */\n    tag_108:\n        /* \"contracts/auction.sol\":2852:2918  require(auctionState == State.Canceled || block.number > endBlock) */\n      tag_109\n      jumpi\n      0x00\n      dup1\n      revert\n    tag_109:\n        /* \"contracts/auction.sol\":3020:3025  owner */\n      0x00\n      dup1\n      sload\n      swap1\n      0x0100\n      exp\n      swap1\n      div\n      0xffffffffffffffffffffffffffffffffffffffff\n      and\n        /* \"contracts/auction.sol\":3006:3025  msg.sender == owner */\n      0xffffffffffffffffffffffffffffffffffffffff\n      and\n        /* \"contracts/auction.sol\":3006:3016  msg.sender */\n      caller\n        /* \"contracts/auction.sol\":3006:3025  msg.sender == owner */\n      0xffffffffffffffffffffffffffffffffffffffff\n      and\n      eq\n        /* \"contracts/auction.sol\":3006:3049  msg.sender == owner || bids[msg.sender] > 0 */\n      dup1\n      tag_110\n      jumpi\n      pop\n        /* \"contracts/auction.sol\":3048:3049  0 */\n      0x00\n        /* \"contracts/auction.sol\":3029:3033  bids */\n      0x07\n        /* \"contracts/auction.sol\":3029:3045  bids[msg.sender] */\n      0x00\n        /* \"contracts/auction.sol\":3034:3044  msg.sender */\n      caller\n        /* \"contracts/auction.sol\":3029:3045  bids[msg.sender] */\n      0xffffffffffffffffffffffffffffffffffffffff\n      and\n      0xffffffffffffffffffffffffffffffffffffffff\n      and\n      dup2\n      mstore\n      0x20\n      add\n      swap1\n      dup2\n      mstore\n      0x20\n      add\n      0x00\n      keccak256\n      sload\n        /* \"contracts/auction.sol\":3029:3049  bids[msg.sender] > 0 */\n      gt\n        /* \"contracts/auction.sol\":3006:3049  msg.sender == owner || bids[msg.sender] > 0 */\n    tag_110:\n        /* \"contracts/auction.sol\":2998:3050  require(msg.sender == owner || bids[msg.sender] > 0) */\n      tag_111\n      jumpi\n      0x00\n      dup1\n      revert\n    tag_111:\n        /* \"contracts/auction.sol\":3110:3135  address payable recipient */\n      0x00\n        /* \"contracts/auction.sol\":3144:3154  uint value */\n      dup1\n        /* \"contracts/auction.sol\":3190:3204  State.Canceled */\n      0x03\n        /* \"contracts/auction.sol\":3174:3204  auctionState == State.Canceled */\n      dup1\n      dup2\n      gt\n      iszero\n      tag_112\n      jumpi\n      tag_113\n      tag_74\n      jump\t// in\n    tag_113:\n    tag_112:\n        /* \"contracts/auction.sol\":3174:3186  auctionState */\n      0x04\n      0x00\n      swap1\n      sload\n      swap1\n      0x0100\n      exp\n      swap1\n      div\n      0xff\n      and\n        /* \"contracts/auction.sol\":3174:3204  auctionState == State.Canceled */\n      0x03\n      dup2\n      gt\n      iszero\n      tag_114\n      jumpi\n      tag_115\n      tag_74\n      jump\t// in\n    tag_115:\n    tag_114:\n      sub\n        /* \"contracts/auction.sol\":3171:4149  if(auctionState == State.Canceled){ // auction canceled, not ended... */\n      tag_116\n      jumpi\n        /* \"contracts/auction.sol\":3269:3279  msg.sender */\n      caller\n        /* \"contracts/auction.sol\":3249:3280  recipient = payable(msg.sender) */\n      swap2\n      pop\n        /* \"contracts/auction.sol\":3301:3305  bids */\n      0x07\n        /* \"contracts/auction.sol\":3301:3317  bids[msg.sender] */\n      0x00\n        /* \"contracts/auction.sol\":3306:3316  msg.sender */\n      caller\n        /* \"contracts/auction.sol\":3301:3317  bids[msg.sender] */\n      0xffffffffffffffffffffffffffffffffffffffff\n      and\n      0xffffffffffffffffffffffffffffffffffffffff\n      and\n      dup2\n      mstore\n      0x20\n      add\n      swap1\n      dup2\n      mstore\n      0x20\n      add\n      0x00\n      keccak256\n      sload\n        /* \"contracts/auction.sol\":3293:3317  value = bids[msg.sender] */\n      swap1\n      pop\n        /* \"contracts/auction.sol\":3171:4149  if(auctionState == State.Canceled){ // auction canceled, not ended... */\n      jump(tag_117)\n    tag_116:\n        /* \"contracts/auction.sol\":3391:3396  owner */\n      0x00\n      dup1\n      sload\n      swap1\n      0x0100\n      exp\n      swap1\n      div\n      0xffffffffffffffffffffffffffffffffffffffff\n      and\n        /* \"contracts/auction.sol\":3377:3396  msg.sender == owner */\n      0xffffffffffffffffffffffffffffffffffffffff\n      and\n        /* \"contracts/auction.sol\":3377:3387  msg.sender */\n      caller\n        /* \"contracts/auction.sol\":3377:3396  msg.sender == owner */\n      0xffffffffffffffffffffffffffffffffffffffff\n      and\n      eq\n        /* \"contracts/auction.sol\":3377:3423  msg.sender == owner && ownerFinalized == false */\n      dup1\n      iszero\n      tag_118\n      jumpi\n      pop\n        /* \"contracts/auction.sol\":3418:3423  false */\n      0x00\n        /* \"contracts/auction.sol\":3400:3423  ownerFinalized == false */\n      iszero\n      iszero\n        /* \"contracts/auction.sol\":3400:3414  ownerFinalized */\n      0x09\n      0x00\n      swap1\n      sload\n      swap1\n      0x0100\n      exp\n      swap1\n      div\n      0xff\n      and\n        /* \"contracts/auction.sol\":3400:3423  ownerFinalized == false */\n      iszero\n      iszero\n      eq\n        /* \"contracts/auction.sol\":3377:3423  msg.sender == owner && ownerFinalized == false */\n    tag_118:\n        /* \"contracts/auction.sol\":3374:4140  if(msg.sender == owner && ownerFinalized == false){ //the owner finalizes the auction... */\n      iszero\n      tag_119\n      jumpi\n        /* \"contracts/auction.sol\":3487:3492  owner */\n      0x00\n      dup1\n      sload\n      swap1\n      0x0100\n      exp\n      swap1\n      div\n      0xffffffffffffffffffffffffffffffffffffffff\n      and\n        /* \"contracts/auction.sol\":3475:3492  recipient = owner */\n      swap2\n      pop\n        /* \"contracts/auction.sol\":3517:3534  highestBindingBid */\n      sload(0x05)\n        /* \"contracts/auction.sol\":3509:3534  value = highestBindingBid */\n      swap1\n      pop\n        /* \"contracts/auction.sol\":3676:3680  true */\n      0x01\n        /* \"contracts/auction.sol\":3659:3673  ownerFinalized */\n      0x09\n      0x00\n        /* \"contracts/auction.sol\":3659:3680  ownerFinalized = true */\n      0x0100\n      exp\n      dup2\n      sload\n      dup2\n      0xff\n      mul\n      not\n      and\n      swap1\n      dup4\n      iszero\n      iszero\n      mul\n      or\n      swap1\n      sstore\n      pop\n        /* \"contracts/auction.sol\":3374:4140  if(msg.sender == owner && ownerFinalized == false){ //the owner finalizes the auction... */\n      jump(tag_120)\n    tag_119:\n        /* \"contracts/auction.sol\":3787:3800  highestBidder */\n      0x06\n      0x00\n      swap1\n      sload\n      swap1\n      0x0100\n      exp\n      swap1\n      div\n      0xffffffffffffffffffffffffffffffffffffffff\n      and\n        /* \"contracts/auction.sol\":3773:3800  msg.sender == highestBidder */\n      0xffffffffffffffffffffffffffffffffffffffff\n      and\n        /* \"contracts/auction.sol\":3773:3783  msg.sender */\n      caller\n        /* \"contracts/auction.sol\":3773:3800  msg.sender == highestBidder */\n      0xffffffffffffffffffffffffffffffffffffffff\n      and\n      sub\n        /* \"contracts/auction.sol\":3769:4127  if (msg.sender == highestBidder){... */\n      tag_121\n      jumpi\n        /* \"contracts/auction.sol\":3834:3847  highestBidder */\n      0x06\n      0x00\n      swap1\n      sload\n      swap1\n      0x0100\n      exp\n      swap1\n      div\n      0xffffffffffffffffffffffffffffffffffffffff\n      and\n        /* \"contracts/auction.sol\":3822:3847  recipient = highestBidder */\n      swap2\n      pop\n        /* \"contracts/auction.sol\":3898:3915  highestBindingBid */\n      sload(0x05)\n        /* \"contracts/auction.sol\":3876:3880  bids */\n      0x07\n        /* \"contracts/auction.sol\":3876:3895  bids[highestBidder] */\n      0x00\n        /* \"contracts/auction.sol\":3881:3894  highestBidder */\n      0x06\n      0x00\n      swap1\n      sload\n      swap1\n      0x0100\n      exp\n      swap1\n      div\n      0xffffffffffffffffffffffffffffffffffffffff\n      and\n        /* \"contracts/auction.sol\":3876:3895  bids[highestBidder] */\n      0xffffffffffffffffffffffffffffffffffffffff\n      and\n      0xffffffffffffffffffffffffffffffffffffffff\n      and\n      dup2\n      mstore\n      0x20\n      add\n      swap1\n      dup2\n      mstore\n      0x20\n      add\n      0x00\n      keccak256\n      sload\n        /* \"contracts/auction.sol\":3876:3915  bids[highestBidder] - highestBindingBid */\n      tag_122\n      swap2\n      swap1\n      tag_123\n      jump\t// in\n    tag_122:\n        /* \"contracts/auction.sol\":3868:3915  value = bids[highestBidder] - highestBindingBid */\n      swap1\n      pop\n        /* \"contracts/auction.sol\":3769:4127  if (msg.sender == highestBidder){... */\n      jump(tag_124)\n    tag_121:\n        /* \"contracts/auction.sol\":4053:4063  msg.sender */\n      caller\n        /* \"contracts/auction.sol\":4033:4064  recipient = payable(msg.sender) */\n      swap2\n      pop\n        /* \"contracts/auction.sol\":4093:4097  bids */\n      0x07\n        /* \"contracts/auction.sol\":4093:4109  bids[msg.sender] */\n      0x00\n        /* \"contracts/auction.sol\":4098:4108  msg.sender */\n      caller\n        /* \"contracts/auction.sol\":4093:4109  bids[msg.sender] */\n      0xffffffffffffffffffffffffffffffffffffffff\n      and\n      0xffffffffffffffffffffffffffffffffffffffff\n      and\n      dup2\n      mstore\n      0x20\n      add\n      swap1\n      dup2\n      mstore\n      0x20\n      add\n      0x00\n      keccak256\n      sload\n        /* \"contracts/auction.sol\":4085:4109  value = bids[msg.sender] */\n      swap1\n      pop\n        /* \"contracts/auction.sol\":3769:4127  if (msg.sender == highestBidder){... */\n    tag_124:\n        /* \"contracts/auction.sol\":3374:4140  if(msg.sender == owner && ownerFinalized == false){ //the owner finalizes the auction... */\n    tag_120:\n        /* \"contracts/auction.sol\":3171:4149  if(auctionState == State.Canceled){ // auction canceled, not ended... */\n    tag_117:\n        /* \"contracts/auction.sol\":4279:4280  0 */\n      0x00\n        /* \"contracts/auction.sol\":4261:4265  bids */\n      0x07\n        /* \"contracts/auction.sol\":4261:4276  bids[recipient] */\n      0x00\n        /* \"contracts/auction.sol\":4266:4275  recipient */\n      dup5\n        /* \"contracts/auction.sol\":4261:4276  bids[recipient] */\n      0xffffffffffffffffffffffffffffffffffffffff\n      and\n      0xffffffffffffffffffffffffffffffffffffffff\n      and\n      dup2\n      mstore\n      0x20\n      add\n      swap1\n      dup2\n      mstore\n      0x20\n      add\n      0x00\n      keccak256\n        /* \"contracts/auction.sol\":4261:4280  bids[recipient] = 0 */\n      dup2\n      swap1\n      sstore\n      pop\n        /* \"contracts/auction.sol\":4335:4344  recipient */\n      dup2\n        /* \"contracts/auction.sol\":4335:4353  recipient.transfer */\n      0xffffffffffffffffffffffffffffffffffffffff\n      and\n        /* \"contracts/auction.sol\":4335:4360  recipient.transfer(value) */\n      0x08fc\n        /* \"contracts/auction.sol\":4354:4359  value */\n      dup3\n        /* \"contracts/auction.sol\":4335:4360  recipient.transfer(value) */\n      swap1\n      dup2\n      iszero\n      mul\n      swap1\n      mload(0x40)\n      0x00\n      mload(0x40)\n      dup1\n      dup4\n      sub\n      dup2\n      dup6\n      dup9\n      dup9\n      call\n      swap4\n      pop\n      pop\n      pop\n      pop\n      iszero\n      dup1\n      iszero\n      tag_126\n      jumpi\n      returndatasize\n      0x00\n      dup1\n      returndatacopy\n      revert(0x00, returndatasize)\n    tag_126:\n      pop\n        /* \"contracts/auction.sol\":2794:4373  {... */\n      pop\n      pop\n        /* \"contracts/auction.sol\":2761:4373  function finalizeAuction() public{... */\n      jump\t// out\n        /* \"contracts/auction.sol\":1351:1504  function min(uint a, uint b) pure internal returns(uint){... */\n    tag_99:\n        /* \"contracts/auction.sol\":1402:1406  uint */\n      0x00\n        /* \"contracts/auction.sol\":1426:1427  b */\n      dup2\n        /* \"contracts/auction.sol\":1421:1422  a */\n      dup4\n        /* \"contracts/auction.sol\":1421:1427  a <= b */\n      gt\n        /* \"contracts/auction.sol\":1417:1498  if (a <= b){... */\n      tag_128\n      jumpi\n        /* \"contracts/auction.sol\":1449:1450  a */\n      dup3\n        /* \"contracts/auction.sol\":1442:1450  return a */\n      swap1\n      pop\n      jump(tag_127)\n        /* \"contracts/auction.sol\":1417:1498  if (a <= b){... */\n    tag_128:\n        /* \"contracts/auction.sol\":1486:1487  b */\n      dup2\n        /* \"contracts/auction.sol\":1479:1487  return b */\n      swap1\n      pop\n        /* \"contracts/auction.sol\":1351:1504  function min(uint a, uint b) pure internal returns(uint){... */\n    tag_127:\n      swap3\n      swap2\n      pop\n      pop\n      jump\t// out\n        /* \"#utility.yul\":7:84   */\n    tag_130:\n        /* \"#utility.yul\":44:51   */\n      0x00\n        /* \"#utility.yul\":73:78   */\n      dup2\n        /* \"#utility.yul\":62:78   */\n      swap1\n      pop\n        /* \"#utility.yul\":7:84   */\n      swap2\n      swap1\n      pop\n      jump\t// out\n        /* \"#utility.yul\":90:208   */\n    tag_131:\n        /* \"#utility.yul\":177:201   */\n      tag_157\n        /* \"#utility.yul\":195:200   */\n      dup2\n        /* \"#utility.yul\":177:201   */\n      tag_130\n      jump\t// in\n    tag_157:\n        /* \"#utility.yul\":172:175   */\n      dup3\n        /* \"#utility.yul\":165:202   */\n      mstore\n        /* \"#utility.yul\":90:208   */\n      pop\n      pop\n      jump\t// out\n        /* \"#utility.yul\":214:436   */\n    tag_19:\n        /* \"#utility.yul\":307:311   */\n      0x00\n        /* \"#utility.yul\":345:347   */\n      0x20\n        /* \"#utility.yul\":334:343   */\n      dup3\n        /* \"#utility.yul\":330:348   */\n      add\n        /* \"#utility.yul\":322:348   */\n      swap1\n      pop\n        /* \"#utility.yul\":358:429   */\n      tag_159\n        /* \"#utility.yul\":426:427   */\n      0x00\n        /* \"#utility.yul\":415:424   */\n      dup4\n        /* \"#utility.yul\":411:428   */\n      add\n        /* \"#utility.yul\":402:408   */\n      dup5\n        /* \"#utility.yul\":358:429   */\n      tag_131\n      jump\t// in\n    tag_159:\n        /* \"#utility.yul\":214:436   */\n      swap3\n      swap2\n      pop\n      pop\n      jump\t// out\n        /* \"#utility.yul\":523:640   */\n    tag_133:\n        /* \"#utility.yul\":632:633   */\n      0x00\n        /* \"#utility.yul\":629:630   */\n      dup1\n        /* \"#utility.yul\":622:634   */\n      revert\n        /* \"#utility.yul\":769:895   */\n    tag_135:\n        /* \"#utility.yul\":806:813   */\n      0x00\n        /* \"#utility.yul\":846:888   */\n      0xffffffffffffffffffffffffffffffffffffffff\n        /* \"#utility.yul\":839:844   */\n      dup3\n        /* \"#utility.yul\":835:889   */\n      and\n        /* \"#utility.yul\":824:889   */\n      swap1\n      pop\n        /* \"#utility.yul\":769:895   */\n      swap2\n      swap1\n      pop\n      jump\t// out\n        /* \"#utility.yul\":901:997   */\n    tag_136:\n        /* \"#utility.yul\":938:945   */\n      0x00\n        /* \"#utility.yul\":967:991   */\n      tag_165\n        /* \"#utility.yul\":985:990   */\n      dup3\n        /* \"#utility.yul\":967:991   */\n      tag_135\n      jump\t// in\n    tag_165:\n        /* \"#utility.yul\":956:991   */\n      swap1\n      pop\n        /* \"#utility.yul\":901:997   */\n      swap2\n      swap1\n      pop\n      jump\t// out\n        /* \"#utility.yul\":1003:1125   */\n    tag_137:\n        /* \"#utility.yul\":1076:1100   */\n      tag_167\n        /* \"#utility.yul\":1094:1099   */\n      dup2\n        /* \"#utility.yul\":1076:1100   */\n      tag_136\n      jump\t// in\n    tag_167:\n        /* \"#utility.yul\":1069:1074   */\n      dup2\n        /* \"#utility.yul\":1066:1101   */\n      eq\n        /* \"#utility.yul\":1056:1119   */\n      tag_168\n      jumpi\n        /* \"#utility.yul\":1115:1116   */\n      0x00\n        /* \"#utility.yul\":1112:1113   */\n      dup1\n        /* \"#utility.yul\":1105:1117   */\n      revert\n        /* \"#utility.yul\":1056:1119   */\n    tag_168:\n        /* \"#utility.yul\":1003:1125   */\n      pop\n      jump\t// out\n        /* \"#utility.yul\":1131:1270   */\n    tag_138:\n        /* \"#utility.yul\":1177:1182   */\n      0x00\n        /* \"#utility.yul\":1215:1221   */\n      dup2\n        /* \"#utility.yul\":1202:1222   */\n      calldataload\n        /* \"#utility.yul\":1193:1222   */\n      swap1\n      pop\n        /* \"#utility.yul\":1231:1264   */\n      tag_170\n        /* \"#utility.yul\":1258:1263   */\n      dup2\n        /* \"#utility.yul\":1231:1264   */\n      tag_137\n      jump\t// in\n    tag_170:\n        /* \"#utility.yul\":1131:1270   */\n      swap3\n      swap2\n      pop\n      pop\n      jump\t// out\n        /* \"#utility.yul\":1276:1605   */\n    tag_27:\n        /* \"#utility.yul\":1335:1341   */\n      0x00\n        /* \"#utility.yul\":1384:1386   */\n      0x20\n        /* \"#utility.yul\":1372:1381   */\n      dup3\n        /* \"#utility.yul\":1363:1370   */\n      dup5\n        /* \"#utility.yul\":1359:1382   */\n      sub\n        /* \"#utility.yul\":1355:1387   */\n      slt\n        /* \"#utility.yul\":1352:1471   */\n      iszero\n      tag_172\n      jumpi\n        /* \"#utility.yul\":1390:1469   */\n      tag_173\n      tag_133\n      jump\t// in\n    tag_173:\n        /* \"#utility.yul\":1352:1471   */\n    tag_172:\n        /* \"#utility.yul\":1510:1511   */\n      0x00\n        /* \"#utility.yul\":1535:1588   */\n      tag_174\n        /* \"#utility.yul\":1580:1587   */\n      dup5\n        /* \"#utility.yul\":1571:1577   */\n      dup3\n        /* \"#utility.yul\":1560:1569   */\n      dup6\n        /* \"#utility.yul\":1556:1578   */\n      add\n        /* \"#utility.yul\":1535:1588   */\n      tag_138\n      jump\t// in\n    tag_174:\n        /* \"#utility.yul\":1525:1588   */\n      swap2\n      pop\n        /* \"#utility.yul\":1481:1598   */\n      pop\n        /* \"#utility.yul\":1276:1605   */\n      swap3\n      swap2\n      pop\n      pop\n      jump\t// out\n        /* \"#utility.yul\":1611:1791   */\n    tag_74:\n        /* \"#utility.yul\":1659:1736   */\n      0x4e487b7100000000000000000000000000000000000000000000000000000000\n        /* \"#utility.yul\":1656:1657   */\n      0x00\n        /* \"#utility.yul\":1649:1737   */\n      mstore\n        /* \"#utility.yul\":1756:1760   */\n      0x21\n        /* \"#utility.yul\":1753:1754   */\n      0x04\n        /* \"#utility.yul\":1746:1761   */\n      mstore\n        /* \"#utility.yul\":1780:1784   */\n      0x24\n        /* \"#utility.yul\":1777:1778   */\n      0x00\n        /* \"#utility.yul\":1770:1785   */\n      revert\n        /* \"#utility.yul\":1797:1910   */\n    tag_139:\n        /* \"#utility.yul\":1878:1879   */\n      0x04\n        /* \"#utility.yul\":1871:1876   */\n      dup2\n        /* \"#utility.yul\":1868:1880   */\n      lt\n        /* \"#utility.yul\":1858:1904   */\n      tag_177\n      jumpi\n        /* \"#utility.yul\":1884:1902   */\n      tag_178\n      tag_74\n      jump\t// in\n    tag_178:\n        /* \"#utility.yul\":1858:1904   */\n    tag_177:\n        /* \"#utility.yul\":1797:1910   */\n      pop\n      jump\t// out\n        /* \"#utility.yul\":1916:2043   */\n    tag_140:\n        /* \"#utility.yul\":1961:1968   */\n      0x00\n        /* \"#utility.yul\":1990:1995   */\n      dup2\n        /* \"#utility.yul\":1979:1995   */\n      swap1\n      pop\n        /* \"#utility.yul\":1996:2037   */\n      tag_180\n        /* \"#utility.yul\":2031:2036   */\n      dup3\n        /* \"#utility.yul\":1996:2037   */\n      tag_139\n      jump\t// in\n    tag_180:\n        /* \"#utility.yul\":1916:2043   */\n      swap2\n      swap1\n      pop\n      jump\t// out\n        /* \"#utility.yul\":2049:2176   */\n    tag_141:\n        /* \"#utility.yul\":2105:2114   */\n      0x00\n        /* \"#utility.yul\":2138:2170   */\n      tag_182\n        /* \"#utility.yul\":2164:2169   */\n      dup3\n        /* \"#utility.yul\":2138:2170   */\n      tag_140\n      jump\t// in\n    tag_182:\n        /* \"#utility.yul\":2125:2170   */\n      swap1\n      pop\n        /* \"#utility.yul\":2049:2176   */\n      swap2\n      swap1\n      pop\n      jump\t// out\n        /* \"#utility.yul\":2182:2325   */\n    tag_142:\n        /* \"#utility.yul\":2275:2318   */\n      tag_184\n        /* \"#utility.yul\":2312:2317   */\n      dup2\n        /* \"#utility.yul\":2275:2318   */\n      tag_141\n      jump\t// in\n    tag_184:\n        /* \"#utility.yul\":2270:2273   */\n      dup3\n        /* \"#utility.yul\":2263:2319   */\n      mstore\n        /* \"#utility.yul\":2182:2325   */\n      pop\n      pop\n      jump\t// out\n        /* \"#utility.yul\":2331:2565   */\n    tag_34:\n        /* \"#utility.yul\":2430:2434   */\n      0x00\n        /* \"#utility.yul\":2468:2470   */\n      0x20\n        /* \"#utility.yul\":2457:2466   */\n      dup3\n        /* \"#utility.yul\":2453:2471   */\n      add\n        /* \"#utility.yul\":2445:2471   */\n      swap1\n      pop\n        /* \"#utility.yul\":2481:2558   */\n      tag_186\n        /* \"#utility.yul\":2555:2556   */\n      0x00\n        /* \"#utility.yul\":2544:2553   */\n      dup4\n        /* \"#utility.yul\":2540:2557   */\n      add\n        /* \"#utility.yul\":2531:2537   */\n      dup5\n        /* \"#utility.yul\":2481:2558   */\n      tag_142\n      jump\t// in\n    tag_186:\n        /* \"#utility.yul\":2331:2565   */\n      swap3\n      swap2\n      pop\n      pop\n      jump\t// out\n        /* \"#utility.yul\":2571:2661   */\n    tag_143:\n        /* \"#utility.yul\":2605:2612   */\n      0x00\n        /* \"#utility.yul\":2648:2653   */\n      dup2\n        /* \"#utility.yul\":2641:2654   */\n      iszero\n        /* \"#utility.yul\":2634:2655   */\n      iszero\n        /* \"#utility.yul\":2623:2655   */\n      swap1\n      pop\n        /* \"#utility.yul\":2571:2661   */\n      swap2\n      swap1\n      pop\n      jump\t// out\n        /* \"#utility.yul\":2667:2776   */\n    tag_144:\n        /* \"#utility.yul\":2748:2769   */\n      tag_189\n        /* \"#utility.yul\":2763:2768   */\n      dup2\n        /* \"#utility.yul\":2748:2769   */\n      tag_143\n      jump\t// in\n    tag_189:\n        /* \"#utility.yul\":2743:2746   */\n      dup3\n        /* \"#utility.yul\":2736:2770   */\n      mstore\n        /* \"#utility.yul\":2667:2776   */\n      pop\n      pop\n      jump\t// out\n        /* \"#utility.yul\":2782:2992   */\n    tag_39:\n        /* \"#utility.yul\":2869:2873   */\n      0x00\n        /* \"#utility.yul\":2907:2909   */\n      0x20\n        /* \"#utility.yul\":2896:2905   */\n      dup3\n        /* \"#utility.yul\":2892:2910   */\n      add\n        /* \"#utility.yul\":2884:2910   */\n      swap1\n      pop\n        /* \"#utility.yul\":2920:2985   */\n      tag_191\n        /* \"#utility.yul\":2982:2983   */\n      0x00\n        /* \"#utility.yul\":2971:2980   */\n      dup4\n        /* \"#utility.yul\":2967:2984   */\n      add\n        /* \"#utility.yul\":2958:2964   */\n      dup5\n        /* \"#utility.yul\":2920:2985   */\n      tag_144\n      jump\t// in\n    tag_191:\n        /* \"#utility.yul\":2782:2992   */\n      swap3\n      swap2\n      pop\n      pop\n      jump\t// out\n        /* \"#utility.yul\":2998:3102   */\n    tag_145:\n        /* \"#utility.yul\":3043:3050   */\n      0x00\n        /* \"#utility.yul\":3072:3096   */\n      tag_193\n        /* \"#utility.yul\":3090:3095   */\n      dup3\n        /* \"#utility.yul\":3072:3096   */\n      tag_135\n      jump\t// in\n    tag_193:\n        /* \"#utility.yul\":3061:3096   */\n      swap1\n      pop\n        /* \"#utility.yul\":2998:3102   */\n      swap2\n      swap1\n      pop\n      jump\t// out\n        /* \"#utility.yul\":3108:3250   */\n    tag_146:\n        /* \"#utility.yul\":3211:3243   */\n      tag_195\n        /* \"#utility.yul\":3237:3242   */\n      dup2\n        /* \"#utility.yul\":3211:3243   */\n      tag_145\n      jump\t// in\n    tag_195:\n        /* \"#utility.yul\":3206:3209   */\n      dup3\n        /* \"#utility.yul\":3199:3244   */\n      mstore\n        /* \"#utility.yul\":3108:3250   */\n      pop\n      pop\n      jump\t// out\n        /* \"#utility.yul\":3256:3510   */\n    tag_44:\n        /* \"#utility.yul\":3365:3369   */\n      0x00\n        /* \"#utility.yul\":3403:3405   */\n      0x20\n        /* \"#utility.yul\":3392:3401   */\n      dup3\n        /* \"#utility.yul\":3388:3406   */\n      add\n        /* \"#utility.yul\":3380:3406   */\n      swap1\n      pop\n        /* \"#utility.yul\":3416:3503   */\n      tag_197\n        /* \"#utility.yul\":3500:3501   */\n      0x00\n        /* \"#utility.yul\":3489:3498   */\n      dup4\n        /* \"#utility.yul\":3485:3502   */\n      add\n        /* \"#utility.yul\":3476:3482   */\n      dup5\n        /* \"#utility.yul\":3416:3503   */\n      tag_146\n      jump\t// in\n    tag_197:\n        /* \"#utility.yul\":3256:3510   */\n      swap3\n      swap2\n      pop\n      pop\n      jump\t// out\n        /* \"#utility.yul\":3516:3615   */\n    tag_147:\n        /* \"#utility.yul\":3568:3574   */\n      0x00\n        /* \"#utility.yul\":3602:3607   */\n      dup2\n        /* \"#utility.yul\":3596:3608   */\n      mload\n        /* \"#utility.yul\":3586:3608   */\n      swap1\n      pop\n        /* \"#utility.yul\":3516:3615   */\n      swap2\n      swap1\n      pop\n      jump\t// out\n        /* \"#utility.yul\":3621:3790   */\n    tag_148:\n        /* \"#utility.yul\":3705:3716   */\n      0x00\n        /* \"#utility.yul\":3739:3745   */\n      dup3\n        /* \"#utility.yul\":3734:3737   */\n      dup3\n        /* \"#utility.yul\":3727:3746   */\n      mstore\n        /* \"#utility.yul\":3779:3783   */\n      0x20\n        /* \"#utility.yul\":3774:3777   */\n      dup3\n        /* \"#utility.yul\":3770:3784   */\n      add\n        /* \"#utility.yul\":3755:3784   */\n      swap1\n      pop\n        /* \"#utility.yul\":3621:3790   */\n      swap3\n      swap2\n      pop\n      pop\n      jump\t// out\n        /* \"#utility.yul\":3796:3935   */\n    tag_149:\n        /* \"#utility.yul\":3885:3891   */\n      dup3\n        /* \"#utility.yul\":3880:3883   */\n      dup2\n        /* \"#utility.yul\":3875:3878   */\n      dup4\n        /* \"#utility.yul\":3869:3892   */\n      mcopy\n        /* \"#utility.yul\":3926:3927   */\n      0x00\n        /* \"#utility.yul\":3917:3923   */\n      dup4\n        /* \"#utility.yul\":3912:3915   */\n      dup4\n        /* \"#utility.yul\":3908:3924   */\n      add\n        /* \"#utility.yul\":3901:3928   */\n      mstore\n        /* \"#utility.yul\":3796:3935   */\n      pop\n      pop\n      pop\n      jump\t// out\n        /* \"#utility.yul\":3941:4043   */\n    tag_150:\n        /* \"#utility.yul\":3982:3988   */\n      0x00\n        /* \"#utility.yul\":4033:4035   */\n      0x1f\n        /* \"#utility.yul\":4029:4036   */\n      not\n        /* \"#utility.yul\":4024:4026   */\n      0x1f\n        /* \"#utility.yul\":4017:4022   */\n      dup4\n        /* \"#utility.yul\":4013:4027   */\n      add\n        /* \"#utility.yul\":4009:4037   */\n      and\n        /* \"#utility.yul\":3999:4037   */\n      swap1\n      pop\n        /* \"#utility.yul\":3941:4043   */\n      swap2\n      swap1\n      pop\n      jump\t// out\n        /* \"#utility.yul\":4049:4426   */\n    tag_151:\n        /* \"#utility.yul\":4137:4140   */\n      0x00\n        /* \"#utility.yul\":4165:4204   */\n      tag_203\n        /* \"#utility.yul\":4198:4203   */\n      dup3\n        /* \"#utility.yul\":4165:4204   */\n      tag_147\n      jump\t// in\n    tag_203:\n        /* \"#utility.yul\":4220:4291   */\n      tag_204\n        /* \"#utility.yul\":4284:4290   */\n      dup2\n        /* \"#utility.yul\":4279:4282   */\n      dup6\n        /* \"#utility.yul\":4220:4291   */\n      tag_148\n      jump\t// in\n    tag_204:\n        /* \"#utility.yul\":4213:4291   */\n      swap4\n      pop\n        /* \"#utility.yul\":4300:4365   */\n      tag_205\n        /* \"#utility.yul\":4358:4364   */\n      dup2\n        /* \"#utility.yul\":4353:4356   */\n      dup6\n        /* \"#utility.yul\":4346:4350   */\n      0x20\n        /* \"#utility.yul\":4339:4344   */\n      dup7\n        /* \"#utility.yul\":4335:4351   */\n      add\n        /* \"#utility.yul\":4300:4365   */\n      tag_149\n      jump\t// in\n    tag_205:\n        /* \"#utility.yul\":4390:4419   */\n      tag_206\n        /* \"#utility.yul\":4412:4418   */\n      dup2\n        /* \"#utility.yul\":4390:4419   */\n      tag_150\n      jump\t// in\n    tag_206:\n        /* \"#utility.yul\":4385:4388   */\n      dup5\n        /* \"#utility.yul\":4381:4420   */\n      add\n        /* \"#utility.yul\":4374:4420   */\n      swap2\n      pop\n        /* \"#utility.yul\":4141:4426   */\n      pop\n        /* \"#utility.yul\":4049:4426   */\n      swap3\n      swap2\n      pop\n      pop\n      jump\t// out\n        /* \"#utility.yul\":4432:4745   */\n    tag_56:\n        /* \"#utility.yul\":4545:4549   */\n      0x00\n        /* \"#utility.yul\":4583:4585   */\n      0x20\n        /* \"#utility.yul\":4572:4581   */\n      dup3\n        /* \"#utility.yul\":4568:4586   */\n      add\n        /* \"#utility.yul\":4560:4586   */\n      swap1\n      pop\n        /* \"#utility.yul\":4632:4641   */\n      dup2\n        /* \"#utility.yul\":4626:4630   */\n      dup2\n        /* \"#utility.yul\":4622:4642   */\n      sub\n        /* \"#utility.yul\":4618:4619   */\n      0x00\n        /* \"#utility.yul\":4607:4616   */\n      dup4\n        /* \"#utility.yul\":4603:4620   */\n      add\n        /* \"#utility.yul\":4596:4643   */\n      mstore\n        /* \"#utility.yul\":4660:4738   */\n      tag_208\n        /* \"#utility.yul\":4733:4737   */\n      dup2\n        /* \"#utility.yul\":4724:4730   */\n      dup5\n        /* \"#utility.yul\":4660:4738   */\n      tag_151\n      jump\t// in\n    tag_208:\n        /* \"#utility.yul\":4652:4738   */\n      swap1\n      pop\n        /* \"#utility.yul\":4432:4745   */\n      swap3\n      swap2\n      pop\n      pop\n      jump\t// out\n        /* \"#utility.yul\":4751:4931   */\n    tag_152:\n        /* \"#utility.yul\":4799:4876   */\n      0x4e487b7100000000000000000000000000000000000000000000000000000000\n        /* \"#utility.yul\":4796:4797   */\n      0x00\n        /* \"#utility.yul\":4789:4877   */\n      mstore\n        /* \"#utility.yul\":4896:4900   */\n      0x22\n        /* \"#utility.yul\":4893:4894   */\n      0x04\n        /* \"#utility.yul\":4886:4901   */\n      mstore\n        /* \"#utility.yul\":4920:4924   */\n      0x24\n        /* \"#utility.yul\":4917:4918   */\n      0x00\n        /* \"#utility.yul\":4910:4925   */\n      revert\n        /* \"#utility.yul\":4937:5257   */\n    tag_76:\n        /* \"#utility.yul\":4981:4987   */\n      0x00\n        /* \"#utility.yul\":5018:5019   */\n      0x02\n        /* \"#utility.yul\":5012:5016   */\n      dup3\n        /* \"#utility.yul\":5008:5020   */\n      div\n        /* \"#utility.yul\":4998:5020   */\n      swap1\n      pop\n        /* \"#utility.yul\":5065:5066   */\n      0x01\n        /* \"#utility.yul\":5059:5063   */\n      dup3\n        /* \"#utility.yul\":5055:5067   */\n      and\n        /* \"#utility.yul\":5086:5104   */\n      dup1\n        /* \"#utility.yul\":5076:5157   */\n      tag_211\n      jumpi\n        /* \"#utility.yul\":5142:5146   */\n      0x7f\n        /* \"#utility.yul\":5134:5140   */\n      dup3\n        /* \"#utility.yul\":5130:5147   */\n      and\n        /* \"#utility.yul\":5120:5147   */\n      swap2\n      pop\n        /* \"#utility.yul\":5076:5157   */\n    tag_211:\n        /* \"#utility.yul\":5204:5206   */\n      0x20\n        /* \"#utility.yul\":5196:5202   */\n      dup3\n        /* \"#utility.yul\":5193:5207   */\n      lt\n        /* \"#utility.yul\":5173:5191   */\n      dup2\n        /* \"#utility.yul\":5170:5208   */\n      sub\n        /* \"#utility.yul\":5167:5251   */\n      tag_212\n      jumpi\n        /* \"#utility.yul\":5223:5241   */\n      tag_213\n      tag_152\n      jump\t// in\n    tag_213:\n        /* \"#utility.yul\":5167:5251   */\n    tag_212:\n        /* \"#utility.yul\":4988:5257   */\n      pop\n        /* \"#utility.yul\":4937:5257   */\n      swap2\n      swap1\n      pop\n      jump\t// out\n        /* \"#utility.yul\":5263:5443   */\n    tag_153:\n        /* \"#utility.yul\":5311:5388   */\n      0x4e487b7100000000000000000000000000000000000000000000000000000000\n        /* \"#utility.yul\":5308:5309   */\n      0x00\n        /* \"#utility.yul\":5301:5389   */\n      mstore\n        /* \"#utility.yul\":5408:5412   */\n      0x11\n        /* \"#utility.yul\":5405:5406   */\n      0x04\n        /* \"#utility.yul\":5398:5413   */\n      mstore\n        /* \"#utility.yul\":5432:5436   */\n      0x24\n        /* \"#utility.yul\":5429:5430   */\n      0x00\n        /* \"#utility.yul\":5422:5437   */\n      revert\n        /* \"#utility.yul\":5449:5640   */\n    tag_94:\n        /* \"#utility.yul\":5489:5492   */\n      0x00\n        /* \"#utility.yul\":5508:5528   */\n      tag_216\n        /* \"#utility.yul\":5526:5527   */\n      dup3\n        /* \"#utility.yul\":5508:5528   */\n      tag_130\n      jump\t// in\n    tag_216:\n        /* \"#utility.yul\":5503:5528   */\n      swap2\n      pop\n        /* \"#utility.yul\":5542:5562   */\n      tag_217\n        /* \"#utility.yul\":5560:5561   */\n      dup4\n        /* \"#utility.yul\":5542:5562   */\n      tag_130\n      jump\t// in\n    tag_217:\n        /* \"#utility.yul\":5537:5562   */\n      swap3\n      pop\n        /* \"#utility.yul\":5585:5586   */\n      dup3\n        /* \"#utility.yul\":5582:5583   */\n      dup3\n        /* \"#utility.yul\":5578:5587   */\n      add\n        /* \"#utility.yul\":5571:5587   */\n      swap1\n      pop\n        /* \"#utility.yul\":5606:5609   */\n      dup1\n        /* \"#utility.yul\":5603:5604   */\n      dup3\n        /* \"#utility.yul\":5600:5610   */\n      gt\n        /* \"#utility.yul\":5597:5633   */\n      iszero\n      tag_218\n      jumpi\n        /* \"#utility.yul\":5613:5631   */\n      tag_219\n      tag_153\n      jump\t// in\n    tag_219:\n        /* \"#utility.yul\":5597:5633   */\n    tag_218:\n        /* \"#utility.yul\":5449:5640   */\n      swap3\n      swap2\n      pop\n      pop\n      jump\t// out\n        /* \"#utility.yul\":5646:5840   */\n    tag_123:\n        /* \"#utility.yul\":5686:5690   */\n      0x00\n        /* \"#utility.yul\":5706:5726   */\n      tag_221\n        /* \"#utility.yul\":5724:5725   */\n      dup3\n        /* \"#utility.yul\":5706:5726   */\n      tag_130\n      jump\t// in\n    tag_221:\n        /* \"#utility.yul\":5701:5726   */\n      swap2\n      pop\n        /* \"#utility.yul\":5740:5760   */\n      tag_222\n        /* \"#utility.yul\":5758:5759   */\n      dup4\n        /* \"#utility.yul\":5740:5760   */\n      tag_130\n      jump\t// in\n    tag_222:\n        /* \"#utility.yul\":5735:5760   */\n      swap3\n      pop\n        /* \"#utility.yul\":5784:5785   */\n      dup3\n        /* \"#utility.yul\":5781:5782   */\n      dup3\n        /* \"#utility.yul\":5777:5786   */\n      sub\n        /* \"#utility.yul\":5769:5786   */\n      swap1\n      pop\n        /* \"#utility.yul\":5808:5809   */\n      dup2\n        /* \"#utility.yul\":5802:5806   */\n      dup2\n        /* \"#utility.yul\":5799:5810   */\n      gt\n        /* \"#utility.yul\":5796:5833   */\n      iszero\n      tag_223\n      jumpi\n        /* \"#utility.yul\":5813:5831   */\n      tag_224\n      tag_153\n      jump\t// in\n    tag_224:\n        /* \"#utility.yul\":5796:5833   */\n    tag_223:\n        /* \"#utility.yul\":5646:5840   */\n      swap3\n      swap2\n      pop\n      pop\n      jump\t// out\n\n    auxdata: 0xa26469706673582212205408e38667453dbfb8b13852872ad48cd95fb6c7aa144fe29882a366208ecb3c64736f6c634300081a0033\n}\n",
				"bytecode": {
					"linkReferences": {},
					"object": "60806040525f60095f6101000a81548160ff021916908315150217905550348015610028575f80fd5b50335f806101000a81548173ffffffffffffffffffffffffffffffffffffffff021916908373ffffffffffffffffffffffffffffffffffffffff160217905550600160045f6101000a81548160ff0219169083600381111561008d5761008c6100e0565b5b02179055504360018190555060036001546100a89190610143565b60028190555060405180602001604052805f815250600390816100cb91906103a7565b50670de0b6b3a7640000600881905550610476565b7f4e487b71000000000000000000000000000000000000000000000000000000005f52602160045260245ffd5b5f819050919050565b7f4e487b71000000000000000000000000000000000000000000000000000000005f52601160045260245ffd5b5f61014d8261010d565b91506101588361010d565b92508282019050808211156101705761016f610116565b5b92915050565b5f81519050919050565b7f4e487b71000000000000000000000000000000000000000000000000000000005f52604160045260245ffd5b7f4e487b71000000000000000000000000000000000000000000000000000000005f52602260045260245ffd5b5f60028204905060018216806101f157607f821691505b602082108103610204576102036101ad565b5b50919050565b5f819050815f5260205f209050919050565b5f6020601f8301049050919050565b5f82821b905092915050565b5f600883026102667fffffffffffffffffffffffffffffffffffffffffffffffffffffffffffffffff8261022b565b610270868361022b565b95508019841693508086168417925050509392505050565b5f819050919050565b5f6102ab6102a66102a18461010d565b610288565b61010d565b9050919050565b5f819050919050565b6102c483610291565b6102d86102d0826102b2565b848454610237565b825550505050565b5f90565b6102ec6102e0565b6102f78184846102bb565b505050565b5b8181101561031a5761030f5f826102e4565b6001810190506102fd565b5050565b601f82111561035f576103308161020a565b6103398461021c565b81016020851015610348578190505b61035c6103548561021c565b8301826102fc565b50505b505050565b5f82821c905092915050565b5f61037f5f1984600802610364565b1980831691505092915050565b5f6103978383610370565b9150826002028217905092915050565b6103b082610176565b67ffffffffffffffff8111156103c9576103c8610180565b5b6103d382546101da565b6103de82828561031e565b5f60209050601f83116001811461040f575f84156103fd578287015190505b610407858261038c565b86555061046e565b601f19841661041d8661020a565b5f5b828110156104445784890151825560018201915060208501945060208101905061041f565b86831015610461578489015161045d601f891682610370565b8355505b6001600288020188555050505b505050505050565b610e81806104835f395ff3fe6080604052600436106100a6575f3560e01c80638fa8b790116100635780638fa8b790146101b857806391f90157146101ce578063c623674f146101f8578063ecfc7ecc14610222578063f5b56c5614610240578063f77282ab1461026a576100a6565b8063083c6323146100aa57806348cd4cb1146100d457806362ea82db146100fe5780637fb450991461013a5780638b7b097f146101645780638da5cb5b1461018e575b5f80fd5b3480156100b5575f80fd5b506100be610280565b6040516100cb9190610b31565b60405180910390f35b3480156100df575f80fd5b506100e8610286565b6040516100f59190610b31565b60405180910390f35b348015610109575f80fd5b50610124600480360381019061011f9190610ba8565b61028c565b6040516101319190610b31565b60405180910390f35b348015610145575f80fd5b5061014e6102a1565b60405161015b9190610c46565b60405180910390f35b34801561016f575f80fd5b506101786102b3565b6040516101859190610c79565b60405180910390f35b348015610199575f80fd5b506101a26102c5565b6040516101af9190610cb2565b60405180910390f35b3480156101c3575f80fd5b506101cc6102e8565b005b3480156101d9575f80fd5b506101e2610378565b6040516101ef9190610cb2565b60405180910390f35b348015610203575f80fd5b5061020c61039d565b6040516102199190610d3b565b60405180910390f35b61022a610429565b6040516102379190610c79565b60405180910390f35b34801561024b575f80fd5b5061025461071f565b6040516102619190610b31565b60405180910390f35b348015610275575f80fd5b5061027e610725565b005b60025481565b60015481565b6007602052805f5260405f205f915090505481565b60045f9054906101000a900460ff1681565b60095f9054906101000a900460ff1681565b5f8054906101000a900473ffffffffffffffffffffffffffffffffffffffff1681565b6002544311156102f6575f80fd5b5f8054906101000a900473ffffffffffffffffffffffffffffffffffffffff1673ffffffffffffffffffffffffffffffffffffffff163373ffffffffffffffffffffffffffffffffffffffff161461034c575f80fd5b600360045f6101000a81548160ff0219169083600381111561037157610370610bd3565b5b0217905550565b60065f9054906101000a900473ffffffffffffffffffffffffffffffffffffffff1681565b600380546103aa90610d88565b80601f01602080910402602001604051908101604052809291908181526020018280546103d690610d88565b80156104215780601f106103f857610100808354040283529160200191610421565b820191905f5260205f20905b81548152906001019060200180831161040457829003601f168201915b505050505081565b5f805f9054906101000a900473ffffffffffffffffffffffffffffffffffffffff1673ffffffffffffffffffffffffffffffffffffffff163373ffffffffffffffffffffffffffffffffffffffff1603610481575f80fd5b60015443101561048f575f80fd5b60025443111561049d575f80fd5b600160038111156104b1576104b0610bd3565b5b60045f9054906101000a900460ff1660038111156104d2576104d1610bd3565b5b146104db575f80fd5b5f3460075f3373ffffffffffffffffffffffffffffffffffffffff1673ffffffffffffffffffffffffffffffffffffffff1681526020019081526020015f20546105259190610de5565b90506005548111610534575f80fd5b8060075f3373ffffffffffffffffffffffffffffffffffffffff1673ffffffffffffffffffffffffffffffffffffffff1681526020019081526020015f208190555060075f60065f9054906101000a900473ffffffffffffffffffffffffffffffffffffffff1673ffffffffffffffffffffffffffffffffffffffff1673ffffffffffffffffffffffffffffffffffffffff1681526020019081526020015f2054811161065b57610650600854826105ec9190610de5565b60075f60065f9054906101000a900473ffffffffffffffffffffffffffffffffffffffff1673ffffffffffffffffffffffffffffffffffffffff1673ffffffffffffffffffffffffffffffffffffffff1681526020019081526020015f2054610aff565b600581905550610717565b6106d08160085460075f60065f9054906101000a900473ffffffffffffffffffffffffffffffffffffffff1673ffffffffffffffffffffffffffffffffffffffff1673ffffffffffffffffffffffffffffffffffffffff1681526020019081526020015f20546106cb9190610de5565b610aff565b6005819055503360065f6101000a81548173ffffffffffffffffffffffffffffffffffffffff021916908373ffffffffffffffffffffffffffffffffffffffff1602179055505b600191505090565b60055481565b60038081111561073857610737610bd3565b5b60045f9054906101000a900460ff16600381111561075957610758610bd3565b5b1480610766575060025443115b61076e575f80fd5b5f8054906101000a900473ffffffffffffffffffffffffffffffffffffffff1673ffffffffffffffffffffffffffffffffffffffff163373ffffffffffffffffffffffffffffffffffffffff16148061080357505f60075f3373ffffffffffffffffffffffffffffffffffffffff1673ffffffffffffffffffffffffffffffffffffffff1681526020019081526020015f2054115b61080b575f80fd5b5f806003808111156108205761081f610bd3565b5b60045f9054906101000a900460ff16600381111561084157610840610bd3565b5b0361088e5733915060075f3373ffffffffffffffffffffffffffffffffffffffff1673ffffffffffffffffffffffffffffffffffffffff1681526020019081526020015f20549050610a75565b5f8054906101000a900473ffffffffffffffffffffffffffffffffffffffff1673ffffffffffffffffffffffffffffffffffffffff163373ffffffffffffffffffffffffffffffffffffffff161480156108f957505f151560095f9054906101000a900460ff161515145b15610944575f8054906101000a900473ffffffffffffffffffffffffffffffffffffffff1691506005549050600160095f6101000a81548160ff021916908315150217905550610a74565b60065f9054906101000a900473ffffffffffffffffffffffffffffffffffffffff1673ffffffffffffffffffffffffffffffffffffffff163373ffffffffffffffffffffffffffffffffffffffff1603610a2f5760065f9054906101000a900473ffffffffffffffffffffffffffffffffffffffff16915060055460075f60065f9054906101000a900473ffffffffffffffffffffffffffffffffffffffff1673ffffffffffffffffffffffffffffffffffffffff1673ffffffffffffffffffffffffffffffffffffffff1681526020019081526020015f2054610a289190610e18565b9050610a73565b33915060075f3373ffffffffffffffffffffffffffffffffffffffff1673ffffffffffffffffffffffffffffffffffffffff1681526020019081526020015f205490505b5b5b5f60075f8473ffffffffffffffffffffffffffffffffffffffff1673ffffffffffffffffffffffffffffffffffffffff1681526020019081526020015f20819055508173ffffffffffffffffffffffffffffffffffffffff166108fc8290811502906040515f60405180830381858888f19350505050158015610afa573d5f803e3d5ffd5b505050565b5f818311610b0f57829050610b13565b8190505b92915050565b5f819050919050565b610b2b81610b19565b82525050565b5f602082019050610b445f830184610b22565b92915050565b5f80fd5b5f73ffffffffffffffffffffffffffffffffffffffff82169050919050565b5f610b7782610b4e565b9050919050565b610b8781610b6d565b8114610b91575f80fd5b50565b5f81359050610ba281610b7e565b92915050565b5f60208284031215610bbd57610bbc610b4a565b5b5f610bca84828501610b94565b91505092915050565b7f4e487b71000000000000000000000000000000000000000000000000000000005f52602160045260245ffd5b60048110610c1157610c10610bd3565b5b50565b5f819050610c2182610c00565b919050565b5f610c3082610c14565b9050919050565b610c4081610c26565b82525050565b5f602082019050610c595f830184610c37565b92915050565b5f8115159050919050565b610c7381610c5f565b82525050565b5f602082019050610c8c5f830184610c6a565b92915050565b5f610c9c82610b4e565b9050919050565b610cac81610c92565b82525050565b5f602082019050610cc55f830184610ca3565b92915050565b5f81519050919050565b5f82825260208201905092915050565b8281835e5f83830152505050565b5f601f19601f8301169050919050565b5f610d0d82610ccb565b610d178185610cd5565b9350610d27818560208601610ce5565b610d3081610cf3565b840191505092915050565b5f6020820190508181035f830152610d538184610d03565b905092915050565b7f4e487b71000000000000000000000000000000000000000000000000000000005f52602260045260245ffd5b5f6002820490506001821680610d9f57607f821691505b602082108103610db257610db1610d5b565b5b50919050565b7f4e487b71000000000000000000000000000000000000000000000000000000005f52601160045260245ffd5b5f610def82610b19565b9150610dfa83610b19565b9250828201905080821115610e1257610e11610db8565b5b92915050565b5f610e2282610b19565b9150610e2d83610b19565b9250828203905081811115610e4557610e44610db8565b5b9291505056fea26469706673582212205408e38667453dbfb8b13852872ad48cd95fb6c7aa144fe29882a366208ecb3c64736f6c634300081a0033",
					"opcodes": "PUSH1 0x80 PUSH1 0x40 MSTORE PUSH0 PUSH1 0x9 PUSH0 PUSH2 0x100 EXP DUP2 SLOAD DUP2 PUSH1 0xFF MUL NOT AND SWAP1 DUP4 ISZERO ISZERO MUL OR SWAP1 SSTORE POP CALLVALUE DUP1 ISZERO PUSH2 0x28 JUMPI PUSH0 DUP1 REVERT JUMPDEST POP CALLER PUSH0 DUP1 PUSH2 0x100 EXP DUP2 SLOAD DUP2 PUSH20 0xFFFFFFFFFFFFFFFFFFFFFFFFFFFFFFFFFFFFFFFF MUL NOT AND SWAP1 DUP4 PUSH20 0xFFFFFFFFFFFFFFFFFFFFFFFFFFFFFFFFFFFFFFFF AND MUL OR SWAP1 SSTORE POP PUSH1 0x1 PUSH1 0x4 PUSH0 PUSH2 0x100 EXP DUP2 SLOAD DUP2 PUSH1 0xFF MUL NOT AND SWAP1 DUP4 PUSH1 0x3 DUP2 GT ISZERO PUSH2 0x8D JUMPI PUSH2 0x8C PUSH2 0xE0 JUMP JUMPDEST JUMPDEST MUL OR SWAP1 SSTORE POP NUMBER PUSH1 0x1 DUP2 SWAP1 SSTORE POP PUSH1 0x3 PUSH1 0x1 SLOAD PUSH2 0xA8 SWAP2 SWAP1 PUSH2 0x143 JUMP JUMPDEST PUSH1 0x2 DUP2 SWAP1 SSTORE POP PUSH1 0x40 MLOAD DUP1 PUSH1 0x20 ADD PUSH1 0x40 MSTORE DUP1 PUSH0 DUP2 MSTORE POP PUSH1 0x3 SWAP1 DUP2 PUSH2 0xCB SWAP2 SWAP1 PUSH2 0x3A7 JUMP JUMPDEST POP PUSH8 0xDE0B6B3A7640000 PUSH1 0x8 DUP2 SWAP1 SSTORE POP PUSH2 0x476 JUMP JUMPDEST PUSH32 0x4E487B7100000000000000000000000000000000000000000000000000000000 PUSH0 MSTORE PUSH1 0x21 PUSH1 0x4 MSTORE PUSH1 0x24 PUSH0 REVERT JUMPDEST PUSH0 DUP2 SWAP1 POP SWAP2 SWAP1 POP JUMP JUMPDEST PUSH32 0x4E487B7100000000000000000000000000000000000000000000000000000000 PUSH0 MSTORE PUSH1 0x11 PUSH1 0x4 MSTORE PUSH1 0x24 PUSH0 REVERT JUMPDEST PUSH0 PUSH2 0x14D DUP3 PUSH2 0x10D JUMP JUMPDEST SWAP2 POP PUSH2 0x158 DUP4 PUSH2 0x10D JUMP JUMPDEST SWAP3 POP DUP3 DUP3 ADD SWAP1 POP DUP1 DUP3 GT ISZERO PUSH2 0x170 JUMPI PUSH2 0x16F PUSH2 0x116 JUMP JUMPDEST JUMPDEST SWAP3 SWAP2 POP POP JUMP JUMPDEST PUSH0 DUP2 MLOAD SWAP1 POP SWAP2 SWAP1 POP JUMP JUMPDEST PUSH32 0x4E487B7100000000000000000000000000000000000000000000000000000000 PUSH0 MSTORE PUSH1 0x41 PUSH1 0x4 MSTORE PUSH1 0x24 PUSH0 REVERT JUMPDEST PUSH32 0x4E487B7100000000000000000000000000000000000000000000000000000000 PUSH0 MSTORE PUSH1 0x22 PUSH1 0x4 MSTORE PUSH1 0x24 PUSH0 REVERT JUMPDEST PUSH0 PUSH1 0x2 DUP3 DIV SWAP1 POP PUSH1 0x1 DUP3 AND DUP1 PUSH2 0x1F1 JUMPI PUSH1 0x7F DUP3 AND SWAP2 POP JUMPDEST PUSH1 0x20 DUP3 LT DUP2 SUB PUSH2 0x204 JUMPI PUSH2 0x203 PUSH2 0x1AD JUMP JUMPDEST JUMPDEST POP SWAP2 SWAP1 POP JUMP JUMPDEST PUSH0 DUP2 SWAP1 POP DUP2 PUSH0 MSTORE PUSH1 0x20 PUSH0 KECCAK256 SWAP1 POP SWAP2 SWAP1 POP JUMP JUMPDEST PUSH0 PUSH1 0x20 PUSH1 0x1F DUP4 ADD DIV SWAP1 POP SWAP2 SWAP1 POP JUMP JUMPDEST PUSH0 DUP3 DUP3 SHL SWAP1 POP SWAP3 SWAP2 POP POP JUMP JUMPDEST PUSH0 PUSH1 0x8 DUP4 MUL PUSH2 0x266 PUSH32 0xFFFFFFFFFFFFFFFFFFFFFFFFFFFFFFFFFFFFFFFFFFFFFFFFFFFFFFFFFFFFFFFF DUP3 PUSH2 0x22B JUMP JUMPDEST PUSH2 0x270 DUP7 DUP4 PUSH2 0x22B JUMP JUMPDEST SWAP6 POP DUP1 NOT DUP5 AND SWAP4 POP DUP1 DUP7 AND DUP5 OR SWAP3 POP POP POP SWAP4 SWAP3 POP POP POP JUMP JUMPDEST PUSH0 DUP2 SWAP1 POP SWAP2 SWAP1 POP JUMP JUMPDEST PUSH0 PUSH2 0x2AB PUSH2 0x2A6 PUSH2 0x2A1 DUP5 PUSH2 0x10D JUMP JUMPDEST PUSH2 0x288 JUMP JUMPDEST PUSH2 0x10D JUMP JUMPDEST SWAP1 POP SWAP2 SWAP1 POP JUMP JUMPDEST PUSH0 DUP2 SWAP1 POP SWAP2 SWAP1 POP JUMP JUMPDEST PUSH2 0x2C4 DUP4 PUSH2 0x291 JUMP JUMPDEST PUSH2 0x2D8 PUSH2 0x2D0 DUP3 PUSH2 0x2B2 JUMP JUMPDEST DUP5 DUP5 SLOAD PUSH2 0x237 JUMP JUMPDEST DUP3 SSTORE POP POP POP POP JUMP JUMPDEST PUSH0 SWAP1 JUMP JUMPDEST PUSH2 0x2EC PUSH2 0x2E0 JUMP JUMPDEST PUSH2 0x2F7 DUP2 DUP5 DUP5 PUSH2 0x2BB JUMP JUMPDEST POP POP POP JUMP JUMPDEST JUMPDEST DUP2 DUP2 LT ISZERO PUSH2 0x31A JUMPI PUSH2 0x30F PUSH0 DUP3 PUSH2 0x2E4 JUMP JUMPDEST PUSH1 0x1 DUP2 ADD SWAP1 POP PUSH2 0x2FD JUMP JUMPDEST POP POP JUMP JUMPDEST PUSH1 0x1F DUP3 GT ISZERO PUSH2 0x35F JUMPI PUSH2 0x330 DUP2 PUSH2 0x20A JUMP JUMPDEST PUSH2 0x339 DUP5 PUSH2 0x21C JUMP JUMPDEST DUP2 ADD PUSH1 0x20 DUP6 LT ISZERO PUSH2 0x348 JUMPI DUP2 SWAP1 POP JUMPDEST PUSH2 0x35C PUSH2 0x354 DUP6 PUSH2 0x21C JUMP JUMPDEST DUP4 ADD DUP3 PUSH2 0x2FC JUMP JUMPDEST POP POP JUMPDEST POP POP POP JUMP JUMPDEST PUSH0 DUP3 DUP3 SHR SWAP1 POP SWAP3 SWAP2 POP POP JUMP JUMPDEST PUSH0 PUSH2 0x37F PUSH0 NOT DUP5 PUSH1 0x8 MUL PUSH2 0x364 JUMP JUMPDEST NOT DUP1 DUP4 AND SWAP2 POP POP SWAP3 SWAP2 POP POP JUMP JUMPDEST PUSH0 PUSH2 0x397 DUP4 DUP4 PUSH2 0x370 JUMP JUMPDEST SWAP2 POP DUP3 PUSH1 0x2 MUL DUP3 OR SWAP1 POP SWAP3 SWAP2 POP POP JUMP JUMPDEST PUSH2 0x3B0 DUP3 PUSH2 0x176 JUMP JUMPDEST PUSH8 0xFFFFFFFFFFFFFFFF DUP2 GT ISZERO PUSH2 0x3C9 JUMPI PUSH2 0x3C8 PUSH2 0x180 JUMP JUMPDEST JUMPDEST PUSH2 0x3D3 DUP3 SLOAD PUSH2 0x1DA JUMP JUMPDEST PUSH2 0x3DE DUP3 DUP3 DUP6 PUSH2 0x31E JUMP JUMPDEST PUSH0 PUSH1 0x20 SWAP1 POP PUSH1 0x1F DUP4 GT PUSH1 0x1 DUP2 EQ PUSH2 0x40F JUMPI PUSH0 DUP5 ISZERO PUSH2 0x3FD JUMPI DUP3 DUP8 ADD MLOAD SWAP1 POP JUMPDEST PUSH2 0x407 DUP6 DUP3 PUSH2 0x38C JUMP JUMPDEST DUP7 SSTORE POP PUSH2 0x46E JUMP JUMPDEST PUSH1 0x1F NOT DUP5 AND PUSH2 0x41D DUP7 PUSH2 0x20A JUMP JUMPDEST PUSH0 JUMPDEST DUP3 DUP2 LT ISZERO PUSH2 0x444 JUMPI DUP5 DUP10 ADD MLOAD DUP3 SSTORE PUSH1 0x1 DUP3 ADD SWAP2 POP PUSH1 0x20 DUP6 ADD SWAP5 POP PUSH1 0x20 DUP2 ADD SWAP1 POP PUSH2 0x41F JUMP JUMPDEST DUP7 DUP4 LT ISZERO PUSH2 0x461 JUMPI DUP5 DUP10 ADD MLOAD PUSH2 0x45D PUSH1 0x1F DUP10 AND DUP3 PUSH2 0x370 JUMP JUMPDEST DUP4 SSTORE POP JUMPDEST PUSH1 0x1 PUSH1 0x2 DUP9 MUL ADD DUP9 SSTORE POP POP POP JUMPDEST POP POP POP POP POP POP JUMP JUMPDEST PUSH2 0xE81 DUP1 PUSH2 0x483 PUSH0 CODECOPY PUSH0 RETURN INVALID PUSH1 0x80 PUSH1 0x40 MSTORE PUSH1 0x4 CALLDATASIZE LT PUSH2 0xA6 JUMPI PUSH0 CALLDATALOAD PUSH1 0xE0 SHR DUP1 PUSH4 0x8FA8B790 GT PUSH2 0x63 JUMPI DUP1 PUSH4 0x8FA8B790 EQ PUSH2 0x1B8 JUMPI DUP1 PUSH4 0x91F90157 EQ PUSH2 0x1CE JUMPI DUP1 PUSH4 0xC623674F EQ PUSH2 0x1F8 JUMPI DUP1 PUSH4 0xECFC7ECC EQ PUSH2 0x222 JUMPI DUP1 PUSH4 0xF5B56C56 EQ PUSH2 0x240 JUMPI DUP1 PUSH4 0xF77282AB EQ PUSH2 0x26A JUMPI PUSH2 0xA6 JUMP JUMPDEST DUP1 PUSH4 0x83C6323 EQ PUSH2 0xAA JUMPI DUP1 PUSH4 0x48CD4CB1 EQ PUSH2 0xD4 JUMPI DUP1 PUSH4 0x62EA82DB EQ PUSH2 0xFE JUMPI DUP1 PUSH4 0x7FB45099 EQ PUSH2 0x13A JUMPI DUP1 PUSH4 0x8B7B097F EQ PUSH2 0x164 JUMPI DUP1 PUSH4 0x8DA5CB5B EQ PUSH2 0x18E JUMPI JUMPDEST PUSH0 DUP1 REVERT JUMPDEST CALLVALUE DUP1 ISZERO PUSH2 0xB5 JUMPI PUSH0 DUP1 REVERT JUMPDEST POP PUSH2 0xBE PUSH2 0x280 JUMP JUMPDEST PUSH1 0x40 MLOAD PUSH2 0xCB SWAP2 SWAP1 PUSH2 0xB31 JUMP JUMPDEST PUSH1 0x40 MLOAD DUP1 SWAP2 SUB SWAP1 RETURN JUMPDEST CALLVALUE DUP1 ISZERO PUSH2 0xDF JUMPI PUSH0 DUP1 REVERT JUMPDEST POP PUSH2 0xE8 PUSH2 0x286 JUMP JUMPDEST PUSH1 0x40 MLOAD PUSH2 0xF5 SWAP2 SWAP1 PUSH2 0xB31 JUMP JUMPDEST PUSH1 0x40 MLOAD DUP1 SWAP2 SUB SWAP1 RETURN JUMPDEST CALLVALUE DUP1 ISZERO PUSH2 0x109 JUMPI PUSH0 DUP1 REVERT JUMPDEST POP PUSH2 0x124 PUSH1 0x4 DUP1 CALLDATASIZE SUB DUP2 ADD SWAP1 PUSH2 0x11F SWAP2 SWAP1 PUSH2 0xBA8 JUMP JUMPDEST PUSH2 0x28C JUMP JUMPDEST PUSH1 0x40 MLOAD PUSH2 0x131 SWAP2 SWAP1 PUSH2 0xB31 JUMP JUMPDEST PUSH1 0x40 MLOAD DUP1 SWAP2 SUB SWAP1 RETURN JUMPDEST CALLVALUE DUP1 ISZERO PUSH2 0x145 JUMPI PUSH0 DUP1 REVERT JUMPDEST POP PUSH2 0x14E PUSH2 0x2A1 JUMP JUMPDEST PUSH1 0x40 MLOAD PUSH2 0x15B SWAP2 SWAP1 PUSH2 0xC46 JUMP JUMPDEST PUSH1 0x40 MLOAD DUP1 SWAP2 SUB SWAP1 RETURN JUMPDEST CALLVALUE DUP1 ISZERO PUSH2 0x16F JUMPI PUSH0 DUP1 REVERT JUMPDEST POP PUSH2 0x178 PUSH2 0x2B3 JUMP JUMPDEST PUSH1 0x40 MLOAD PUSH2 0x185 SWAP2 SWAP1 PUSH2 0xC79 JUMP JUMPDEST PUSH1 0x40 MLOAD DUP1 SWAP2 SUB SWAP1 RETURN JUMPDEST CALLVALUE DUP1 ISZERO PUSH2 0x199 JUMPI PUSH0 DUP1 REVERT JUMPDEST POP PUSH2 0x1A2 PUSH2 0x2C5 JUMP JUMPDEST PUSH1 0x40 MLOAD PUSH2 0x1AF SWAP2 SWAP1 PUSH2 0xCB2 JUMP JUMPDEST PUSH1 0x40 MLOAD DUP1 SWAP2 SUB SWAP1 RETURN JUMPDEST CALLVALUE DUP1 ISZERO PUSH2 0x1C3 JUMPI PUSH0 DUP1 REVERT JUMPDEST POP PUSH2 0x1CC PUSH2 0x2E8 JUMP JUMPDEST STOP JUMPDEST CALLVALUE DUP1 ISZERO PUSH2 0x1D9 JUMPI PUSH0 DUP1 REVERT JUMPDEST POP PUSH2 0x1E2 PUSH2 0x378 JUMP JUMPDEST PUSH1 0x40 MLOAD PUSH2 0x1EF SWAP2 SWAP1 PUSH2 0xCB2 JUMP JUMPDEST PUSH1 0x40 MLOAD DUP1 SWAP2 SUB SWAP1 RETURN JUMPDEST CALLVALUE DUP1 ISZERO PUSH2 0x203 JUMPI PUSH0 DUP1 REVERT JUMPDEST POP PUSH2 0x20C PUSH2 0x39D JUMP JUMPDEST PUSH1 0x40 MLOAD PUSH2 0x219 SWAP2 SWAP1 PUSH2 0xD3B JUMP JUMPDEST PUSH1 0x40 MLOAD DUP1 SWAP2 SUB SWAP1 RETURN JUMPDEST PUSH2 0x22A PUSH2 0x429 JUMP JUMPDEST PUSH1 0x40 MLOAD PUSH2 0x237 SWAP2 SWAP1 PUSH2 0xC79 JUMP JUMPDEST PUSH1 0x40 MLOAD DUP1 SWAP2 SUB SWAP1 RETURN JUMPDEST CALLVALUE DUP1 ISZERO PUSH2 0x24B JUMPI PUSH0 DUP1 REVERT JUMPDEST POP PUSH2 0x254 PUSH2 0x71F JUMP JUMPDEST PUSH1 0x40 MLOAD PUSH2 0x261 SWAP2 SWAP1 PUSH2 0xB31 JUMP JUMPDEST PUSH1 0x40 MLOAD DUP1 SWAP2 SUB SWAP1 RETURN JUMPDEST CALLVALUE DUP1 ISZERO PUSH2 0x275 JUMPI PUSH0 DUP1 REVERT JUMPDEST POP PUSH2 0x27E PUSH2 0x725 JUMP JUMPDEST STOP JUMPDEST PUSH1 0x2 SLOAD DUP2 JUMP JUMPDEST PUSH1 0x1 SLOAD DUP2 JUMP JUMPDEST PUSH1 0x7 PUSH1 0x20 MSTORE DUP1 PUSH0 MSTORE PUSH1 0x40 PUSH0 KECCAK256 PUSH0 SWAP2 POP SWAP1 POP SLOAD DUP2 JUMP JUMPDEST PUSH1 0x4 PUSH0 SWAP1 SLOAD SWAP1 PUSH2 0x100 EXP SWAP1 DIV PUSH1 0xFF AND DUP2 JUMP JUMPDEST PUSH1 0x9 PUSH0 SWAP1 SLOAD SWAP1 PUSH2 0x100 EXP SWAP1 DIV PUSH1 0xFF AND DUP2 JUMP JUMPDEST PUSH0 DUP1 SLOAD SWAP1 PUSH2 0x100 EXP SWAP1 DIV PUSH20 0xFFFFFFFFFFFFFFFFFFFFFFFFFFFFFFFFFFFFFFFF AND DUP2 JUMP JUMPDEST PUSH1 0x2 SLOAD NUMBER GT ISZERO PUSH2 0x2F6 JUMPI PUSH0 DUP1 REVERT JUMPDEST PUSH0 DUP1 SLOAD SWAP1 PUSH2 0x100 EXP SWAP1 DIV PUSH20 0xFFFFFFFFFFFFFFFFFFFFFFFFFFFFFFFFFFFFFFFF AND PUSH20 0xFFFFFFFFFFFFFFFFFFFFFFFFFFFFFFFFFFFFFFFF AND CALLER PUSH20 0xFFFFFFFFFFFFFFFFFFFFFFFFFFFFFFFFFFFFFFFF AND EQ PUSH2 0x34C JUMPI PUSH0 DUP1 REVERT JUMPDEST PUSH1 0x3 PUSH1 0x4 PUSH0 PUSH2 0x100 EXP DUP2 SLOAD DUP2 PUSH1 0xFF MUL NOT AND SWAP1 DUP4 PUSH1 0x3 DUP2 GT ISZERO PUSH2 0x371 JUMPI PUSH2 0x370 PUSH2 0xBD3 JUMP JUMPDEST JUMPDEST MUL OR SWAP1 SSTORE POP JUMP JUMPDEST PUSH1 0x6 PUSH0 SWAP1 SLOAD SWAP1 PUSH2 0x100 EXP SWAP1 DIV PUSH20 0xFFFFFFFFFFFFFFFFFFFFFFFFFFFFFFFFFFFFFFFF AND DUP2 JUMP JUMPDEST PUSH1 0x3 DUP1 SLOAD PUSH2 0x3AA SWAP1 PUSH2 0xD88 JUMP JUMPDEST DUP1 PUSH1 0x1F ADD PUSH1 0x20 DUP1 SWAP2 DIV MUL PUSH1 0x20 ADD PUSH1 0x40 MLOAD SWAP1 DUP2 ADD PUSH1 0x40 MSTORE DUP1 SWAP3 SWAP2 SWAP1 DUP2 DUP2 MSTORE PUSH1 0x20 ADD DUP3 DUP1 SLOAD PUSH2 0x3D6 SWAP1 PUSH2 0xD88 JUMP JUMPDEST DUP1 ISZERO PUSH2 0x421 JUMPI DUP1 PUSH1 0x1F LT PUSH2 0x3F8 JUMPI PUSH2 0x100 DUP1 DUP4 SLOAD DIV MUL DUP4 MSTORE SWAP2 PUSH1 0x20 ADD SWAP2 PUSH2 0x421 JUMP JUMPDEST DUP3 ADD SWAP2 SWAP1 PUSH0 MSTORE PUSH1 0x20 PUSH0 KECCAK256 SWAP1 JUMPDEST DUP2 SLOAD DUP2 MSTORE SWAP1 PUSH1 0x1 ADD SWAP1 PUSH1 0x20 ADD DUP1 DUP4 GT PUSH2 0x404 JUMPI DUP3 SWAP1 SUB PUSH1 0x1F AND DUP3 ADD SWAP2 JUMPDEST POP POP POP POP POP DUP2 JUMP JUMPDEST PUSH0 DUP1 PUSH0 SWAP1 SLOAD SWAP1 PUSH2 0x100 EXP SWAP1 DIV PUSH20 0xFFFFFFFFFFFFFFFFFFFFFFFFFFFFFFFFFFFFFFFF AND PUSH20 0xFFFFFFFFFFFFFFFFFFFFFFFFFFFFFFFFFFFFFFFF AND CALLER PUSH20 0xFFFFFFFFFFFFFFFFFFFFFFFFFFFFFFFFFFFFFFFF AND SUB PUSH2 0x481 JUMPI PUSH0 DUP1 REVERT JUMPDEST PUSH1 0x1 SLOAD NUMBER LT ISZERO PUSH2 0x48F JUMPI PUSH0 DUP1 REVERT JUMPDEST PUSH1 0x2 SLOAD NUMBER GT ISZERO PUSH2 0x49D JUMPI PUSH0 DUP1 REVERT JUMPDEST PUSH1 0x1 PUSH1 0x3 DUP2 GT ISZERO PUSH2 0x4B1 JUMPI PUSH2 0x4B0 PUSH2 0xBD3 JUMP JUMPDEST JUMPDEST PUSH1 0x4 PUSH0 SWAP1 SLOAD SWAP1 PUSH2 0x100 EXP SWAP1 DIV PUSH1 0xFF AND PUSH1 0x3 DUP2 GT ISZERO PUSH2 0x4D2 JUMPI PUSH2 0x4D1 PUSH2 0xBD3 JUMP JUMPDEST JUMPDEST EQ PUSH2 0x4DB JUMPI PUSH0 DUP1 REVERT JUMPDEST PUSH0 CALLVALUE PUSH1 0x7 PUSH0 CALLER PUSH20 0xFFFFFFFFFFFFFFFFFFFFFFFFFFFFFFFFFFFFFFFF AND PUSH20 0xFFFFFFFFFFFFFFFFFFFFFFFFFFFFFFFFFFFFFFFF AND DUP2 MSTORE PUSH1 0x20 ADD SWAP1 DUP2 MSTORE PUSH1 0x20 ADD PUSH0 KECCAK256 SLOAD PUSH2 0x525 SWAP2 SWAP1 PUSH2 0xDE5 JUMP JUMPDEST SWAP1 POP PUSH1 0x5 SLOAD DUP2 GT PUSH2 0x534 JUMPI PUSH0 DUP1 REVERT JUMPDEST DUP1 PUSH1 0x7 PUSH0 CALLER PUSH20 0xFFFFFFFFFFFFFFFFFFFFFFFFFFFFFFFFFFFFFFFF AND PUSH20 0xFFFFFFFFFFFFFFFFFFFFFFFFFFFFFFFFFFFFFFFF AND DUP2 MSTORE PUSH1 0x20 ADD SWAP1 DUP2 MSTORE PUSH1 0x20 ADD PUSH0 KECCAK256 DUP2 SWAP1 SSTORE POP PUSH1 0x7 PUSH0 PUSH1 0x6 PUSH0 SWAP1 SLOAD SWAP1 PUSH2 0x100 EXP SWAP1 DIV PUSH20 0xFFFFFFFFFFFFFFFFFFFFFFFFFFFFFFFFFFFFFFFF AND PUSH20 0xFFFFFFFFFFFFFFFFFFFFFFFFFFFFFFFFFFFFFFFF AND PUSH20 0xFFFFFFFFFFFFFFFFFFFFFFFFFFFFFFFFFFFFFFFF AND DUP2 MSTORE PUSH1 0x20 ADD SWAP1 DUP2 MSTORE PUSH1 0x20 ADD PUSH0 KECCAK256 SLOAD DUP2 GT PUSH2 0x65B JUMPI PUSH2 0x650 PUSH1 0x8 SLOAD DUP3 PUSH2 0x5EC SWAP2 SWAP1 PUSH2 0xDE5 JUMP JUMPDEST PUSH1 0x7 PUSH0 PUSH1 0x6 PUSH0 SWAP1 SLOAD SWAP1 PUSH2 0x100 EXP SWAP1 DIV PUSH20 0xFFFFFFFFFFFFFFFFFFFFFFFFFFFFFFFFFFFFFFFF AND PUSH20 0xFFFFFFFFFFFFFFFFFFFFFFFFFFFFFFFFFFFFFFFF AND PUSH20 0xFFFFFFFFFFFFFFFFFFFFFFFFFFFFFFFFFFFFFFFF AND DUP2 MSTORE PUSH1 0x20 ADD SWAP1 DUP2 MSTORE PUSH1 0x20 ADD PUSH0 KECCAK256 SLOAD PUSH2 0xAFF JUMP JUMPDEST PUSH1 0x5 DUP2 SWAP1 SSTORE POP PUSH2 0x717 JUMP JUMPDEST PUSH2 0x6D0 DUP2 PUSH1 0x8 SLOAD PUSH1 0x7 PUSH0 PUSH1 0x6 PUSH0 SWAP1 SLOAD SWAP1 PUSH2 0x100 EXP SWAP1 DIV PUSH20 0xFFFFFFFFFFFFFFFFFFFFFFFFFFFFFFFFFFFFFFFF AND PUSH20 0xFFFFFFFFFFFFFFFFFFFFFFFFFFFFFFFFFFFFFFFF AND PUSH20 0xFFFFFFFFFFFFFFFFFFFFFFFFFFFFFFFFFFFFFFFF AND DUP2 MSTORE PUSH1 0x20 ADD SWAP1 DUP2 MSTORE PUSH1 0x20 ADD PUSH0 KECCAK256 SLOAD PUSH2 0x6CB SWAP2 SWAP1 PUSH2 0xDE5 JUMP JUMPDEST PUSH2 0xAFF JUMP JUMPDEST PUSH1 0x5 DUP2 SWAP1 SSTORE POP CALLER PUSH1 0x6 PUSH0 PUSH2 0x100 EXP DUP2 SLOAD DUP2 PUSH20 0xFFFFFFFFFFFFFFFFFFFFFFFFFFFFFFFFFFFFFFFF MUL NOT AND SWAP1 DUP4 PUSH20 0xFFFFFFFFFFFFFFFFFFFFFFFFFFFFFFFFFFFFFFFF AND MUL OR SWAP1 SSTORE POP JUMPDEST PUSH1 0x1 SWAP2 POP POP SWAP1 JUMP JUMPDEST PUSH1 0x5 SLOAD DUP2 JUMP JUMPDEST PUSH1 0x3 DUP1 DUP2 GT ISZERO PUSH2 0x738 JUMPI PUSH2 0x737 PUSH2 0xBD3 JUMP JUMPDEST JUMPDEST PUSH1 0x4 PUSH0 SWAP1 SLOAD SWAP1 PUSH2 0x100 EXP SWAP1 DIV PUSH1 0xFF AND PUSH1 0x3 DUP2 GT ISZERO PUSH2 0x759 JUMPI PUSH2 0x758 PUSH2 0xBD3 JUMP JUMPDEST JUMPDEST EQ DUP1 PUSH2 0x766 JUMPI POP PUSH1 0x2 SLOAD NUMBER GT JUMPDEST PUSH2 0x76E JUMPI PUSH0 DUP1 REVERT JUMPDEST PUSH0 DUP1 SLOAD SWAP1 PUSH2 0x100 EXP SWAP1 DIV PUSH20 0xFFFFFFFFFFFFFFFFFFFFFFFFFFFFFFFFFFFFFFFF AND PUSH20 0xFFFFFFFFFFFFFFFFFFFFFFFFFFFFFFFFFFFFFFFF AND CALLER PUSH20 0xFFFFFFFFFFFFFFFFFFFFFFFFFFFFFFFFFFFFFFFF AND EQ DUP1 PUSH2 0x803 JUMPI POP PUSH0 PUSH1 0x7 PUSH0 CALLER PUSH20 0xFFFFFFFFFFFFFFFFFFFFFFFFFFFFFFFFFFFFFFFF AND PUSH20 0xFFFFFFFFFFFFFFFFFFFFFFFFFFFFFFFFFFFFFFFF AND DUP2 MSTORE PUSH1 0x20 ADD SWAP1 DUP2 MSTORE PUSH1 0x20 ADD PUSH0 KECCAK256 SLOAD GT JUMPDEST PUSH2 0x80B JUMPI PUSH0 DUP1 REVERT JUMPDEST PUSH0 DUP1 PUSH1 0x3 DUP1 DUP2 GT ISZERO PUSH2 0x820 JUMPI PUSH2 0x81F PUSH2 0xBD3 JUMP JUMPDEST JUMPDEST PUSH1 0x4 PUSH0 SWAP1 SLOAD SWAP1 PUSH2 0x100 EXP SWAP1 DIV PUSH1 0xFF AND PUSH1 0x3 DUP2 GT ISZERO PUSH2 0x841 JUMPI PUSH2 0x840 PUSH2 0xBD3 JUMP JUMPDEST JUMPDEST SUB PUSH2 0x88E JUMPI CALLER SWAP2 POP PUSH1 0x7 PUSH0 CALLER PUSH20 0xFFFFFFFFFFFFFFFFFFFFFFFFFFFFFFFFFFFFFFFF AND PUSH20 0xFFFFFFFFFFFFFFFFFFFFFFFFFFFFFFFFFFFFFFFF AND DUP2 MSTORE PUSH1 0x20 ADD SWAP1 DUP2 MSTORE PUSH1 0x20 ADD PUSH0 KECCAK256 SLOAD SWAP1 POP PUSH2 0xA75 JUMP JUMPDEST PUSH0 DUP1 SLOAD SWAP1 PUSH2 0x100 EXP SWAP1 DIV PUSH20 0xFFFFFFFFFFFFFFFFFFFFFFFFFFFFFFFFFFFFFFFF AND PUSH20 0xFFFFFFFFFFFFFFFFFFFFFFFFFFFFFFFFFFFFFFFF AND CALLER PUSH20 0xFFFFFFFFFFFFFFFFFFFFFFFFFFFFFFFFFFFFFFFF AND EQ DUP1 ISZERO PUSH2 0x8F9 JUMPI POP PUSH0 ISZERO ISZERO PUSH1 0x9 PUSH0 SWAP1 SLOAD SWAP1 PUSH2 0x100 EXP SWAP1 DIV PUSH1 0xFF AND ISZERO ISZERO EQ JUMPDEST ISZERO PUSH2 0x944 JUMPI PUSH0 DUP1 SLOAD SWAP1 PUSH2 0x100 EXP SWAP1 DIV PUSH20 0xFFFFFFFFFFFFFFFFFFFFFFFFFFFFFFFFFFFFFFFF AND SWAP2 POP PUSH1 0x5 SLOAD SWAP1 POP PUSH1 0x1 PUSH1 0x9 PUSH0 PUSH2 0x100 EXP DUP2 SLOAD DUP2 PUSH1 0xFF MUL NOT AND SWAP1 DUP4 ISZERO ISZERO MUL OR SWAP1 SSTORE POP PUSH2 0xA74 JUMP JUMPDEST PUSH1 0x6 PUSH0 SWAP1 SLOAD SWAP1 PUSH2 0x100 EXP SWAP1 DIV PUSH20 0xFFFFFFFFFFFFFFFFFFFFFFFFFFFFFFFFFFFFFFFF AND PUSH20 0xFFFFFFFFFFFFFFFFFFFFFFFFFFFFFFFFFFFFFFFF AND CALLER PUSH20 0xFFFFFFFFFFFFFFFFFFFFFFFFFFFFFFFFFFFFFFFF AND SUB PUSH2 0xA2F JUMPI PUSH1 0x6 PUSH0 SWAP1 SLOAD SWAP1 PUSH2 0x100 EXP SWAP1 DIV PUSH20 0xFFFFFFFFFFFFFFFFFFFFFFFFFFFFFFFFFFFFFFFF AND SWAP2 POP PUSH1 0x5 SLOAD PUSH1 0x7 PUSH0 PUSH1 0x6 PUSH0 SWAP1 SLOAD SWAP1 PUSH2 0x100 EXP SWAP1 DIV PUSH20 0xFFFFFFFFFFFFFFFFFFFFFFFFFFFFFFFFFFFFFFFF AND PUSH20 0xFFFFFFFFFFFFFFFFFFFFFFFFFFFFFFFFFFFFFFFF AND PUSH20 0xFFFFFFFFFFFFFFFFFFFFFFFFFFFFFFFFFFFFFFFF AND DUP2 MSTORE PUSH1 0x20 ADD SWAP1 DUP2 MSTORE PUSH1 0x20 ADD PUSH0 KECCAK256 SLOAD PUSH2 0xA28 SWAP2 SWAP1 PUSH2 0xE18 JUMP JUMPDEST SWAP1 POP PUSH2 0xA73 JUMP JUMPDEST CALLER SWAP2 POP PUSH1 0x7 PUSH0 CALLER PUSH20 0xFFFFFFFFFFFFFFFFFFFFFFFFFFFFFFFFFFFFFFFF AND PUSH20 0xFFFFFFFFFFFFFFFFFFFFFFFFFFFFFFFFFFFFFFFF AND DUP2 MSTORE PUSH1 0x20 ADD SWAP1 DUP2 MSTORE PUSH1 0x20 ADD PUSH0 KECCAK256 SLOAD SWAP1 POP JUMPDEST JUMPDEST JUMPDEST PUSH0 PUSH1 0x7 PUSH0 DUP5 PUSH20 0xFFFFFFFFFFFFFFFFFFFFFFFFFFFFFFFFFFFFFFFF AND PUSH20 0xFFFFFFFFFFFFFFFFFFFFFFFFFFFFFFFFFFFFFFFF AND DUP2 MSTORE PUSH1 0x20 ADD SWAP1 DUP2 MSTORE PUSH1 0x20 ADD PUSH0 KECCAK256 DUP2 SWAP1 SSTORE POP DUP2 PUSH20 0xFFFFFFFFFFFFFFFFFFFFFFFFFFFFFFFFFFFFFFFF AND PUSH2 0x8FC DUP3 SWAP1 DUP2 ISZERO MUL SWAP1 PUSH1 0x40 MLOAD PUSH0 PUSH1 0x40 MLOAD DUP1 DUP4 SUB DUP2 DUP6 DUP9 DUP9 CALL SWAP4 POP POP POP POP ISZERO DUP1 ISZERO PUSH2 0xAFA JUMPI RETURNDATASIZE PUSH0 DUP1 RETURNDATACOPY RETURNDATASIZE PUSH0 REVERT JUMPDEST POP POP POP JUMP JUMPDEST PUSH0 DUP2 DUP4 GT PUSH2 0xB0F JUMPI DUP3 SWAP1 POP PUSH2 0xB13 JUMP JUMPDEST DUP2 SWAP1 POP JUMPDEST SWAP3 SWAP2 POP POP JUMP JUMPDEST PUSH0 DUP2 SWAP1 POP SWAP2 SWAP1 POP JUMP JUMPDEST PUSH2 0xB2B DUP2 PUSH2 0xB19 JUMP JUMPDEST DUP3 MSTORE POP POP JUMP JUMPDEST PUSH0 PUSH1 0x20 DUP3 ADD SWAP1 POP PUSH2 0xB44 PUSH0 DUP4 ADD DUP5 PUSH2 0xB22 JUMP JUMPDEST SWAP3 SWAP2 POP POP JUMP JUMPDEST PUSH0 DUP1 REVERT JUMPDEST PUSH0 PUSH20 0xFFFFFFFFFFFFFFFFFFFFFFFFFFFFFFFFFFFFFFFF DUP3 AND SWAP1 POP SWAP2 SWAP1 POP JUMP JUMPDEST PUSH0 PUSH2 0xB77 DUP3 PUSH2 0xB4E JUMP JUMPDEST SWAP1 POP SWAP2 SWAP1 POP JUMP JUMPDEST PUSH2 0xB87 DUP2 PUSH2 0xB6D JUMP JUMPDEST DUP2 EQ PUSH2 0xB91 JUMPI PUSH0 DUP1 REVERT JUMPDEST POP JUMP JUMPDEST PUSH0 DUP2 CALLDATALOAD SWAP1 POP PUSH2 0xBA2 DUP2 PUSH2 0xB7E JUMP JUMPDEST SWAP3 SWAP2 POP POP JUMP JUMPDEST PUSH0 PUSH1 0x20 DUP3 DUP5 SUB SLT ISZERO PUSH2 0xBBD JUMPI PUSH2 0xBBC PUSH2 0xB4A JUMP JUMPDEST JUMPDEST PUSH0 PUSH2 0xBCA DUP5 DUP3 DUP6 ADD PUSH2 0xB94 JUMP JUMPDEST SWAP2 POP POP SWAP3 SWAP2 POP POP JUMP JUMPDEST PUSH32 0x4E487B7100000000000000000000000000000000000000000000000000000000 PUSH0 MSTORE PUSH1 0x21 PUSH1 0x4 MSTORE PUSH1 0x24 PUSH0 REVERT JUMPDEST PUSH1 0x4 DUP2 LT PUSH2 0xC11 JUMPI PUSH2 0xC10 PUSH2 0xBD3 JUMP JUMPDEST JUMPDEST POP JUMP JUMPDEST PUSH0 DUP2 SWAP1 POP PUSH2 0xC21 DUP3 PUSH2 0xC00 JUMP JUMPDEST SWAP2 SWAP1 POP JUMP JUMPDEST PUSH0 PUSH2 0xC30 DUP3 PUSH2 0xC14 JUMP JUMPDEST SWAP1 POP SWAP2 SWAP1 POP JUMP JUMPDEST PUSH2 0xC40 DUP2 PUSH2 0xC26 JUMP JUMPDEST DUP3 MSTORE POP POP JUMP JUMPDEST PUSH0 PUSH1 0x20 DUP3 ADD SWAP1 POP PUSH2 0xC59 PUSH0 DUP4 ADD DUP5 PUSH2 0xC37 JUMP JUMPDEST SWAP3 SWAP2 POP POP JUMP JUMPDEST PUSH0 DUP2 ISZERO ISZERO SWAP1 POP SWAP2 SWAP1 POP JUMP JUMPDEST PUSH2 0xC73 DUP2 PUSH2 0xC5F JUMP JUMPDEST DUP3 MSTORE POP POP JUMP JUMPDEST PUSH0 PUSH1 0x20 DUP3 ADD SWAP1 POP PUSH2 0xC8C PUSH0 DUP4 ADD DUP5 PUSH2 0xC6A JUMP JUMPDEST SWAP3 SWAP2 POP POP JUMP JUMPDEST PUSH0 PUSH2 0xC9C DUP3 PUSH2 0xB4E JUMP JUMPDEST SWAP1 POP SWAP2 SWAP1 POP JUMP JUMPDEST PUSH2 0xCAC DUP2 PUSH2 0xC92 JUMP JUMPDEST DUP3 MSTORE POP POP JUMP JUMPDEST PUSH0 PUSH1 0x20 DUP3 ADD SWAP1 POP PUSH2 0xCC5 PUSH0 DUP4 ADD DUP5 PUSH2 0xCA3 JUMP JUMPDEST SWAP3 SWAP2 POP POP JUMP JUMPDEST PUSH0 DUP2 MLOAD SWAP1 POP SWAP2 SWAP1 POP JUMP JUMPDEST PUSH0 DUP3 DUP3 MSTORE PUSH1 0x20 DUP3 ADD SWAP1 POP SWAP3 SWAP2 POP POP JUMP JUMPDEST DUP3 DUP2 DUP4 MCOPY PUSH0 DUP4 DUP4 ADD MSTORE POP POP POP JUMP JUMPDEST PUSH0 PUSH1 0x1F NOT PUSH1 0x1F DUP4 ADD AND SWAP1 POP SWAP2 SWAP1 POP JUMP JUMPDEST PUSH0 PUSH2 0xD0D DUP3 PUSH2 0xCCB JUMP JUMPDEST PUSH2 0xD17 DUP2 DUP6 PUSH2 0xCD5 JUMP JUMPDEST SWAP4 POP PUSH2 0xD27 DUP2 DUP6 PUSH1 0x20 DUP7 ADD PUSH2 0xCE5 JUMP JUMPDEST PUSH2 0xD30 DUP2 PUSH2 0xCF3 JUMP JUMPDEST DUP5 ADD SWAP2 POP POP SWAP3 SWAP2 POP POP JUMP JUMPDEST PUSH0 PUSH1 0x20 DUP3 ADD SWAP1 POP DUP2 DUP2 SUB PUSH0 DUP4 ADD MSTORE PUSH2 0xD53 DUP2 DUP5 PUSH2 0xD03 JUMP JUMPDEST SWAP1 POP SWAP3 SWAP2 POP POP JUMP JUMPDEST PUSH32 0x4E487B7100000000000000000000000000000000000000000000000000000000 PUSH0 MSTORE PUSH1 0x22 PUSH1 0x4 MSTORE PUSH1 0x24 PUSH0 REVERT JUMPDEST PUSH0 PUSH1 0x2 DUP3 DIV SWAP1 POP PUSH1 0x1 DUP3 AND DUP1 PUSH2 0xD9F JUMPI PUSH1 0x7F DUP3 AND SWAP2 POP JUMPDEST PUSH1 0x20 DUP3 LT DUP2 SUB PUSH2 0xDB2 JUMPI PUSH2 0xDB1 PUSH2 0xD5B JUMP JUMPDEST JUMPDEST POP SWAP2 SWAP1 POP JUMP JUMPDEST PUSH32 0x4E487B7100000000000000000000000000000000000000000000000000000000 PUSH0 MSTORE PUSH1 0x11 PUSH1 0x4 MSTORE PUSH1 0x24 PUSH0 REVERT JUMPDEST PUSH0 PUSH2 0xDEF DUP3 PUSH2 0xB19 JUMP JUMPDEST SWAP2 POP PUSH2 0xDFA DUP4 PUSH2 0xB19 JUMP JUMPDEST SWAP3 POP DUP3 DUP3 ADD SWAP1 POP DUP1 DUP3 GT ISZERO PUSH2 0xE12 JUMPI PUSH2 0xE11 PUSH2 0xDB8 JUMP JUMPDEST JUMPDEST SWAP3 SWAP2 POP POP JUMP JUMPDEST PUSH0 PUSH2 0xE22 DUP3 PUSH2 0xB19 JUMP JUMPDEST SWAP2 POP PUSH2 0xE2D DUP4 PUSH2 0xB19 JUMP JUMPDEST SWAP3 POP DUP3 DUP3 SUB SWAP1 POP DUP2 DUP2 GT ISZERO PUSH2 0xE45 JUMPI PUSH2 0xE44 PUSH2 0xDB8 JUMP JUMPDEST JUMPDEST SWAP3 SWAP2 POP POP JUMP INVALID LOG2 PUSH5 0x6970667358 0x22 SLT KECCAK256 SLOAD ADDMOD 0xE3 DUP7 PUSH8 0x453DBFB8B1385287 0x2A 0xD4 DUP13 0xD9 PUSH0 0xB6 0xC7 0xAA EQ 0x4F 0xE2 SWAP9 DUP3 LOG3 PUSH7 0x208ECB3C64736F PUSH13 0x634300081A0033000000000000 "
				},
				"gasEstimates": {
					"creation": {
						"codeDepositCost": "742600",
						"executionCost": "infinite",
						"totalCost": "infinite"
					},
					"external": {
						"auctionState()": "2621",
						"bids(address)": "2847",
						"cancelAuction()": "28720",
						"endBlock()": "2426",
						"finalizeAuction()": "infinite",
						"highestBidder()": "2530",
						"highestBindingBid()": "2513",
						"ipfsHash()": "infinite",
						"owner()": "2616",
						"ownerFinalized()": "2555",
						"placeBid()": "infinite",
						"startBlock()": "2448"
					},
					"internal": {
						"min(uint256,uint256)": "63"
					}
				},
				"methodIdentifiers": {
					"auctionState()": "7fb45099",
					"bids(address)": "62ea82db",
					"cancelAuction()": "8fa8b790",
					"endBlock()": "083c6323",
					"finalizeAuction()": "f77282ab",
					"highestBidder()": "91f90157",
					"highestBindingBid()": "f5b56c56",
					"ipfsHash()": "c623674f",
					"owner()": "8da5cb5b",
					"ownerFinalized()": "8b7b097f",
					"placeBid()": "ecfc7ecc",
					"startBlock()": "48cd4cb1"
				}
			},
			"storageLayout": {
				"storage": [
					{
						"astId": 3,
						"contract": "contracts/auction.sol:Auction",
						"label": "owner",
						"offset": 0,
						"slot": "0",
						"type": "t_address_payable"
					},
					{
						"astId": 5,
						"contract": "contracts/auction.sol:Auction",
						"label": "startBlock",
						"offset": 0,
						"slot": "1",
						"type": "t_uint256"
					},
					{
						"astId": 7,
						"contract": "contracts/auction.sol:Auction",
						"label": "endBlock",
						"offset": 0,
						"slot": "2",
						"type": "t_uint256"
					},
					{
						"astId": 9,
						"contract": "contracts/auction.sol:Auction",
						"label": "ipfsHash",
						"offset": 0,
						"slot": "3",
						"type": "t_string_storage"
					},
					{
						"astId": 17,
						"contract": "contracts/auction.sol:Auction",
						"label": "auctionState",
						"offset": 0,
						"slot": "4",
						"type": "t_enum(State)14"
					},
					{
						"astId": 19,
						"contract": "contracts/auction.sol:Auction",
						"label": "highestBindingBid",
						"offset": 0,
						"slot": "5",
						"type": "t_uint256"
					},
					{
						"astId": 21,
						"contract": "contracts/auction.sol:Auction",
						"label": "highestBidder",
						"offset": 0,
						"slot": "6",
						"type": "t_address_payable"
					},
					{
						"astId": 25,
						"contract": "contracts/auction.sol:Auction",
						"label": "bids",
						"offset": 0,
						"slot": "7",
						"type": "t_mapping(t_address,t_uint256)"
					},
					{
						"astId": 27,
						"contract": "contracts/auction.sol:Auction",
						"label": "bidIncrement",
						"offset": 0,
						"slot": "8",
						"type": "t_uint256"
					},
					{
						"astId": 30,
						"contract": "contracts/auction.sol:Auction",
						"label": "ownerFinalized",
						"offset": 0,
						"slot": "9",
						"type": "t_bool"
					}
				],
				"types": {
					"t_address": {
						"encoding": "inplace",
						"label": "address",
						"numberOfBytes": "20"
					},
					"t_address_payable": {
						"encoding": "inplace",
						"label": "address payable",
						"numberOfBytes": "20"
					},
					"t_bool": {
						"encoding": "inplace",
						"label": "bool",
						"numberOfBytes": "1"
					},
					"t_enum(State)14": {
						"encoding": "inplace",
						"label": "enum Auction.State",
						"numberOfBytes": "1"
					},
					"t_mapping(t_address,t_uint256)": {
						"encoding": "mapping",
						"key": "t_address",
						"label": "mapping(address => uint256)",
						"numberOfBytes": "32",
						"value": "t_uint256"
					},
					"t_string_storage": {
						"encoding": "bytes",
						"label": "string",
						"numberOfBytes": "32"
					},
					"t_uint256": {
						"encoding": "inplace",
						"label": "uint256",
						"numberOfBytes": "32"
					}
				}
			},
			"userdoc": {
				"kind": "user",
				"methods": {},
				"version": 1
			}
		}
	}
}