{
	"contracts/auction.sol": {
		"Auction": {
			"abi": [
				{
					"inputs": [],
					"stateMutability": "nonpayable",
					"type": "constructor"
				},
				{
					"inputs": [],
					"name": "auctionState",
					"outputs": [
						{
							"internalType": "enum Auction.State",
							"name": "",
							"type": "uint8"
						}
					],
					"stateMutability": "view",
					"type": "function"
				},
				{
					"inputs": [
						{
							"internalType": "address",
							"name": "",
							"type": "address"
						}
					],
					"name": "bids",
					"outputs": [
						{
							"internalType": "uint256",
							"name": "",
							"type": "uint256"
						}
					],
					"stateMutability": "view",
					"type": "function"
				},
				{
					"inputs": [],
					"name": "cancelAution",
					"outputs": [],
					"stateMutability": "nonpayable",
					"type": "function"
				},
				{
					"inputs": [],
					"name": "endBlock",
					"outputs": [
						{
							"internalType": "uint256",
							"name": "",
							"type": "uint256"
						}
					],
					"stateMutability": "view",
					"type": "function"
				},
				{
					"inputs": [],
					"name": "finalizeAuction",
					"outputs": [],
					"stateMutability": "nonpayable",
					"type": "function"
				},
				{
					"inputs": [],
					"name": "highestBidder",
					"outputs": [
						{
							"internalType": "address payable",
							"name": "",
							"type": "address"
						}
					],
					"stateMutability": "view",
					"type": "function"
				},
				{
					"inputs": [],
					"name": "highestBindingBid",
					"outputs": [
						{
							"internalType": "uint256",
							"name": "",
							"type": "uint256"
						}
					],
					"stateMutability": "view",
					"type": "function"
				},
				{
					"inputs": [],
					"name": "ipfsHash",
					"outputs": [
						{
							"internalType": "string",
							"name": "",
							"type": "string"
						}
					],
					"stateMutability": "view",
					"type": "function"
				},
				{
					"inputs": [],
					"name": "owner",
					"outputs": [
						{
							"internalType": "address payable",
							"name": "",
							"type": "address"
						}
					],
					"stateMutability": "view",
					"type": "function"
				},
				{
					"inputs": [],
					"name": "placeBid",
					"outputs": [],
					"stateMutability": "payable",
					"type": "function"
				},
				{
					"inputs": [],
					"name": "startBlock",
					"outputs": [
						{
							"internalType": "uint256",
							"name": "",
							"type": "uint256"
						}
					],
					"stateMutability": "view",
					"type": "function"
				}
			],
			"devdoc": {
				"kind": "dev",
				"methods": {},
				"version": 1
			},
			"evm": {
				"assembly": "    /* \"contracts/auction.sol\":72:2870  contract Auction{... */\n  mstore(0x40, 0x80)\n    /* \"contracts/auction.sol\":439:660  constructor(){... */\n  callvalue\n  dup1\n  iszero\n  tag_1\n  jumpi\n  0x00\n  dup1\n  revert\ntag_1:\n  pop\n    /* \"contracts/auction.sol\":478:488  msg.sender */\n  caller\n    /* \"contracts/auction.sol\":462:467  owner */\n  0x00\n  dup1\n    /* \"contracts/auction.sol\":462:489  owner = payable(msg.sender) */\n  0x0100\n  exp\n  dup2\n  sload\n  dup2\n  0xffffffffffffffffffffffffffffffffffffffff\n  mul\n  not\n  and\n  swap1\n  dup4\n  0xffffffffffffffffffffffffffffffffffffffff\n  and\n  mul\n  or\n  swap1\n  sstore\n  pop\n    /* \"contracts/auction.sol\":514:527  State.Running */\n  0x01\n    /* \"contracts/auction.sol\":499:511  auctionState */\n  0x04\n  0x00\n    /* \"contracts/auction.sol\":499:527  auctionState = State.Running */\n  0x0100\n  exp\n  dup2\n  sload\n  dup2\n  0xff\n  mul\n  not\n  and\n  swap1\n  dup4\n  0x03\n  dup2\n  gt\n  iszero\n  tag_4\n  jumpi\n  tag_5\n  tag_6\n  jump\t// in\ntag_5:\ntag_4:\n  mul\n  or\n  swap1\n  sstore\n  pop\n    /* \"contracts/auction.sol\":550:562  block.number */\n  number\n    /* \"contracts/auction.sol\":537:547  startBlock */\n  0x01\n    /* \"contracts/auction.sol\":537:562  startBlock = block.number */\n  dup2\n  swap1\n  sstore\n  pop\n    /* \"contracts/auction.sol\":596:601  40320 */\n  0x9d80\n    /* \"contracts/auction.sol\":583:593  startBlock */\n  sload(0x01)\n    /* \"contracts/auction.sol\":583:601  startBlock + 40320 */\n  tag_7\n  swap2\n  swap1\n  tag_8\n  jump\t// in\ntag_7:\n    /* \"contracts/auction.sol\":572:580  endBlock */\n  0x02\n    /* \"contracts/auction.sol\":572:601  endBlock = startBlock + 40320 */\n  dup2\n  swap1\n  sstore\n  pop\n    /* \"contracts/auction.sol\":611:624  ipfsHash = \"\" */\n  mload(0x40)\n  dup1\n  0x20\n  add\n  0x40\n  mstore\n  dup1\n  0x00\n  dup2\n  mstore\n  pop\n    /* \"contracts/auction.sol\":611:619  ipfsHash */\n  0x03\n    /* \"contracts/auction.sol\":611:624  ipfsHash = \"\" */\n  swap1\n  dup2\n  tag_9\n  swap2\n  swap1\n  tag_10\n  jump\t// in\ntag_9:\n  pop\n    /* \"contracts/auction.sol\":650:653  100 */\n  0x64\n    /* \"contracts/auction.sol\":634:647  bidIncreament */\n  0x08\n    /* \"contracts/auction.sol\":634:653  bidIncreament = 100 */\n  dup2\n  swap1\n  sstore\n  pop\n    /* \"contracts/auction.sol\":72:2870  contract Auction{... */\n  jump(tag_11)\n    /* \"#utility.yul\":7:187   */\ntag_6:\n    /* \"#utility.yul\":55:132   */\n  0x4e487b7100000000000000000000000000000000000000000000000000000000\n    /* \"#utility.yul\":52:53   */\n  0x00\n    /* \"#utility.yul\":45:133   */\n  mstore\n    /* \"#utility.yul\":152:156   */\n  0x21\n    /* \"#utility.yul\":149:150   */\n  0x04\n    /* \"#utility.yul\":142:157   */\n  mstore\n    /* \"#utility.yul\":176:180   */\n  0x24\n    /* \"#utility.yul\":173:174   */\n  0x00\n    /* \"#utility.yul\":166:181   */\n  revert\n    /* \"#utility.yul\":193:270   */\ntag_12:\n    /* \"#utility.yul\":230:237   */\n  0x00\n    /* \"#utility.yul\":259:264   */\n  dup2\n    /* \"#utility.yul\":248:264   */\n  swap1\n  pop\n    /* \"#utility.yul\":193:270   */\n  swap2\n  swap1\n  pop\n  jump\t// out\n    /* \"#utility.yul\":276:456   */\ntag_13:\n    /* \"#utility.yul\":324:401   */\n  0x4e487b7100000000000000000000000000000000000000000000000000000000\n    /* \"#utility.yul\":321:322   */\n  0x00\n    /* \"#utility.yul\":314:402   */\n  mstore\n    /* \"#utility.yul\":421:425   */\n  0x11\n    /* \"#utility.yul\":418:419   */\n  0x04\n    /* \"#utility.yul\":411:426   */\n  mstore\n    /* \"#utility.yul\":445:449   */\n  0x24\n    /* \"#utility.yul\":442:443   */\n  0x00\n    /* \"#utility.yul\":435:450   */\n  revert\n    /* \"#utility.yul\":462:653   */\ntag_8:\n    /* \"#utility.yul\":502:505   */\n  0x00\n    /* \"#utility.yul\":521:541   */\n  tag_38\n    /* \"#utility.yul\":539:540   */\n  dup3\n    /* \"#utility.yul\":521:541   */\n  tag_12\n  jump\t// in\ntag_38:\n    /* \"#utility.yul\":516:541   */\n  swap2\n  pop\n    /* \"#utility.yul\":555:575   */\n  tag_39\n    /* \"#utility.yul\":573:574   */\n  dup4\n    /* \"#utility.yul\":555:575   */\n  tag_12\n  jump\t// in\ntag_39:\n    /* \"#utility.yul\":550:575   */\n  swap3\n  pop\n    /* \"#utility.yul\":598:599   */\n  dup3\n    /* \"#utility.yul\":595:596   */\n  dup3\n    /* \"#utility.yul\":591:600   */\n  add\n    /* \"#utility.yul\":584:600   */\n  swap1\n  pop\n    /* \"#utility.yul\":619:622   */\n  dup1\n    /* \"#utility.yul\":616:617   */\n  dup3\n    /* \"#utility.yul\":613:623   */\n  gt\n    /* \"#utility.yul\":610:646   */\n  iszero\n  tag_40\n  jumpi\n    /* \"#utility.yul\":626:644   */\n  tag_41\n  tag_13\n  jump\t// in\ntag_41:\n    /* \"#utility.yul\":610:646   */\ntag_40:\n    /* \"#utility.yul\":462:653   */\n  swap3\n  swap2\n  pop\n  pop\n  jump\t// out\n    /* \"#utility.yul\":659:758   */\ntag_14:\n    /* \"#utility.yul\":711:717   */\n  0x00\n    /* \"#utility.yul\":745:750   */\n  dup2\n    /* \"#utility.yul\":739:751   */\n  mload\n    /* \"#utility.yul\":729:751   */\n  swap1\n  pop\n    /* \"#utility.yul\":659:758   */\n  swap2\n  swap1\n  pop\n  jump\t// out\n    /* \"#utility.yul\":764:944   */\ntag_15:\n    /* \"#utility.yul\":812:889   */\n  0x4e487b7100000000000000000000000000000000000000000000000000000000\n    /* \"#utility.yul\":809:810   */\n  0x00\n    /* \"#utility.yul\":802:890   */\n  mstore\n    /* \"#utility.yul\":909:913   */\n  0x41\n    /* \"#utility.yul\":906:907   */\n  0x04\n    /* \"#utility.yul\":899:914   */\n  mstore\n    /* \"#utility.yul\":933:937   */\n  0x24\n    /* \"#utility.yul\":930:931   */\n  0x00\n    /* \"#utility.yul\":923:938   */\n  revert\n    /* \"#utility.yul\":950:1130   */\ntag_16:\n    /* \"#utility.yul\":998:1075   */\n  0x4e487b7100000000000000000000000000000000000000000000000000000000\n    /* \"#utility.yul\":995:996   */\n  0x00\n    /* \"#utility.yul\":988:1076   */\n  mstore\n    /* \"#utility.yul\":1095:1099   */\n  0x22\n    /* \"#utility.yul\":1092:1093   */\n  0x04\n    /* \"#utility.yul\":1085:1100   */\n  mstore\n    /* \"#utility.yul\":1119:1123   */\n  0x24\n    /* \"#utility.yul\":1116:1117   */\n  0x00\n    /* \"#utility.yul\":1109:1124   */\n  revert\n    /* \"#utility.yul\":1136:1456   */\ntag_17:\n    /* \"#utility.yul\":1180:1186   */\n  0x00\n    /* \"#utility.yul\":1217:1218   */\n  0x02\n    /* \"#utility.yul\":1211:1215   */\n  dup3\n    /* \"#utility.yul\":1207:1219   */\n  div\n    /* \"#utility.yul\":1197:1219   */\n  swap1\n  pop\n    /* \"#utility.yul\":1264:1265   */\n  0x01\n    /* \"#utility.yul\":1258:1262   */\n  dup3\n    /* \"#utility.yul\":1254:1266   */\n  and\n    /* \"#utility.yul\":1285:1303   */\n  dup1\n    /* \"#utility.yul\":1275:1356   */\n  tag_46\n  jumpi\n    /* \"#utility.yul\":1341:1345   */\n  0x7f\n    /* \"#utility.yul\":1333:1339   */\n  dup3\n    /* \"#utility.yul\":1329:1346   */\n  and\n    /* \"#utility.yul\":1319:1346   */\n  swap2\n  pop\n    /* \"#utility.yul\":1275:1356   */\ntag_46:\n    /* \"#utility.yul\":1403:1405   */\n  0x20\n    /* \"#utility.yul\":1395:1401   */\n  dup3\n    /* \"#utility.yul\":1392:1406   */\n  lt\n    /* \"#utility.yul\":1372:1390   */\n  dup2\n    /* \"#utility.yul\":1369:1407   */\n  sub\n    /* \"#utility.yul\":1366:1450   */\n  tag_47\n  jumpi\n    /* \"#utility.yul\":1422:1440   */\n  tag_48\n  tag_16\n  jump\t// in\ntag_48:\n    /* \"#utility.yul\":1366:1450   */\ntag_47:\n    /* \"#utility.yul\":1187:1456   */\n  pop\n    /* \"#utility.yul\":1136:1456   */\n  swap2\n  swap1\n  pop\n  jump\t// out\n    /* \"#utility.yul\":1462:1603   */\ntag_18:\n    /* \"#utility.yul\":1511:1515   */\n  0x00\n    /* \"#utility.yul\":1534:1537   */\n  dup2\n    /* \"#utility.yul\":1526:1537   */\n  swap1\n  pop\n    /* \"#utility.yul\":1557:1560   */\n  dup2\n    /* \"#utility.yul\":1554:1555   */\n  0x00\n    /* \"#utility.yul\":1547:1561   */\n  mstore\n    /* \"#utility.yul\":1591:1595   */\n  0x20\n    /* \"#utility.yul\":1588:1589   */\n  0x00\n    /* \"#utility.yul\":1578:1596   */\n  keccak256\n    /* \"#utility.yul\":1570:1596   */\n  swap1\n  pop\n    /* \"#utility.yul\":1462:1603   */\n  swap2\n  swap1\n  pop\n  jump\t// out\n    /* \"#utility.yul\":1609:1702   */\ntag_19:\n    /* \"#utility.yul\":1646:1652   */\n  0x00\n    /* \"#utility.yul\":1693:1695   */\n  0x20\n    /* \"#utility.yul\":1688:1690   */\n  0x1f\n    /* \"#utility.yul\":1681:1686   */\n  dup4\n    /* \"#utility.yul\":1677:1691   */\n  add\n    /* \"#utility.yul\":1673:1696   */\n  div\n    /* \"#utility.yul\":1663:1696   */\n  swap1\n  pop\n    /* \"#utility.yul\":1609:1702   */\n  swap2\n  swap1\n  pop\n  jump\t// out\n    /* \"#utility.yul\":1708:1815   */\ntag_20:\n    /* \"#utility.yul\":1752:1760   */\n  0x00\n    /* \"#utility.yul\":1802:1807   */\n  dup3\n    /* \"#utility.yul\":1796:1800   */\n  dup3\n    /* \"#utility.yul\":1792:1808   */\n  shl\n    /* \"#utility.yul\":1771:1808   */\n  swap1\n  pop\n    /* \"#utility.yul\":1708:1815   */\n  swap3\n  swap2\n  pop\n  pop\n  jump\t// out\n    /* \"#utility.yul\":1821:2214   */\ntag_21:\n    /* \"#utility.yul\":1890:1896   */\n  0x00\n    /* \"#utility.yul\":1940:1941   */\n  0x08\n    /* \"#utility.yul\":1928:1938   */\n  dup4\n    /* \"#utility.yul\":1924:1942   */\n  mul\n    /* \"#utility.yul\":1963:2060   */\n  tag_53\n    /* \"#utility.yul\":1993:2059   */\n  0xffffffffffffffffffffffffffffffffffffffffffffffffffffffffffffffff\n    /* \"#utility.yul\":1982:1991   */\n  dup3\n    /* \"#utility.yul\":1963:2060   */\n  tag_20\n  jump\t// in\ntag_53:\n    /* \"#utility.yul\":2081:2120   */\n  tag_54\n    /* \"#utility.yul\":2111:2119   */\n  dup7\n    /* \"#utility.yul\":2100:2109   */\n  dup4\n    /* \"#utility.yul\":2081:2120   */\n  tag_20\n  jump\t// in\ntag_54:\n    /* \"#utility.yul\":2069:2120   */\n  swap6\n  pop\n    /* \"#utility.yul\":2153:2157   */\n  dup1\n    /* \"#utility.yul\":2149:2158   */\n  not\n    /* \"#utility.yul\":2142:2147   */\n  dup5\n    /* \"#utility.yul\":2138:2159   */\n  and\n    /* \"#utility.yul\":2129:2159   */\n  swap4\n  pop\n    /* \"#utility.yul\":2202:2206   */\n  dup1\n    /* \"#utility.yul\":2192:2200   */\n  dup7\n    /* \"#utility.yul\":2188:2207   */\n  and\n    /* \"#utility.yul\":2181:2186   */\n  dup5\n    /* \"#utility.yul\":2178:2208   */\n  or\n    /* \"#utility.yul\":2168:2208   */\n  swap3\n  pop\n    /* \"#utility.yul\":1897:2214   */\n  pop\n  pop\n    /* \"#utility.yul\":1821:2214   */\n  swap4\n  swap3\n  pop\n  pop\n  pop\n  jump\t// out\n    /* \"#utility.yul\":2220:2280   */\ntag_22:\n    /* \"#utility.yul\":2248:2251   */\n  0x00\n    /* \"#utility.yul\":2269:2274   */\n  dup2\n    /* \"#utility.yul\":2262:2274   */\n  swap1\n  pop\n    /* \"#utility.yul\":2220:2280   */\n  swap2\n  swap1\n  pop\n  jump\t// out\n    /* \"#utility.yul\":2286:2428   */\ntag_23:\n    /* \"#utility.yul\":2336:2345   */\n  0x00\n    /* \"#utility.yul\":2369:2422   */\n  tag_57\n    /* \"#utility.yul\":2387:2421   */\n  tag_58\n    /* \"#utility.yul\":2396:2420   */\n  tag_59\n    /* \"#utility.yul\":2414:2419   */\n  dup5\n    /* \"#utility.yul\":2396:2420   */\n  tag_12\n  jump\t// in\ntag_59:\n    /* \"#utility.yul\":2387:2421   */\n  tag_22\n  jump\t// in\ntag_58:\n    /* \"#utility.yul\":2369:2422   */\n  tag_12\n  jump\t// in\ntag_57:\n    /* \"#utility.yul\":2356:2422   */\n  swap1\n  pop\n    /* \"#utility.yul\":2286:2428   */\n  swap2\n  swap1\n  pop\n  jump\t// out\n    /* \"#utility.yul\":2434:2509   */\ntag_24:\n    /* \"#utility.yul\":2477:2480   */\n  0x00\n    /* \"#utility.yul\":2498:2503   */\n  dup2\n    /* \"#utility.yul\":2491:2503   */\n  swap1\n  pop\n    /* \"#utility.yul\":2434:2509   */\n  swap2\n  swap1\n  pop\n  jump\t// out\n    /* \"#utility.yul\":2515:2784   */\ntag_25:\n    /* \"#utility.yul\":2625:2664   */\n  tag_62\n    /* \"#utility.yul\":2656:2663   */\n  dup4\n    /* \"#utility.yul\":2625:2664   */\n  tag_23\n  jump\t// in\ntag_62:\n    /* \"#utility.yul\":2686:2777   */\n  tag_63\n    /* \"#utility.yul\":2735:2776   */\n  tag_64\n    /* \"#utility.yul\":2759:2775   */\n  dup3\n    /* \"#utility.yul\":2735:2776   */\n  tag_24\n  jump\t// in\ntag_64:\n    /* \"#utility.yul\":2727:2733   */\n  dup5\n    /* \"#utility.yul\":2720:2724   */\n  dup5\n    /* \"#utility.yul\":2714:2725   */\n  sload\n    /* \"#utility.yul\":2686:2777   */\n  tag_21\n  jump\t// in\ntag_63:\n    /* \"#utility.yul\":2680:2684   */\n  dup3\n    /* \"#utility.yul\":2673:2778   */\n  sstore\n    /* \"#utility.yul\":2591:2784   */\n  pop\n    /* \"#utility.yul\":2515:2784   */\n  pop\n  pop\n  pop\n  jump\t// out\n    /* \"#utility.yul\":2790:2863   */\ntag_26:\n    /* \"#utility.yul\":2835:2838   */\n  0x00\n    /* \"#utility.yul\":2790:2863   */\n  swap1\n  jump\t// out\n    /* \"#utility.yul\":2869:3058   */\ntag_27:\n    /* \"#utility.yul\":2946:2978   */\n  tag_67\n  tag_26\n  jump\t// in\ntag_67:\n    /* \"#utility.yul\":2987:3052   */\n  tag_68\n    /* \"#utility.yul\":3045:3051   */\n  dup2\n    /* \"#utility.yul\":3037:3043   */\n  dup5\n    /* \"#utility.yul\":3031:3035   */\n  dup5\n    /* \"#utility.yul\":2987:3052   */\n  tag_25\n  jump\t// in\ntag_68:\n    /* \"#utility.yul\":2922:3058   */\n  pop\n    /* \"#utility.yul\":2869:3058   */\n  pop\n  pop\n  jump\t// out\n    /* \"#utility.yul\":3064:3250   */\ntag_28:\n    /* \"#utility.yul\":3124:3244   */\ntag_70:\n    /* \"#utility.yul\":3141:3144   */\n  dup2\n    /* \"#utility.yul\":3134:3139   */\n  dup2\n    /* \"#utility.yul\":3131:3145   */\n  lt\n    /* \"#utility.yul\":3124:3244   */\n  iszero\n  tag_72\n  jumpi\n    /* \"#utility.yul\":3195:3234   */\n  tag_73\n    /* \"#utility.yul\":3232:3233   */\n  0x00\n    /* \"#utility.yul\":3225:3230   */\n  dup3\n    /* \"#utility.yul\":3195:3234   */\n  tag_27\n  jump\t// in\ntag_73:\n    /* \"#utility.yul\":3168:3169   */\n  0x01\n    /* \"#utility.yul\":3161:3166   */\n  dup2\n    /* \"#utility.yul\":3157:3170   */\n  add\n    /* \"#utility.yul\":3148:3170   */\n  swap1\n  pop\n    /* \"#utility.yul\":3124:3244   */\n  jump(tag_70)\ntag_72:\n    /* \"#utility.yul\":3064:3250   */\n  pop\n  pop\n  jump\t// out\n    /* \"#utility.yul\":3256:3799   */\ntag_29:\n    /* \"#utility.yul\":3357:3359   */\n  0x1f\n    /* \"#utility.yul\":3352:3355   */\n  dup3\n    /* \"#utility.yul\":3349:3360   */\n  gt\n    /* \"#utility.yul\":3346:3792   */\n  iszero\n  tag_75\n  jumpi\n    /* \"#utility.yul\":3391:3429   */\n  tag_76\n    /* \"#utility.yul\":3423:3428   */\n  dup2\n    /* \"#utility.yul\":3391:3429   */\n  tag_18\n  jump\t// in\ntag_76:\n    /* \"#utility.yul\":3475:3504   */\n  tag_77\n    /* \"#utility.yul\":3493:3503   */\n  dup5\n    /* \"#utility.yul\":3475:3504   */\n  tag_19\n  jump\t// in\ntag_77:\n    /* \"#utility.yul\":3465:3473   */\n  dup2\n    /* \"#utility.yul\":3461:3505   */\n  add\n    /* \"#utility.yul\":3658:3660   */\n  0x20\n    /* \"#utility.yul\":3646:3656   */\n  dup6\n    /* \"#utility.yul\":3643:3661   */\n  lt\n    /* \"#utility.yul\":3640:3689   */\n  iszero\n  tag_78\n  jumpi\n    /* \"#utility.yul\":3679:3687   */\n  dup2\n    /* \"#utility.yul\":3664:3687   */\n  swap1\n  pop\n    /* \"#utility.yul\":3640:3689   */\ntag_78:\n    /* \"#utility.yul\":3702:3782   */\n  tag_79\n    /* \"#utility.yul\":3758:3780   */\n  tag_80\n    /* \"#utility.yul\":3776:3779   */\n  dup6\n    /* \"#utility.yul\":3758:3780   */\n  tag_19\n  jump\t// in\ntag_80:\n    /* \"#utility.yul\":3748:3756   */\n  dup4\n    /* \"#utility.yul\":3744:3781   */\n  add\n    /* \"#utility.yul\":3731:3742   */\n  dup3\n    /* \"#utility.yul\":3702:3782   */\n  tag_28\n  jump\t// in\ntag_79:\n    /* \"#utility.yul\":3361:3792   */\n  pop\n  pop\n    /* \"#utility.yul\":3346:3792   */\ntag_75:\n    /* \"#utility.yul\":3256:3799   */\n  pop\n  pop\n  pop\n  jump\t// out\n    /* \"#utility.yul\":3805:3922   */\ntag_30:\n    /* \"#utility.yul\":3859:3867   */\n  0x00\n    /* \"#utility.yul\":3909:3914   */\n  dup3\n    /* \"#utility.yul\":3903:3907   */\n  dup3\n    /* \"#utility.yul\":3899:3915   */\n  shr\n    /* \"#utility.yul\":3878:3915   */\n  swap1\n  pop\n    /* \"#utility.yul\":3805:3922   */\n  swap3\n  swap2\n  pop\n  pop\n  jump\t// out\n    /* \"#utility.yul\":3928:4097   */\ntag_31:\n    /* \"#utility.yul\":3972:3978   */\n  0x00\n    /* \"#utility.yul\":4005:4056   */\n  tag_83\n    /* \"#utility.yul\":4053:4054   */\n  0x00\n    /* \"#utility.yul\":4049:4055   */\n  not\n    /* \"#utility.yul\":4041:4046   */\n  dup5\n    /* \"#utility.yul\":4038:4039   */\n  0x08\n    /* \"#utility.yul\":4034:4047   */\n  mul\n    /* \"#utility.yul\":4005:4056   */\n  tag_30\n  jump\t// in\ntag_83:\n    /* \"#utility.yul\":4001:4057   */\n  not\n    /* \"#utility.yul\":4086:4090   */\n  dup1\n    /* \"#utility.yul\":4080:4084   */\n  dup4\n    /* \"#utility.yul\":4076:4091   */\n  and\n    /* \"#utility.yul\":4066:4091   */\n  swap2\n  pop\n    /* \"#utility.yul\":3979:4097   */\n  pop\n    /* \"#utility.yul\":3928:4097   */\n  swap3\n  swap2\n  pop\n  pop\n  jump\t// out\n    /* \"#utility.yul\":4102:4397   */\ntag_32:\n    /* \"#utility.yul\":4178:4182   */\n  0x00\n    /* \"#utility.yul\":4324:4353   */\n  tag_85\n    /* \"#utility.yul\":4349:4352   */\n  dup4\n    /* \"#utility.yul\":4343:4347   */\n  dup4\n    /* \"#utility.yul\":4324:4353   */\n  tag_31\n  jump\t// in\ntag_85:\n    /* \"#utility.yul\":4316:4353   */\n  swap2\n  pop\n    /* \"#utility.yul\":4386:4389   */\n  dup3\n    /* \"#utility.yul\":4383:4384   */\n  0x02\n    /* \"#utility.yul\":4379:4390   */\n  mul\n    /* \"#utility.yul\":4373:4377   */\n  dup3\n    /* \"#utility.yul\":4370:4391   */\n  or\n    /* \"#utility.yul\":4362:4391   */\n  swap1\n  pop\n    /* \"#utility.yul\":4102:4397   */\n  swap3\n  swap2\n  pop\n  pop\n  jump\t// out\n    /* \"#utility.yul\":4402:5797   */\ntag_10:\n    /* \"#utility.yul\":4519:4556   */\n  tag_87\n    /* \"#utility.yul\":4552:4555   */\n  dup3\n    /* \"#utility.yul\":4519:4556   */\n  tag_14\n  jump\t// in\ntag_87:\n    /* \"#utility.yul\":4621:4639   */\n  0xffffffffffffffff\n    /* \"#utility.yul\":4613:4619   */\n  dup2\n    /* \"#utility.yul\":4610:4640   */\n  gt\n    /* \"#utility.yul\":4607:4663   */\n  iszero\n  tag_88\n  jumpi\n    /* \"#utility.yul\":4643:4661   */\n  tag_89\n  tag_15\n  jump\t// in\ntag_89:\n    /* \"#utility.yul\":4607:4663   */\ntag_88:\n    /* \"#utility.yul\":4687:4725   */\n  tag_90\n    /* \"#utility.yul\":4719:4723   */\n  dup3\n    /* \"#utility.yul\":4713:4724   */\n  sload\n    /* \"#utility.yul\":4687:4725   */\n  tag_17\n  jump\t// in\ntag_90:\n    /* \"#utility.yul\":4772:4839   */\n  tag_91\n    /* \"#utility.yul\":4832:4838   */\n  dup3\n    /* \"#utility.yul\":4824:4830   */\n  dup3\n    /* \"#utility.yul\":4818:4822   */\n  dup6\n    /* \"#utility.yul\":4772:4839   */\n  tag_29\n  jump\t// in\ntag_91:\n    /* \"#utility.yul\":4866:4867   */\n  0x00\n    /* \"#utility.yul\":4890:4894   */\n  0x20\n    /* \"#utility.yul\":4877:4894   */\n  swap1\n  pop\n    /* \"#utility.yul\":4922:4924   */\n  0x1f\n    /* \"#utility.yul\":4914:4920   */\n  dup4\n    /* \"#utility.yul\":4911:4925   */\n  gt\n    /* \"#utility.yul\":4939:4940   */\n  0x01\n    /* \"#utility.yul\":4934:5552   */\n  dup2\n  eq\n  tag_93\n  jumpi\n    /* \"#utility.yul\":5596:5597   */\n  0x00\n    /* \"#utility.yul\":5613:5619   */\n  dup5\n    /* \"#utility.yul\":5610:5687   */\n  iszero\n  tag_94\n  jumpi\n    /* \"#utility.yul\":5662:5671   */\n  dup3\n    /* \"#utility.yul\":5657:5660   */\n  dup8\n    /* \"#utility.yul\":5653:5672   */\n  add\n    /* \"#utility.yul\":5647:5673   */\n  mload\n    /* \"#utility.yul\":5638:5673   */\n  swap1\n  pop\n    /* \"#utility.yul\":5610:5687   */\ntag_94:\n    /* \"#utility.yul\":5713:5780   */\n  tag_95\n    /* \"#utility.yul\":5773:5779   */\n  dup6\n    /* \"#utility.yul\":5766:5771   */\n  dup3\n    /* \"#utility.yul\":5713:5780   */\n  tag_32\n  jump\t// in\ntag_95:\n    /* \"#utility.yul\":5707:5711   */\n  dup7\n    /* \"#utility.yul\":5700:5781   */\n  sstore\n    /* \"#utility.yul\":5569:5791   */\n  pop\n    /* \"#utility.yul\":4904:5791   */\n  jump(tag_92)\n    /* \"#utility.yul\":4934:5552   */\ntag_93:\n    /* \"#utility.yul\":4986:4990   */\n  0x1f\n    /* \"#utility.yul\":4982:4991   */\n  not\n    /* \"#utility.yul\":4974:4980   */\n  dup5\n    /* \"#utility.yul\":4970:4992   */\n  and\n    /* \"#utility.yul\":5020:5057   */\n  tag_96\n    /* \"#utility.yul\":5052:5056   */\n  dup7\n    /* \"#utility.yul\":5020:5057   */\n  tag_18\n  jump\t// in\ntag_96:\n    /* \"#utility.yul\":5079:5080   */\n  0x00\n    /* \"#utility.yul\":5093:5301   */\ntag_97:\n    /* \"#utility.yul\":5107:5114   */\n  dup3\n    /* \"#utility.yul\":5104:5105   */\n  dup2\n    /* \"#utility.yul\":5101:5115   */\n  lt\n    /* \"#utility.yul\":5093:5301   */\n  iszero\n  tag_99\n  jumpi\n    /* \"#utility.yul\":5186:5195   */\n  dup5\n    /* \"#utility.yul\":5181:5184   */\n  dup10\n    /* \"#utility.yul\":5177:5196   */\n  add\n    /* \"#utility.yul\":5171:5197   */\n  mload\n    /* \"#utility.yul\":5163:5169   */\n  dup3\n    /* \"#utility.yul\":5156:5198   */\n  sstore\n    /* \"#utility.yul\":5237:5238   */\n  0x01\n    /* \"#utility.yul\":5229:5235   */\n  dup3\n    /* \"#utility.yul\":5225:5239   */\n  add\n    /* \"#utility.yul\":5215:5239   */\n  swap2\n  pop\n    /* \"#utility.yul\":5284:5286   */\n  0x20\n    /* \"#utility.yul\":5273:5282   */\n  dup6\n    /* \"#utility.yul\":5269:5287   */\n  add\n    /* \"#utility.yul\":5256:5287   */\n  swap5\n  pop\n    /* \"#utility.yul\":5130:5134   */\n  0x20\n    /* \"#utility.yul\":5127:5128   */\n  dup2\n    /* \"#utility.yul\":5123:5135   */\n  add\n    /* \"#utility.yul\":5118:5135   */\n  swap1\n  pop\n    /* \"#utility.yul\":5093:5301   */\n  jump(tag_97)\ntag_99:\n    /* \"#utility.yul\":5329:5335   */\n  dup7\n    /* \"#utility.yul\":5320:5327   */\n  dup4\n    /* \"#utility.yul\":5317:5336   */\n  lt\n    /* \"#utility.yul\":5314:5493   */\n  iszero\n  tag_100\n  jumpi\n    /* \"#utility.yul\":5387:5396   */\n  dup5\n    /* \"#utility.yul\":5382:5385   */\n  dup10\n    /* \"#utility.yul\":5378:5397   */\n  add\n    /* \"#utility.yul\":5372:5398   */\n  mload\n    /* \"#utility.yul\":5430:5478   */\n  tag_101\n    /* \"#utility.yul\":5472:5476   */\n  0x1f\n    /* \"#utility.yul\":5464:5470   */\n  dup10\n    /* \"#utility.yul\":5460:5477   */\n  and\n    /* \"#utility.yul\":5449:5458   */\n  dup3\n    /* \"#utility.yul\":5430:5478   */\n  tag_31\n  jump\t// in\ntag_101:\n    /* \"#utility.yul\":5422:5428   */\n  dup4\n    /* \"#utility.yul\":5415:5479   */\n  sstore\n    /* \"#utility.yul\":5337:5493   */\n  pop\n    /* \"#utility.yul\":5314:5493   */\ntag_100:\n    /* \"#utility.yul\":5539:5540   */\n  0x01\n    /* \"#utility.yul\":5535:5536   */\n  0x02\n    /* \"#utility.yul\":5527:5533   */\n  dup9\n    /* \"#utility.yul\":5523:5537   */\n  mul\n    /* \"#utility.yul\":5519:5541   */\n  add\n    /* \"#utility.yul\":5513:5517   */\n  dup9\n    /* \"#utility.yul\":5506:5542   */\n  sstore\n    /* \"#utility.yul\":4941:5552   */\n  pop\n  pop\n  pop\n    /* \"#utility.yul\":4904:5791   */\ntag_92:\n  pop\n    /* \"#utility.yul\":4494:5797   */\n  pop\n  pop\n  pop\n    /* \"#utility.yul\":4402:5797   */\n  pop\n  pop\n  jump\t// out\n    /* \"contracts/auction.sol\":72:2870  contract Auction{... */\ntag_11:\n  dataSize(sub_0)\n  dup1\n  dataOffset(sub_0)\n  0x00\n  codecopy\n  0x00\n  return\nstop\n\nsub_0: assembly {\n        /* \"contracts/auction.sol\":72:2870  contract Auction{... */\n      mstore(0x40, 0x80)\n      jumpi(tag_1, lt(calldatasize, 0x04))\n      shr(0xe0, calldataload(0x00))\n      dup1\n      0x91f90157\n      gt\n      tag_13\n      jumpi\n      dup1\n      0x91f90157\n      eq\n      tag_7\n      jumpi\n      dup1\n      0xc623674f\n      eq\n      tag_8\n      jumpi\n      dup1\n      0xde31c95b\n      eq\n      tag_9\n      jumpi\n      dup1\n      0xecfc7ecc\n      eq\n      tag_10\n      jumpi\n      dup1\n      0xf5b56c56\n      eq\n      tag_11\n      jumpi\n      dup1\n      0xf77282ab\n      eq\n      tag_12\n      jumpi\n      jump(tag_1)\n    tag_13:\n      dup1\n      0x083c6323\n      eq\n      tag_2\n      jumpi\n      dup1\n      0x48cd4cb1\n      eq\n      tag_3\n      jumpi\n      dup1\n      0x62ea82db\n      eq\n      tag_4\n      jumpi\n      dup1\n      0x7fb45099\n      eq\n      tag_5\n      jumpi\n      dup1\n      0x8da5cb5b\n      eq\n      tag_6\n      jumpi\n    tag_1:\n      0x00\n      dup1\n      revert\n        /* \"contracts/auction.sol\":156:176  uint public endBlock */\n    tag_2:\n      callvalue\n      dup1\n      iszero\n      tag_14\n      jumpi\n      0x00\n      dup1\n      revert\n    tag_14:\n      pop\n      tag_15\n      tag_16\n      jump\t// in\n    tag_15:\n      mload(0x40)\n      tag_17\n      swap2\n      swap1\n      tag_18\n      jump\t// in\n    tag_17:\n      mload(0x40)\n      dup1\n      swap2\n      sub\n      swap1\n      return\n        /* \"contracts/auction.sol\":128:150  uint public startBlock */\n    tag_3:\n      callvalue\n      dup1\n      iszero\n      tag_19\n      jumpi\n      0x00\n      dup1\n      revert\n    tag_19:\n      pop\n      tag_20\n      tag_21\n      jump\t// in\n    tag_20:\n      mload(0x40)\n      tag_22\n      swap2\n      swap1\n      tag_18\n      jump\t// in\n    tag_22:\n      mload(0x40)\n      dup1\n      swap2\n      sub\n      swap1\n      return\n        /* \"contracts/auction.sol\":372:408  mapping(address => uint) public bids */\n    tag_4:\n      callvalue\n      dup1\n      iszero\n      tag_23\n      jumpi\n      0x00\n      dup1\n      revert\n    tag_23:\n      pop\n      tag_24\n      0x04\n      dup1\n      calldatasize\n      sub\n      dup2\n      add\n      swap1\n      tag_25\n      swap2\n      swap1\n      tag_26\n      jump\t// in\n    tag_25:\n      tag_27\n      jump\t// in\n    tag_24:\n      mload(0x40)\n      tag_28\n      swap2\n      swap1\n      tag_18\n      jump\t// in\n    tag_28:\n      mload(0x40)\n      dup1\n      swap2\n      sub\n      swap1\n      return\n        /* \"contracts/auction.sol\":262:287  State public auctionState */\n    tag_5:\n      callvalue\n      dup1\n      iszero\n      tag_29\n      jumpi\n      0x00\n      dup1\n      revert\n    tag_29:\n      pop\n      tag_30\n      tag_31\n      jump\t// in\n    tag_30:\n      mload(0x40)\n      tag_32\n      swap2\n      swap1\n      tag_33\n      jump\t// in\n    tag_32:\n      mload(0x40)\n      dup1\n      swap2\n      sub\n      swap1\n      return\n        /* \"contracts/auction.sol\":94:122  address payable public owner */\n    tag_6:\n      callvalue\n      dup1\n      iszero\n      tag_34\n      jumpi\n      0x00\n      dup1\n      revert\n    tag_34:\n      pop\n      tag_35\n      tag_36\n      jump\t// in\n    tag_35:\n      mload(0x40)\n      tag_37\n      swap2\n      swap1\n      tag_38\n      jump\t// in\n    tag_37:\n      mload(0x40)\n      dup1\n      swap2\n      sub\n      swap1\n      return\n        /* \"contracts/auction.sol\":329:365  address payable public highestBidder */\n    tag_7:\n      callvalue\n      dup1\n      iszero\n      tag_39\n      jumpi\n      0x00\n      dup1\n      revert\n    tag_39:\n      pop\n      tag_40\n      tag_41\n      jump\t// in\n    tag_40:\n      mload(0x40)\n      tag_42\n      swap2\n      swap1\n      tag_38\n      jump\t// in\n    tag_42:\n      mload(0x40)\n      dup1\n      swap2\n      sub\n      swap1\n      return\n        /* \"contracts/auction.sol\":182:204  string public ipfsHash */\n    tag_8:\n      callvalue\n      dup1\n      iszero\n      tag_43\n      jumpi\n      0x00\n      dup1\n      revert\n    tag_43:\n      pop\n      tag_44\n      tag_45\n      jump\t// in\n    tag_44:\n      mload(0x40)\n      tag_46\n      swap2\n      swap1\n      tag_47\n      jump\t// in\n    tag_46:\n      mload(0x40)\n      dup1\n      swap2\n      sub\n      swap1\n      return\n        /* \"contracts/auction.sol\":1166:1252  function cancelAution() public onlyOwner{... */\n    tag_9:\n      callvalue\n      dup1\n      iszero\n      tag_48\n      jumpi\n      0x00\n      dup1\n      revert\n    tag_48:\n      pop\n      tag_49\n      tag_50\n      jump\t// in\n    tag_49:\n      stop\n        /* \"contracts/auction.sol\":1259:1856  function placeBid() public payable notOwner afterStart beforeEnd {... */\n    tag_10:\n      tag_51\n      tag_52\n      jump\t// in\n    tag_51:\n      stop\n        /* \"contracts/auction.sol\":294:323  uint public highestBindingBid */\n    tag_11:\n      callvalue\n      dup1\n      iszero\n      tag_53\n      jumpi\n      0x00\n      dup1\n      revert\n    tag_53:\n      pop\n      tag_54\n      tag_55\n      jump\t// in\n    tag_54:\n      mload(0x40)\n      tag_56\n      swap2\n      swap1\n      tag_18\n      jump\t// in\n    tag_56:\n      mload(0x40)\n      dup1\n      swap2\n      sub\n      swap1\n      return\n        /* \"contracts/auction.sol\":1862:2868  function finalizeAuction() public{... */\n    tag_12:\n      callvalue\n      dup1\n      iszero\n      tag_57\n      jumpi\n      0x00\n      dup1\n      revert\n    tag_57:\n      pop\n      tag_58\n      tag_59\n      jump\t// in\n    tag_58:\n      stop\n        /* \"contracts/auction.sol\":156:176  uint public endBlock */\n    tag_16:\n      sload(0x02)\n      dup2\n      jump\t// out\n        /* \"contracts/auction.sol\":128:150  uint public startBlock */\n    tag_21:\n      sload(0x01)\n      dup2\n      jump\t// out\n        /* \"contracts/auction.sol\":372:408  mapping(address => uint) public bids */\n    tag_27:\n      mstore(0x20, 0x07)\n      dup1\n      0x00\n      mstore\n      keccak256(0x00, 0x40)\n      0x00\n      swap2\n      pop\n      swap1\n      pop\n      sload\n      dup2\n      jump\t// out\n        /* \"contracts/auction.sol\":262:287  State public auctionState */\n    tag_31:\n      0x04\n      0x00\n      swap1\n      sload\n      swap1\n      0x0100\n      exp\n      swap1\n      div\n      0xff\n      and\n      dup2\n      jump\t// out\n        /* \"contracts/auction.sol\":94:122  address payable public owner */\n    tag_36:\n      0x00\n      dup1\n      sload\n      swap1\n      0x0100\n      exp\n      swap1\n      div\n      0xffffffffffffffffffffffffffffffffffffffff\n      and\n      dup2\n      jump\t// out\n        /* \"contracts/auction.sol\":329:365  address payable public highestBidder */\n    tag_41:\n      0x06\n      0x00\n      swap1\n      sload\n      swap1\n      0x0100\n      exp\n      swap1\n      div\n      0xffffffffffffffffffffffffffffffffffffffff\n      and\n      dup2\n      jump\t// out\n        /* \"contracts/auction.sol\":182:204  string public ipfsHash */\n    tag_45:\n      0x03\n      dup1\n      sload\n      tag_60\n      swap1\n      tag_61\n      jump\t// in\n    tag_60:\n      dup1\n      0x1f\n      add\n      0x20\n      dup1\n      swap2\n      div\n      mul\n      0x20\n      add\n      mload(0x40)\n      swap1\n      dup2\n      add\n      0x40\n      mstore\n      dup1\n      swap3\n      swap2\n      swap1\n      dup2\n      dup2\n      mstore\n      0x20\n      add\n      dup3\n      dup1\n      sload\n      tag_62\n      swap1\n      tag_61\n      jump\t// in\n    tag_62:\n      dup1\n      iszero\n      tag_63\n      jumpi\n      dup1\n      0x1f\n      lt\n      tag_64\n      jumpi\n      0x0100\n      dup1\n      dup4\n      sload\n      div\n      mul\n      dup4\n      mstore\n      swap2\n      0x20\n      add\n      swap2\n      jump(tag_63)\n    tag_64:\n      dup3\n      add\n      swap2\n      swap1\n      0x00\n      mstore\n      keccak256(0x00, 0x20)\n      swap1\n    tag_65:\n      dup2\n      sload\n      dup2\n      mstore\n      swap1\n      0x01\n      add\n      swap1\n      0x20\n      add\n      dup1\n      dup4\n      gt\n      tag_65\n      jumpi\n      dup3\n      swap1\n      sub\n      0x1f\n      and\n      dup3\n      add\n      swap2\n    tag_63:\n      pop\n      pop\n      pop\n      pop\n      pop\n      dup2\n      jump\t// out\n        /* \"contracts/auction.sol\":1166:1252  function cancelAution() public onlyOwner{... */\n    tag_50:\n        /* \"contracts/auction.sol\":976:981  owner */\n      0x00\n      dup1\n      sload\n      swap1\n      0x0100\n      exp\n      swap1\n      div\n      0xffffffffffffffffffffffffffffffffffffffff\n      and\n        /* \"contracts/auction.sol\":962:981  msg.sender == owner */\n      0xffffffffffffffffffffffffffffffffffffffff\n      and\n        /* \"contracts/auction.sol\":962:972  msg.sender */\n      caller\n        /* \"contracts/auction.sol\":962:981  msg.sender == owner */\n      0xffffffffffffffffffffffffffffffffffffffff\n      and\n      eq\n        /* \"contracts/auction.sol\":954:982  require(msg.sender == owner) */\n      tag_67\n      jumpi\n      0x00\n      dup1\n      revert\n    tag_67:\n        /* \"contracts/auction.sol\":1231:1245  State.Canceled */\n      0x03\n        /* \"contracts/auction.sol\":1216:1228  auctionState */\n      0x04\n      0x00\n        /* \"contracts/auction.sol\":1216:1245  auctionState = State.Canceled */\n      0x0100\n      exp\n      dup2\n      sload\n      dup2\n      0xff\n      mul\n      not\n      and\n      swap1\n      dup4\n      0x03\n      dup2\n      gt\n      iszero\n      tag_69\n      jumpi\n      tag_70\n      tag_71\n      jump\t// in\n    tag_70:\n    tag_69:\n      mul\n      or\n      swap1\n      sstore\n      pop\n        /* \"contracts/auction.sol\":1166:1252  function cancelAution() public onlyOwner{... */\n      jump\t// out\n        /* \"contracts/auction.sol\":1259:1856  function placeBid() public payable notOwner afterStart beforeEnd {... */\n    tag_52:\n        /* \"contracts/auction.sol\":717:722  owner */\n      0x00\n      dup1\n      sload\n      swap1\n      0x0100\n      exp\n      swap1\n      div\n      0xffffffffffffffffffffffffffffffffffffffff\n      and\n        /* \"contracts/auction.sol\":703:722  msg.sender != owner */\n      0xffffffffffffffffffffffffffffffffffffffff\n      and\n        /* \"contracts/auction.sol\":703:713  msg.sender */\n      caller\n        /* \"contracts/auction.sol\":703:722  msg.sender != owner */\n      0xffffffffffffffffffffffffffffffffffffffff\n      and\n      sub\n        /* \"contracts/auction.sol\":695:723  require(msg.sender != owner) */\n      tag_73\n      jumpi\n      0x00\n      dup1\n      revert\n    tag_73:\n        /* \"contracts/auction.sol\":802:812  startBlock */\n      sload(0x01)\n        /* \"contracts/auction.sol\":786:798  block.number */\n      number\n        /* \"contracts/auction.sol\":786:812  block.number >= startBlock */\n      lt\n      iszero\n        /* \"contracts/auction.sol\":778:813  require(block.number >= startBlock) */\n      tag_75\n      jumpi\n      0x00\n      dup1\n      revert\n    tag_75:\n        /* \"contracts/auction.sol\":891:899  endBlock */\n      sload(0x02)\n        /* \"contracts/auction.sol\":875:887  block.number */\n      number\n        /* \"contracts/auction.sol\":875:899  block.number <= endBlock */\n      gt\n      iszero\n        /* \"contracts/auction.sol\":867:900  require(block.number <= endBlock) */\n      tag_77\n      jumpi\n      0x00\n      dup1\n      revert\n    tag_77:\n        /* \"contracts/auction.sol\":1358:1371  State.Running */\n      0x01\n        /* \"contracts/auction.sol\":1342:1371  auctionState == State.Running */\n      0x03\n      dup2\n      gt\n      iszero\n      tag_79\n      jumpi\n      tag_80\n      tag_71\n      jump\t// in\n    tag_80:\n    tag_79:\n        /* \"contracts/auction.sol\":1342:1354  auctionState */\n      0x04\n      0x00\n      swap1\n      sload\n      swap1\n      0x0100\n      exp\n      swap1\n      div\n      0xff\n      and\n        /* \"contracts/auction.sol\":1342:1371  auctionState == State.Running */\n      0x03\n      dup2\n      gt\n      iszero\n      tag_81\n      jumpi\n      tag_82\n      tag_71\n      jump\t// in\n    tag_82:\n    tag_81:\n      eq\n        /* \"contracts/auction.sol\":1334:1372  require(auctionState == State.Running) */\n      tag_83\n      jumpi\n      0x00\n      dup1\n      revert\n    tag_83:\n        /* \"contracts/auction.sol\":1403:1406  100 */\n      0x64\n        /* \"contracts/auction.sol\":1390:1399  msg.value */\n      callvalue\n        /* \"contracts/auction.sol\":1390:1406  msg.value >= 100 */\n      lt\n      iszero\n        /* \"contracts/auction.sol\":1382:1407  require(msg.value >= 100) */\n      tag_84\n      jumpi\n      0x00\n      dup1\n      revert\n    tag_84:\n        /* \"contracts/auction.sol\":1418:1433  uint currentBid */\n      0x00\n        /* \"contracts/auction.sol\":1455:1464  msg.value */\n      callvalue\n        /* \"contracts/auction.sol\":1436:1440  bids */\n      0x07\n        /* \"contracts/auction.sol\":1436:1452  bids[msg.sender] */\n      0x00\n        /* \"contracts/auction.sol\":1441:1451  msg.sender */\n      caller\n        /* \"contracts/auction.sol\":1436:1452  bids[msg.sender] */\n      0xffffffffffffffffffffffffffffffffffffffff\n      and\n      0xffffffffffffffffffffffffffffffffffffffff\n      and\n      dup2\n      mstore\n      0x20\n      add\n      swap1\n      dup2\n      mstore\n      0x20\n      add\n      0x00\n      keccak256\n      sload\n        /* \"contracts/auction.sol\":1436:1464  bids[msg.sender] + msg.value */\n      tag_85\n      swap2\n      swap1\n      tag_86\n      jump\t// in\n    tag_85:\n        /* \"contracts/auction.sol\":1418:1464  uint currentBid = bids[msg.sender] + msg.value */\n      swap1\n      pop\n        /* \"contracts/auction.sol\":1495:1512  highestBindingBid */\n      sload(0x05)\n        /* \"contracts/auction.sol\":1482:1492  currentBid */\n      dup2\n        /* \"contracts/auction.sol\":1482:1512  currentBid > highestBindingBid */\n      gt\n        /* \"contracts/auction.sol\":1474:1513  require(currentBid > highestBindingBid) */\n      tag_87\n      jumpi\n      0x00\n      dup1\n      revert\n    tag_87:\n        /* \"contracts/auction.sol\":1543:1553  currentBid */\n      dup1\n        /* \"contracts/auction.sol\":1524:1528  bids */\n      0x07\n        /* \"contracts/auction.sol\":1524:1540  bids[msg.sender] */\n      0x00\n        /* \"contracts/auction.sol\":1529:1539  msg.sender */\n      caller\n        /* \"contracts/auction.sol\":1524:1540  bids[msg.sender] */\n      0xffffffffffffffffffffffffffffffffffffffff\n      and\n      0xffffffffffffffffffffffffffffffffffffffff\n      and\n      dup2\n      mstore\n      0x20\n      add\n      swap1\n      dup2\n      mstore\n      0x20\n      add\n      0x00\n      keccak256\n        /* \"contracts/auction.sol\":1524:1553  bids[msg.sender] = currentBid */\n      dup2\n      swap1\n      sstore\n      pop\n        /* \"contracts/auction.sol\":1581:1585  bids */\n      0x07\n        /* \"contracts/auction.sol\":1581:1600  bids[highestBidder] */\n      0x00\n        /* \"contracts/auction.sol\":1586:1599  highestBidder */\n      0x06\n      0x00\n      swap1\n      sload\n      swap1\n      0x0100\n      exp\n      swap1\n      div\n      0xffffffffffffffffffffffffffffffffffffffff\n      and\n        /* \"contracts/auction.sol\":1581:1600  bids[highestBidder] */\n      0xffffffffffffffffffffffffffffffffffffffff\n      and\n      0xffffffffffffffffffffffffffffffffffffffff\n      and\n      dup2\n      mstore\n      0x20\n      add\n      swap1\n      dup2\n      mstore\n      0x20\n      add\n      0x00\n      keccak256\n      sload\n        /* \"contracts/auction.sol\":1567:1577  currentBid */\n      dup2\n        /* \"contracts/auction.sol\":1567:1600  currentBid <= bids[highestBidder] */\n      gt\n        /* \"contracts/auction.sol\":1564:1850  if(currentBid <= bids[highestBidder]){... */\n      tag_88\n      jumpi\n        /* \"contracts/auction.sol\":1635:1687  min(currentBid + bidIncreament, bids[highestBidder]) */\n      tag_89\n        /* \"contracts/auction.sol\":1652:1665  bidIncreament */\n      sload(0x08)\n        /* \"contracts/auction.sol\":1639:1649  currentBid */\n      dup3\n        /* \"contracts/auction.sol\":1639:1665  currentBid + bidIncreament */\n      tag_90\n      swap2\n      swap1\n      tag_86\n      jump\t// in\n    tag_90:\n        /* \"contracts/auction.sol\":1667:1671  bids */\n      0x07\n        /* \"contracts/auction.sol\":1667:1686  bids[highestBidder] */\n      0x00\n        /* \"contracts/auction.sol\":1672:1685  highestBidder */\n      0x06\n      0x00\n      swap1\n      sload\n      swap1\n      0x0100\n      exp\n      swap1\n      div\n      0xffffffffffffffffffffffffffffffffffffffff\n      and\n        /* \"contracts/auction.sol\":1667:1686  bids[highestBidder] */\n      0xffffffffffffffffffffffffffffffffffffffff\n      and\n      0xffffffffffffffffffffffffffffffffffffffff\n      and\n      dup2\n      mstore\n      0x20\n      add\n      swap1\n      dup2\n      mstore\n      0x20\n      add\n      0x00\n      keccak256\n      sload\n        /* \"contracts/auction.sol\":1635:1638  min */\n      tag_91\n        /* \"contracts/auction.sol\":1635:1687  min(currentBid + bidIncreament, bids[highestBidder]) */\n      jump\t// in\n    tag_89:\n        /* \"contracts/auction.sol\":1615:1632  highestBindingBid */\n      0x05\n        /* \"contracts/auction.sol\":1615:1687  highestBindingBid = min(currentBid + bidIncreament, bids[highestBidder]) */\n      dup2\n      swap1\n      sstore\n      pop\n        /* \"contracts/auction.sol\":1564:1850  if(currentBid <= bids[highestBidder]){... */\n      jump(tag_92)\n    tag_88:\n        /* \"contracts/auction.sol\":1738:1790  min(currentBid, bids[highestBidder] + bidIncreament) */\n      tag_93\n        /* \"contracts/auction.sol\":1742:1752  currentBid */\n      dup2\n        /* \"contracts/auction.sol\":1776:1789  bidIncreament */\n      sload(0x08)\n        /* \"contracts/auction.sol\":1754:1758  bids */\n      0x07\n        /* \"contracts/auction.sol\":1754:1773  bids[highestBidder] */\n      0x00\n        /* \"contracts/auction.sol\":1759:1772  highestBidder */\n      0x06\n      0x00\n      swap1\n      sload\n      swap1\n      0x0100\n      exp\n      swap1\n      div\n      0xffffffffffffffffffffffffffffffffffffffff\n      and\n        /* \"contracts/auction.sol\":1754:1773  bids[highestBidder] */\n      0xffffffffffffffffffffffffffffffffffffffff\n      and\n      0xffffffffffffffffffffffffffffffffffffffff\n      and\n      dup2\n      mstore\n      0x20\n      add\n      swap1\n      dup2\n      mstore\n      0x20\n      add\n      0x00\n      keccak256\n      sload\n        /* \"contracts/auction.sol\":1754:1789  bids[highestBidder] + bidIncreament */\n      tag_94\n      swap2\n      swap1\n      tag_86\n      jump\t// in\n    tag_94:\n        /* \"contracts/auction.sol\":1738:1741  min */\n      tag_91\n        /* \"contracts/auction.sol\":1738:1790  min(currentBid, bids[highestBidder] + bidIncreament) */\n      jump\t// in\n    tag_93:\n        /* \"contracts/auction.sol\":1718:1735  highestBindingBid */\n      0x05\n        /* \"contracts/auction.sol\":1718:1790  highestBindingBid = min(currentBid, bids[highestBidder] + bidIncreament) */\n      dup2\n      swap1\n      sstore\n      pop\n        /* \"contracts/auction.sol\":1828:1838  msg.sender */\n      caller\n        /* \"contracts/auction.sol\":1804:1817  highestBidder */\n      0x06\n      0x00\n        /* \"contracts/auction.sol\":1804:1839  highestBidder = payable(msg.sender) */\n      0x0100\n      exp\n      dup2\n      sload\n      dup2\n      0xffffffffffffffffffffffffffffffffffffffff\n      mul\n      not\n      and\n      swap1\n      dup4\n      0xffffffffffffffffffffffffffffffffffffffff\n      and\n      mul\n      or\n      swap1\n      sstore\n      pop\n        /* \"contracts/auction.sol\":1564:1850  if(currentBid <= bids[highestBidder]){... */\n    tag_92:\n        /* \"contracts/auction.sol\":1324:1856  {... */\n      pop\n        /* \"contracts/auction.sol\":1259:1856  function placeBid() public payable notOwner afterStart beforeEnd {... */\n      jump\t// out\n        /* \"contracts/auction.sol\":294:323  uint public highestBindingBid */\n    tag_55:\n      sload(0x05)\n      dup2\n      jump\t// out\n        /* \"contracts/auction.sol\":1862:2868  function finalizeAuction() public{... */\n    tag_59:\n        /* \"contracts/auction.sol\":1929:1943  State.Canceled */\n      0x03\n        /* \"contracts/auction.sol\":1913:1943  auctionState == State.Canceled */\n      dup1\n      dup2\n      gt\n      iszero\n      tag_96\n      jumpi\n      tag_97\n      tag_71\n      jump\t// in\n    tag_97:\n    tag_96:\n        /* \"contracts/auction.sol\":1913:1925  auctionState */\n      0x04\n      0x00\n      swap1\n      sload\n      swap1\n      0x0100\n      exp\n      swap1\n      div\n      0xff\n      and\n        /* \"contracts/auction.sol\":1913:1943  auctionState == State.Canceled */\n      0x03\n      dup2\n      gt\n      iszero\n      tag_98\n      jumpi\n      tag_99\n      tag_71\n      jump\t// in\n    tag_99:\n    tag_98:\n      eq\n        /* \"contracts/auction.sol\":1905:1944  require(auctionState == State.Canceled) */\n      tag_100\n      jumpi\n      0x00\n      dup1\n      revert\n    tag_100:\n        /* \"contracts/auction.sol\":1976:1981  owner */\n      0x00\n      dup1\n      sload\n      swap1\n      0x0100\n      exp\n      swap1\n      div\n      0xffffffffffffffffffffffffffffffffffffffff\n      and\n        /* \"contracts/auction.sol\":1962:1981  msg.sender == owner */\n      0xffffffffffffffffffffffffffffffffffffffff\n      and\n        /* \"contracts/auction.sol\":1962:1972  msg.sender */\n      caller\n        /* \"contracts/auction.sol\":1962:1981  msg.sender == owner */\n      0xffffffffffffffffffffffffffffffffffffffff\n      and\n      eq\n        /* \"contracts/auction.sol\":1962:2005  msg.sender == owner || bids[msg.sender] > 0 */\n      dup1\n      tag_101\n      jumpi\n      pop\n        /* \"contracts/auction.sol\":2004:2005  0 */\n      0x00\n        /* \"contracts/auction.sol\":1985:1989  bids */\n      0x07\n        /* \"contracts/auction.sol\":1985:2001  bids[msg.sender] */\n      0x00\n        /* \"contracts/auction.sol\":1990:2000  msg.sender */\n      caller\n        /* \"contracts/auction.sol\":1985:2001  bids[msg.sender] */\n      0xffffffffffffffffffffffffffffffffffffffff\n      and\n      0xffffffffffffffffffffffffffffffffffffffff\n      and\n      dup2\n      mstore\n      0x20\n      add\n      swap1\n      dup2\n      mstore\n      0x20\n      add\n      0x00\n      keccak256\n      sload\n        /* \"contracts/auction.sol\":1985:2005  bids[msg.sender] > 0 */\n      gt\n        /* \"contracts/auction.sol\":1962:2005  msg.sender == owner || bids[msg.sender] > 0 */\n    tag_101:\n        /* \"contracts/auction.sol\":1954:2006  require(msg.sender == owner || bids[msg.sender] > 0) */\n      tag_102\n      jumpi\n      0x00\n      dup1\n      revert\n    tag_102:\n        /* \"contracts/auction.sol\":2017:2042  address payable recipient */\n      0x00\n        /* \"contracts/auction.sol\":2052:2062  uint value */\n      dup1\n        /* \"contracts/auction.sol\":2092:2106  State.Canceled */\n      0x03\n        /* \"contracts/auction.sol\":2076:2106  auctionState == State.Canceled */\n      dup1\n      dup2\n      gt\n      iszero\n      tag_103\n      jumpi\n      tag_104\n      tag_71\n      jump\t// in\n    tag_104:\n    tag_103:\n        /* \"contracts/auction.sol\":2076:2088  auctionState */\n      0x04\n      0x00\n      swap1\n      sload\n      swap1\n      0x0100\n      exp\n      swap1\n      div\n      0xff\n      and\n        /* \"contracts/auction.sol\":2076:2106  auctionState == State.Canceled */\n      0x03\n      dup2\n      gt\n      iszero\n      tag_105\n      jumpi\n      tag_106\n      tag_71\n      jump\t// in\n    tag_106:\n    tag_105:\n      sub\n        /* \"contracts/auction.sol\":2073:2826  if(auctionState == State.Canceled){ // auction was canceled.... */\n      tag_107\n      jumpi\n        /* \"contracts/auction.sol\":2166:2176  msg.sender */\n      caller\n        /* \"contracts/auction.sol\":2146:2177  recipient = payable(msg.sender) */\n      swap2\n      pop\n        /* \"contracts/auction.sol\":2199:2203  bids */\n      0x07\n        /* \"contracts/auction.sol\":2199:2215  bids[msg.sender] */\n      0x00\n        /* \"contracts/auction.sol\":2204:2214  msg.sender */\n      caller\n        /* \"contracts/auction.sol\":2199:2215  bids[msg.sender] */\n      0xffffffffffffffffffffffffffffffffffffffff\n      and\n      0xffffffffffffffffffffffffffffffffffffffff\n      and\n      dup2\n      mstore\n      0x20\n      add\n      swap1\n      dup2\n      mstore\n      0x20\n      add\n      0x00\n      keccak256\n      sload\n        /* \"contracts/auction.sol\":2191:2215  value = bids[msg.sender] */\n      swap1\n      pop\n        /* \"contracts/auction.sol\":2073:2826  if(auctionState == State.Canceled){ // auction was canceled.... */\n      jump(tag_108)\n    tag_107:\n        /* \"contracts/auction.sol\":2295:2300  owner */\n      0x00\n      dup1\n      sload\n      swap1\n      0x0100\n      exp\n      swap1\n      div\n      0xffffffffffffffffffffffffffffffffffffffff\n      and\n        /* \"contracts/auction.sol\":2281:2300  msg.sender == owner */\n      0xffffffffffffffffffffffffffffffffffffffff\n      and\n        /* \"contracts/auction.sol\":2281:2291  msg.sender */\n      caller\n        /* \"contracts/auction.sol\":2281:2300  msg.sender == owner */\n      0xffffffffffffffffffffffffffffffffffffffff\n      and\n      sub\n        /* \"contracts/auction.sol\":2278:2816  if(msg.sender == owner){ // this is the onwer... */\n      tag_109\n      jumpi\n        /* \"contracts/auction.sol\":2352:2357  owner */\n      0x00\n      dup1\n      sload\n      swap1\n      0x0100\n      exp\n      swap1\n      div\n      0xffffffffffffffffffffffffffffffffffffffff\n      and\n        /* \"contracts/auction.sol\":2340:2357  recipient = owner */\n      swap2\n      pop\n        /* \"contracts/auction.sol\":2383:2400  highestBindingBid */\n      sload(0x05)\n        /* \"contracts/auction.sol\":2375:2400  value = highestBindingBid */\n      swap1\n      pop\n        /* \"contracts/auction.sol\":2278:2816  if(msg.sender == owner){ // this is the onwer... */\n      jump(tag_110)\n    tag_109:\n        /* \"contracts/auction.sol\":2476:2489  highestBidder */\n      0x06\n      0x00\n      swap1\n      sload\n      swap1\n      0x0100\n      exp\n      swap1\n      div\n      0xffffffffffffffffffffffffffffffffffffffff\n      and\n        /* \"contracts/auction.sol\":2462:2489  msg.sender == highestBidder */\n      0xffffffffffffffffffffffffffffffffffffffff\n      and\n        /* \"contracts/auction.sol\":2462:2472  msg.sender */\n      caller\n        /* \"contracts/auction.sol\":2462:2489  msg.sender == highestBidder */\n      0xffffffffffffffffffffffffffffffffffffffff\n      and\n      sub\n        /* \"contracts/auction.sol\":2459:2801  if(msg.sender == highestBidder){... */\n      tag_111\n      jumpi\n        /* \"contracts/auction.sol\":2524:2537  highestBidder */\n      0x06\n      0x00\n      swap1\n      sload\n      swap1\n      0x0100\n      exp\n      swap1\n      div\n      0xffffffffffffffffffffffffffffffffffffffff\n      and\n        /* \"contracts/auction.sol\":2512:2537  recipient = highestBidder */\n      swap2\n      pop\n        /* \"contracts/auction.sol\":2589:2606  highestBindingBid */\n      sload(0x05)\n        /* \"contracts/auction.sol\":2567:2571  bids */\n      0x07\n        /* \"contracts/auction.sol\":2567:2586  bids[highestBidder] */\n      0x00\n        /* \"contracts/auction.sol\":2572:2585  highestBidder */\n      0x06\n      0x00\n      swap1\n      sload\n      swap1\n      0x0100\n      exp\n      swap1\n      div\n      0xffffffffffffffffffffffffffffffffffffffff\n      and\n        /* \"contracts/auction.sol\":2567:2586  bids[highestBidder] */\n      0xffffffffffffffffffffffffffffffffffffffff\n      and\n      0xffffffffffffffffffffffffffffffffffffffff\n      and\n      dup2\n      mstore\n      0x20\n      add\n      swap1\n      dup2\n      mstore\n      0x20\n      add\n      0x00\n      keccak256\n      sload\n        /* \"contracts/auction.sol\":2567:2606  bids[highestBidder] - highestBindingBid */\n      tag_112\n      swap2\n      swap1\n      tag_113\n      jump\t// in\n    tag_112:\n        /* \"contracts/auction.sol\":2559:2606  value = bids[highestBidder] - highestBindingBid */\n      swap1\n      pop\n        /* \"contracts/auction.sol\":2459:2801  if(msg.sender == highestBidder){... */\n      jump(tag_114)\n    tag_111:\n        /* \"contracts/auction.sol\":2725:2735  msg.sender */\n      caller\n        /* \"contracts/auction.sol\":2705:2736  recipient = payable(msg.sender) */\n      swap2\n      pop\n        /* \"contracts/auction.sol\":2766:2770  bids */\n      0x07\n        /* \"contracts/auction.sol\":2766:2782  bids[msg.sender] */\n      0x00\n        /* \"contracts/auction.sol\":2771:2781  msg.sender */\n      caller\n        /* \"contracts/auction.sol\":2766:2782  bids[msg.sender] */\n      0xffffffffffffffffffffffffffffffffffffffff\n      and\n      0xffffffffffffffffffffffffffffffffffffffff\n      and\n      dup2\n      mstore\n      0x20\n      add\n      swap1\n      dup2\n      mstore\n      0x20\n      add\n      0x00\n      keccak256\n      sload\n        /* \"contracts/auction.sol\":2758:2782  value = bids[msg.sender] */\n      swap1\n      pop\n        /* \"contracts/auction.sol\":2459:2801  if(msg.sender == highestBidder){... */\n    tag_114:\n        /* \"contracts/auction.sol\":2278:2816  if(msg.sender == owner){ // this is the onwer... */\n    tag_110:\n        /* \"contracts/auction.sol\":2073:2826  if(auctionState == State.Canceled){ // auction was canceled.... */\n    tag_108:\n        /* \"contracts/auction.sol\":2836:2845  recipient */\n      dup2\n        /* \"contracts/auction.sol\":2836:2854  recipient.transfer */\n      0xffffffffffffffffffffffffffffffffffffffff\n      and\n        /* \"contracts/auction.sol\":2836:2861  recipient.transfer(value) */\n      0x08fc\n        /* \"contracts/auction.sol\":2855:2860  value */\n      dup3\n        /* \"contracts/auction.sol\":2836:2861  recipient.transfer(value) */\n      swap1\n      dup2\n      iszero\n      mul\n      swap1\n      mload(0x40)\n      0x00\n      mload(0x40)\n      dup1\n      dup4\n      sub\n      dup2\n      dup6\n      dup9\n      dup9\n      call\n      swap4\n      pop\n      pop\n      pop\n      pop\n      iszero\n      dup1\n      iszero\n      tag_116\n      jumpi\n      returndatasize\n      0x00\n      dup1\n      returndatacopy\n      revert(0x00, returndatasize)\n    tag_116:\n      pop\n        /* \"contracts/auction.sol\":1895:2868  {... */\n      pop\n      pop\n        /* \"contracts/auction.sol\":1862:2868  function finalizeAuction() public{... */\n      jump\t// out\n        /* \"contracts/auction.sol\":1006:1160  function min(uint a, uint b) pure internal returns(uint){... */\n    tag_91:\n        /* \"contracts/auction.sol\":1057:1061  uint */\n      0x00\n        /* \"contracts/auction.sol\":1080:1081  b */\n      dup2\n        /* \"contracts/auction.sol\":1075:1076  a */\n      dup4\n        /* \"contracts/auction.sol\":1075:1081  a <= b */\n      gt\n        /* \"contracts/auction.sol\":1072:1154  if(a <= b){... */\n      tag_118\n      jumpi\n        /* \"contracts/auction.sol\":1103:1104  a */\n      dup3\n        /* \"contracts/auction.sol\":1096:1104  return a */\n      swap1\n      pop\n      jump(tag_117)\n        /* \"contracts/auction.sol\":1072:1154  if(a <= b){... */\n    tag_118:\n        /* \"contracts/auction.sol\":1142:1143  b */\n      dup2\n        /* \"contracts/auction.sol\":1135:1143  return b */\n      swap1\n      pop\n        /* \"contracts/auction.sol\":1006:1160  function min(uint a, uint b) pure internal returns(uint){... */\n    tag_117:\n      swap3\n      swap2\n      pop\n      pop\n      jump\t// out\n        /* \"#utility.yul\":7:84   */\n    tag_120:\n        /* \"#utility.yul\":44:51   */\n      0x00\n        /* \"#utility.yul\":73:78   */\n      dup2\n        /* \"#utility.yul\":62:78   */\n      swap1\n      pop\n        /* \"#utility.yul\":7:84   */\n      swap2\n      swap1\n      pop\n      jump\t// out\n        /* \"#utility.yul\":90:208   */\n    tag_121:\n        /* \"#utility.yul\":177:201   */\n      tag_145\n        /* \"#utility.yul\":195:200   */\n      dup2\n        /* \"#utility.yul\":177:201   */\n      tag_120\n      jump\t// in\n    tag_145:\n        /* \"#utility.yul\":172:175   */\n      dup3\n        /* \"#utility.yul\":165:202   */\n      mstore\n        /* \"#utility.yul\":90:208   */\n      pop\n      pop\n      jump\t// out\n        /* \"#utility.yul\":214:436   */\n    tag_18:\n        /* \"#utility.yul\":307:311   */\n      0x00\n        /* \"#utility.yul\":345:347   */\n      0x20\n        /* \"#utility.yul\":334:343   */\n      dup3\n        /* \"#utility.yul\":330:348   */\n      add\n        /* \"#utility.yul\":322:348   */\n      swap1\n      pop\n        /* \"#utility.yul\":358:429   */\n      tag_147\n        /* \"#utility.yul\":426:427   */\n      0x00\n        /* \"#utility.yul\":415:424   */\n      dup4\n        /* \"#utility.yul\":411:428   */\n      add\n        /* \"#utility.yul\":402:408   */\n      dup5\n        /* \"#utility.yul\":358:429   */\n      tag_121\n      jump\t// in\n    tag_147:\n        /* \"#utility.yul\":214:436   */\n      swap3\n      swap2\n      pop\n      pop\n      jump\t// out\n        /* \"#utility.yul\":523:640   */\n    tag_123:\n        /* \"#utility.yul\":632:633   */\n      0x00\n        /* \"#utility.yul\":629:630   */\n      dup1\n        /* \"#utility.yul\":622:634   */\n      revert\n        /* \"#utility.yul\":769:895   */\n    tag_125:\n        /* \"#utility.yul\":806:813   */\n      0x00\n        /* \"#utility.yul\":846:888   */\n      0xffffffffffffffffffffffffffffffffffffffff\n        /* \"#utility.yul\":839:844   */\n      dup3\n        /* \"#utility.yul\":835:889   */\n      and\n        /* \"#utility.yul\":824:889   */\n      swap1\n      pop\n        /* \"#utility.yul\":769:895   */\n      swap2\n      swap1\n      pop\n      jump\t// out\n        /* \"#utility.yul\":901:997   */\n    tag_126:\n        /* \"#utility.yul\":938:945   */\n      0x00\n        /* \"#utility.yul\":967:991   */\n      tag_153\n        /* \"#utility.yul\":985:990   */\n      dup3\n        /* \"#utility.yul\":967:991   */\n      tag_125\n      jump\t// in\n    tag_153:\n        /* \"#utility.yul\":956:991   */\n      swap1\n      pop\n        /* \"#utility.yul\":901:997   */\n      swap2\n      swap1\n      pop\n      jump\t// out\n        /* \"#utility.yul\":1003:1125   */\n    tag_127:\n        /* \"#utility.yul\":1076:1100   */\n      tag_155\n        /* \"#utility.yul\":1094:1099   */\n      dup2\n        /* \"#utility.yul\":1076:1100   */\n      tag_126\n      jump\t// in\n    tag_155:\n        /* \"#utility.yul\":1069:1074   */\n      dup2\n        /* \"#utility.yul\":1066:1101   */\n      eq\n        /* \"#utility.yul\":1056:1119   */\n      tag_156\n      jumpi\n        /* \"#utility.yul\":1115:1116   */\n      0x00\n        /* \"#utility.yul\":1112:1113   */\n      dup1\n        /* \"#utility.yul\":1105:1117   */\n      revert\n        /* \"#utility.yul\":1056:1119   */\n    tag_156:\n        /* \"#utility.yul\":1003:1125   */\n      pop\n      jump\t// out\n        /* \"#utility.yul\":1131:1270   */\n    tag_128:\n        /* \"#utility.yul\":1177:1182   */\n      0x00\n        /* \"#utility.yul\":1215:1221   */\n      dup2\n        /* \"#utility.yul\":1202:1222   */\n      calldataload\n        /* \"#utility.yul\":1193:1222   */\n      swap1\n      pop\n        /* \"#utility.yul\":1231:1264   */\n      tag_158\n        /* \"#utility.yul\":1258:1263   */\n      dup2\n        /* \"#utility.yul\":1231:1264   */\n      tag_127\n      jump\t// in\n    tag_158:\n        /* \"#utility.yul\":1131:1270   */\n      swap3\n      swap2\n      pop\n      pop\n      jump\t// out\n        /* \"#utility.yul\":1276:1605   */\n    tag_26:\n        /* \"#utility.yul\":1335:1341   */\n      0x00\n        /* \"#utility.yul\":1384:1386   */\n      0x20\n        /* \"#utility.yul\":1372:1381   */\n      dup3\n        /* \"#utility.yul\":1363:1370   */\n      dup5\n        /* \"#utility.yul\":1359:1382   */\n      sub\n        /* \"#utility.yul\":1355:1387   */\n      slt\n        /* \"#utility.yul\":1352:1471   */\n      iszero\n      tag_160\n      jumpi\n        /* \"#utility.yul\":1390:1469   */\n      tag_161\n      tag_123\n      jump\t// in\n    tag_161:\n        /* \"#utility.yul\":1352:1471   */\n    tag_160:\n        /* \"#utility.yul\":1510:1511   */\n      0x00\n        /* \"#utility.yul\":1535:1588   */\n      tag_162\n        /* \"#utility.yul\":1580:1587   */\n      dup5\n        /* \"#utility.yul\":1571:1577   */\n      dup3\n        /* \"#utility.yul\":1560:1569   */\n      dup6\n        /* \"#utility.yul\":1556:1578   */\n      add\n        /* \"#utility.yul\":1535:1588   */\n      tag_128\n      jump\t// in\n    tag_162:\n        /* \"#utility.yul\":1525:1588   */\n      swap2\n      pop\n        /* \"#utility.yul\":1481:1598   */\n      pop\n        /* \"#utility.yul\":1276:1605   */\n      swap3\n      swap2\n      pop\n      pop\n      jump\t// out\n        /* \"#utility.yul\":1611:1791   */\n    tag_71:\n        /* \"#utility.yul\":1659:1736   */\n      0x4e487b7100000000000000000000000000000000000000000000000000000000\n        /* \"#utility.yul\":1656:1657   */\n      0x00\n        /* \"#utility.yul\":1649:1737   */\n      mstore\n        /* \"#utility.yul\":1756:1760   */\n      0x21\n        /* \"#utility.yul\":1753:1754   */\n      0x04\n        /* \"#utility.yul\":1746:1761   */\n      mstore\n        /* \"#utility.yul\":1780:1784   */\n      0x24\n        /* \"#utility.yul\":1777:1778   */\n      0x00\n        /* \"#utility.yul\":1770:1785   */\n      revert\n        /* \"#utility.yul\":1797:1910   */\n    tag_129:\n        /* \"#utility.yul\":1878:1879   */\n      0x04\n        /* \"#utility.yul\":1871:1876   */\n      dup2\n        /* \"#utility.yul\":1868:1880   */\n      lt\n        /* \"#utility.yul\":1858:1904   */\n      tag_165\n      jumpi\n        /* \"#utility.yul\":1884:1902   */\n      tag_166\n      tag_71\n      jump\t// in\n    tag_166:\n        /* \"#utility.yul\":1858:1904   */\n    tag_165:\n        /* \"#utility.yul\":1797:1910   */\n      pop\n      jump\t// out\n        /* \"#utility.yul\":1916:2043   */\n    tag_130:\n        /* \"#utility.yul\":1961:1968   */\n      0x00\n        /* \"#utility.yul\":1990:1995   */\n      dup2\n        /* \"#utility.yul\":1979:1995   */\n      swap1\n      pop\n        /* \"#utility.yul\":1996:2037   */\n      tag_168\n        /* \"#utility.yul\":2031:2036   */\n      dup3\n        /* \"#utility.yul\":1996:2037   */\n      tag_129\n      jump\t// in\n    tag_168:\n        /* \"#utility.yul\":1916:2043   */\n      swap2\n      swap1\n      pop\n      jump\t// out\n        /* \"#utility.yul\":2049:2176   */\n    tag_131:\n        /* \"#utility.yul\":2105:2114   */\n      0x00\n        /* \"#utility.yul\":2138:2170   */\n      tag_170\n        /* \"#utility.yul\":2164:2169   */\n      dup3\n        /* \"#utility.yul\":2138:2170   */\n      tag_130\n      jump\t// in\n    tag_170:\n        /* \"#utility.yul\":2125:2170   */\n      swap1\n      pop\n        /* \"#utility.yul\":2049:2176   */\n      swap2\n      swap1\n      pop\n      jump\t// out\n        /* \"#utility.yul\":2182:2325   */\n    tag_132:\n        /* \"#utility.yul\":2275:2318   */\n      tag_172\n        /* \"#utility.yul\":2312:2317   */\n      dup2\n        /* \"#utility.yul\":2275:2318   */\n      tag_131\n      jump\t// in\n    tag_172:\n        /* \"#utility.yul\":2270:2273   */\n      dup3\n        /* \"#utility.yul\":2263:2319   */\n      mstore\n        /* \"#utility.yul\":2182:2325   */\n      pop\n      pop\n      jump\t// out\n        /* \"#utility.yul\":2331:2565   */\n    tag_33:\n        /* \"#utility.yul\":2430:2434   */\n      0x00\n        /* \"#utility.yul\":2468:2470   */\n      0x20\n        /* \"#utility.yul\":2457:2466   */\n      dup3\n        /* \"#utility.yul\":2453:2471   */\n      add\n        /* \"#utility.yul\":2445:2471   */\n      swap1\n      pop\n        /* \"#utility.yul\":2481:2558   */\n      tag_174\n        /* \"#utility.yul\":2555:2556   */\n      0x00\n        /* \"#utility.yul\":2544:2553   */\n      dup4\n        /* \"#utility.yul\":2540:2557   */\n      add\n        /* \"#utility.yul\":2531:2537   */\n      dup5\n        /* \"#utility.yul\":2481:2558   */\n      tag_132\n      jump\t// in\n    tag_174:\n        /* \"#utility.yul\":2331:2565   */\n      swap3\n      swap2\n      pop\n      pop\n      jump\t// out\n        /* \"#utility.yul\":2571:2675   */\n    tag_133:\n        /* \"#utility.yul\":2616:2623   */\n      0x00\n        /* \"#utility.yul\":2645:2669   */\n      tag_176\n        /* \"#utility.yul\":2663:2668   */\n      dup3\n        /* \"#utility.yul\":2645:2669   */\n      tag_125\n      jump\t// in\n    tag_176:\n        /* \"#utility.yul\":2634:2669   */\n      swap1\n      pop\n        /* \"#utility.yul\":2571:2675   */\n      swap2\n      swap1\n      pop\n      jump\t// out\n        /* \"#utility.yul\":2681:2823   */\n    tag_134:\n        /* \"#utility.yul\":2784:2816   */\n      tag_178\n        /* \"#utility.yul\":2810:2815   */\n      dup2\n        /* \"#utility.yul\":2784:2816   */\n      tag_133\n      jump\t// in\n    tag_178:\n        /* \"#utility.yul\":2779:2782   */\n      dup3\n        /* \"#utility.yul\":2772:2817   */\n      mstore\n        /* \"#utility.yul\":2681:2823   */\n      pop\n      pop\n      jump\t// out\n        /* \"#utility.yul\":2829:3083   */\n    tag_38:\n        /* \"#utility.yul\":2938:2942   */\n      0x00\n        /* \"#utility.yul\":2976:2978   */\n      0x20\n        /* \"#utility.yul\":2965:2974   */\n      dup3\n        /* \"#utility.yul\":2961:2979   */\n      add\n        /* \"#utility.yul\":2953:2979   */\n      swap1\n      pop\n        /* \"#utility.yul\":2989:3076   */\n      tag_180\n        /* \"#utility.yul\":3073:3074   */\n      0x00\n        /* \"#utility.yul\":3062:3071   */\n      dup4\n        /* \"#utility.yul\":3058:3075   */\n      add\n        /* \"#utility.yul\":3049:3055   */\n      dup5\n        /* \"#utility.yul\":2989:3076   */\n      tag_134\n      jump\t// in\n    tag_180:\n        /* \"#utility.yul\":2829:3083   */\n      swap3\n      swap2\n      pop\n      pop\n      jump\t// out\n        /* \"#utility.yul\":3089:3188   */\n    tag_135:\n        /* \"#utility.yul\":3141:3147   */\n      0x00\n        /* \"#utility.yul\":3175:3180   */\n      dup2\n        /* \"#utility.yul\":3169:3181   */\n      mload\n        /* \"#utility.yul\":3159:3181   */\n      swap1\n      pop\n        /* \"#utility.yul\":3089:3188   */\n      swap2\n      swap1\n      pop\n      jump\t// out\n        /* \"#utility.yul\":3194:3363   */\n    tag_136:\n        /* \"#utility.yul\":3278:3289   */\n      0x00\n        /* \"#utility.yul\":3312:3318   */\n      dup3\n        /* \"#utility.yul\":3307:3310   */\n      dup3\n        /* \"#utility.yul\":3300:3319   */\n      mstore\n        /* \"#utility.yul\":3352:3356   */\n      0x20\n        /* \"#utility.yul\":3347:3350   */\n      dup3\n        /* \"#utility.yul\":3343:3357   */\n      add\n        /* \"#utility.yul\":3328:3357   */\n      swap1\n      pop\n        /* \"#utility.yul\":3194:3363   */\n      swap3\n      swap2\n      pop\n      pop\n      jump\t// out\n        /* \"#utility.yul\":3369:3508   */\n    tag_137:\n        /* \"#utility.yul\":3458:3464   */\n      dup3\n        /* \"#utility.yul\":3453:3456   */\n      dup2\n        /* \"#utility.yul\":3448:3451   */\n      dup4\n        /* \"#utility.yul\":3442:3465   */\n      mcopy\n        /* \"#utility.yul\":3499:3500   */\n      0x00\n        /* \"#utility.yul\":3490:3496   */\n      dup4\n        /* \"#utility.yul\":3485:3488   */\n      dup4\n        /* \"#utility.yul\":3481:3497   */\n      add\n        /* \"#utility.yul\":3474:3501   */\n      mstore\n        /* \"#utility.yul\":3369:3508   */\n      pop\n      pop\n      pop\n      jump\t// out\n        /* \"#utility.yul\":3514:3616   */\n    tag_138:\n        /* \"#utility.yul\":3555:3561   */\n      0x00\n        /* \"#utility.yul\":3606:3608   */\n      0x1f\n        /* \"#utility.yul\":3602:3609   */\n      not\n        /* \"#utility.yul\":3597:3599   */\n      0x1f\n        /* \"#utility.yul\":3590:3595   */\n      dup4\n        /* \"#utility.yul\":3586:3600   */\n      add\n        /* \"#utility.yul\":3582:3610   */\n      and\n        /* \"#utility.yul\":3572:3610   */\n      swap1\n      pop\n        /* \"#utility.yul\":3514:3616   */\n      swap2\n      swap1\n      pop\n      jump\t// out\n        /* \"#utility.yul\":3622:3999   */\n    tag_139:\n        /* \"#utility.yul\":3710:3713   */\n      0x00\n        /* \"#utility.yul\":3738:3777   */\n      tag_186\n        /* \"#utility.yul\":3771:3776   */\n      dup3\n        /* \"#utility.yul\":3738:3777   */\n      tag_135\n      jump\t// in\n    tag_186:\n        /* \"#utility.yul\":3793:3864   */\n      tag_187\n        /* \"#utility.yul\":3857:3863   */\n      dup2\n        /* \"#utility.yul\":3852:3855   */\n      dup6\n        /* \"#utility.yul\":3793:3864   */\n      tag_136\n      jump\t// in\n    tag_187:\n        /* \"#utility.yul\":3786:3864   */\n      swap4\n      pop\n        /* \"#utility.yul\":3873:3938   */\n      tag_188\n        /* \"#utility.yul\":3931:3937   */\n      dup2\n        /* \"#utility.yul\":3926:3929   */\n      dup6\n        /* \"#utility.yul\":3919:3923   */\n      0x20\n        /* \"#utility.yul\":3912:3917   */\n      dup7\n        /* \"#utility.yul\":3908:3924   */\n      add\n        /* \"#utility.yul\":3873:3938   */\n      tag_137\n      jump\t// in\n    tag_188:\n        /* \"#utility.yul\":3963:3992   */\n      tag_189\n        /* \"#utility.yul\":3985:3991   */\n      dup2\n        /* \"#utility.yul\":3963:3992   */\n      tag_138\n      jump\t// in\n    tag_189:\n        /* \"#utility.yul\":3958:3961   */\n      dup5\n        /* \"#utility.yul\":3954:3993   */\n      add\n        /* \"#utility.yul\":3947:3993   */\n      swap2\n      pop\n        /* \"#utility.yul\":3714:3999   */\n      pop\n        /* \"#utility.yul\":3622:3999   */\n      swap3\n      swap2\n      pop\n      pop\n      jump\t// out\n        /* \"#utility.yul\":4005:4318   */\n    tag_47:\n        /* \"#utility.yul\":4118:4122   */\n      0x00\n        /* \"#utility.yul\":4156:4158   */\n      0x20\n        /* \"#utility.yul\":4145:4154   */\n      dup3\n        /* \"#utility.yul\":4141:4159   */\n      add\n        /* \"#utility.yul\":4133:4159   */\n      swap1\n      pop\n        /* \"#utility.yul\":4205:4214   */\n      dup2\n        /* \"#utility.yul\":4199:4203   */\n      dup2\n        /* \"#utility.yul\":4195:4215   */\n      sub\n        /* \"#utility.yul\":4191:4192   */\n      0x00\n        /* \"#utility.yul\":4180:4189   */\n      dup4\n        /* \"#utility.yul\":4176:4193   */\n      add\n        /* \"#utility.yul\":4169:4216   */\n      mstore\n        /* \"#utility.yul\":4233:4311   */\n      tag_191\n        /* \"#utility.yul\":4306:4310   */\n      dup2\n        /* \"#utility.yul\":4297:4303   */\n      dup5\n        /* \"#utility.yul\":4233:4311   */\n      tag_139\n      jump\t// in\n    tag_191:\n        /* \"#utility.yul\":4225:4311   */\n      swap1\n      pop\n        /* \"#utility.yul\":4005:4318   */\n      swap3\n      swap2\n      pop\n      pop\n      jump\t// out\n        /* \"#utility.yul\":4324:4504   */\n    tag_140:\n        /* \"#utility.yul\":4372:4449   */\n      0x4e487b7100000000000000000000000000000000000000000000000000000000\n        /* \"#utility.yul\":4369:4370   */\n      0x00\n        /* \"#utility.yul\":4362:4450   */\n      mstore\n        /* \"#utility.yul\":4469:4473   */\n      0x22\n        /* \"#utility.yul\":4466:4467   */\n      0x04\n        /* \"#utility.yul\":4459:4474   */\n      mstore\n        /* \"#utility.yul\":4493:4497   */\n      0x24\n        /* \"#utility.yul\":4490:4491   */\n      0x00\n        /* \"#utility.yul\":4483:4498   */\n      revert\n        /* \"#utility.yul\":4510:4830   */\n    tag_61:\n        /* \"#utility.yul\":4554:4560   */\n      0x00\n        /* \"#utility.yul\":4591:4592   */\n      0x02\n        /* \"#utility.yul\":4585:4589   */\n      dup3\n        /* \"#utility.yul\":4581:4593   */\n      div\n        /* \"#utility.yul\":4571:4593   */\n      swap1\n      pop\n        /* \"#utility.yul\":4638:4639   */\n      0x01\n        /* \"#utility.yul\":4632:4636   */\n      dup3\n        /* \"#utility.yul\":4628:4640   */\n      and\n        /* \"#utility.yul\":4659:4677   */\n      dup1\n        /* \"#utility.yul\":4649:4730   */\n      tag_194\n      jumpi\n        /* \"#utility.yul\":4715:4719   */\n      0x7f\n        /* \"#utility.yul\":4707:4713   */\n      dup3\n        /* \"#utility.yul\":4703:4720   */\n      and\n        /* \"#utility.yul\":4693:4720   */\n      swap2\n      pop\n        /* \"#utility.yul\":4649:4730   */\n    tag_194:\n        /* \"#utility.yul\":4777:4779   */\n      0x20\n        /* \"#utility.yul\":4769:4775   */\n      dup3\n        /* \"#utility.yul\":4766:4780   */\n      lt\n        /* \"#utility.yul\":4746:4764   */\n      dup2\n        /* \"#utility.yul\":4743:4781   */\n      sub\n        /* \"#utility.yul\":4740:4824   */\n      tag_195\n      jumpi\n        /* \"#utility.yul\":4796:4814   */\n      tag_196\n      tag_140\n      jump\t// in\n    tag_196:\n        /* \"#utility.yul\":4740:4824   */\n    tag_195:\n        /* \"#utility.yul\":4561:4830   */\n      pop\n        /* \"#utility.yul\":4510:4830   */\n      swap2\n      swap1\n      pop\n      jump\t// out\n        /* \"#utility.yul\":4836:5016   */\n    tag_141:\n        /* \"#utility.yul\":4884:4961   */\n      0x4e487b7100000000000000000000000000000000000000000000000000000000\n        /* \"#utility.yul\":4881:4882   */\n      0x00\n        /* \"#utility.yul\":4874:4962   */\n      mstore\n        /* \"#utility.yul\":4981:4985   */\n      0x11\n        /* \"#utility.yul\":4978:4979   */\n      0x04\n        /* \"#utility.yul\":4971:4986   */\n      mstore\n        /* \"#utility.yul\":5005:5009   */\n      0x24\n        /* \"#utility.yul\":5002:5003   */\n      0x00\n        /* \"#utility.yul\":4995:5010   */\n      revert\n        /* \"#utility.yul\":5022:5213   */\n    tag_86:\n        /* \"#utility.yul\":5062:5065   */\n      0x00\n        /* \"#utility.yul\":5081:5101   */\n      tag_199\n        /* \"#utility.yul\":5099:5100   */\n      dup3\n        /* \"#utility.yul\":5081:5101   */\n      tag_120\n      jump\t// in\n    tag_199:\n        /* \"#utility.yul\":5076:5101   */\n      swap2\n      pop\n        /* \"#utility.yul\":5115:5135   */\n      tag_200\n        /* \"#utility.yul\":5133:5134   */\n      dup4\n        /* \"#utility.yul\":5115:5135   */\n      tag_120\n      jump\t// in\n    tag_200:\n        /* \"#utility.yul\":5110:5135   */\n      swap3\n      pop\n        /* \"#utility.yul\":5158:5159   */\n      dup3\n        /* \"#utility.yul\":5155:5156   */\n      dup3\n        /* \"#utility.yul\":5151:5160   */\n      add\n        /* \"#utility.yul\":5144:5160   */\n      swap1\n      pop\n        /* \"#utility.yul\":5179:5182   */\n      dup1\n        /* \"#utility.yul\":5176:5177   */\n      dup3\n        /* \"#utility.yul\":5173:5183   */\n      gt\n        /* \"#utility.yul\":5170:5206   */\n      iszero\n      tag_201\n      jumpi\n        /* \"#utility.yul\":5186:5204   */\n      tag_202\n      tag_141\n      jump\t// in\n    tag_202:\n        /* \"#utility.yul\":5170:5206   */\n    tag_201:\n        /* \"#utility.yul\":5022:5213   */\n      swap3\n      swap2\n      pop\n      pop\n      jump\t// out\n        /* \"#utility.yul\":5219:5413   */\n    tag_113:\n        /* \"#utility.yul\":5259:5263   */\n      0x00\n        /* \"#utility.yul\":5279:5299   */\n      tag_204\n        /* \"#utility.yul\":5297:5298   */\n      dup3\n        /* \"#utility.yul\":5279:5299   */\n      tag_120\n      jump\t// in\n    tag_204:\n        /* \"#utility.yul\":5274:5299   */\n      swap2\n      pop\n        /* \"#utility.yul\":5313:5333   */\n      tag_205\n        /* \"#utility.yul\":5331:5332   */\n      dup4\n        /* \"#utility.yul\":5313:5333   */\n      tag_120\n      jump\t// in\n    tag_205:\n        /* \"#utility.yul\":5308:5333   */\n      swap3\n      pop\n        /* \"#utility.yul\":5357:5358   */\n      dup3\n        /* \"#utility.yul\":5354:5355   */\n      dup3\n        /* \"#utility.yul\":5350:5359   */\n      sub\n        /* \"#utility.yul\":5342:5359   */\n      swap1\n      pop\n        /* \"#utility.yul\":5381:5382   */\n      dup2\n        /* \"#utility.yul\":5375:5379   */\n      dup2\n        /* \"#utility.yul\":5372:5383   */\n      gt\n        /* \"#utility.yul\":5369:5406   */\n      iszero\n      tag_206\n      jumpi\n        /* \"#utility.yul\":5386:5404   */\n      tag_207\n      tag_141\n      jump\t// in\n    tag_207:\n        /* \"#utility.yul\":5369:5406   */\n    tag_206:\n        /* \"#utility.yul\":5219:5413   */\n      swap3\n      swap2\n      pop\n      pop\n      jump\t// out\n\n    auxdata: 0xa264697066735822122084f2fdb7aa2879fa3057af7480740bb04d7a1c38b605c8d40ebd1f42e298aebf64736f6c634300081a0033\n}\n",
				"bytecode": {
					"linkReferences": {},
					"object": "608060405234801561000f575f80fd5b50335f806101000a81548173ffffffffffffffffffffffffffffffffffffffff021916908373ffffffffffffffffffffffffffffffffffffffff160217905550600160045f6101000a81548160ff02191690836003811115610074576100736100c1565b5b021790555043600181905550619d806001546100909190610124565b60028190555060405180602001604052805f815250600390816100b39190610388565b506064600881905550610457565b7f4e487b71000000000000000000000000000000000000000000000000000000005f52602160045260245ffd5b5f819050919050565b7f4e487b71000000000000000000000000000000000000000000000000000000005f52601160045260245ffd5b5f61012e826100ee565b9150610139836100ee565b9250828201905080821115610151576101506100f7565b5b92915050565b5f81519050919050565b7f4e487b71000000000000000000000000000000000000000000000000000000005f52604160045260245ffd5b7f4e487b71000000000000000000000000000000000000000000000000000000005f52602260045260245ffd5b5f60028204905060018216806101d257607f821691505b6020821081036101e5576101e461018e565b5b50919050565b5f819050815f5260205f209050919050565b5f6020601f8301049050919050565b5f82821b905092915050565b5f600883026102477fffffffffffffffffffffffffffffffffffffffffffffffffffffffffffffffff8261020c565b610251868361020c565b95508019841693508086168417925050509392505050565b5f819050919050565b5f61028c610287610282846100ee565b610269565b6100ee565b9050919050565b5f819050919050565b6102a583610272565b6102b96102b182610293565b848454610218565b825550505050565b5f90565b6102cd6102c1565b6102d881848461029c565b505050565b5b818110156102fb576102f05f826102c5565b6001810190506102de565b5050565b601f82111561034057610311816101eb565b61031a846101fd565b81016020851015610329578190505b61033d610335856101fd565b8301826102dd565b50505b505050565b5f82821c905092915050565b5f6103605f1984600802610345565b1980831691505092915050565b5f6103788383610351565b9150826002028217905092915050565b61039182610157565b67ffffffffffffffff8111156103aa576103a9610161565b5b6103b482546101bb565b6103bf8282856102ff565b5f60209050601f8311600181146103f0575f84156103de578287015190505b6103e8858261036d565b86555061044f565b601f1984166103fe866101eb565b5f5b8281101561042557848901518255600182019150602085019450602081019050610400565b86831015610442578489015161043e601f891682610351565b8355505b6001600288020188555050505b505050505050565b610d65806104645f395ff3fe60806040526004361061009b575f3560e01c806391f901571161006357806391f9015714610183578063c623674f146101ad578063de31c95b146101d7578063ecfc7ecc146101ed578063f5b56c56146101f7578063f77282ab146102215761009b565b8063083c63231461009f57806348cd4cb1146100c957806362ea82db146100f35780637fb450991461012f5780638da5cb5b14610159575b5f80fd5b3480156100aa575f80fd5b506100b3610237565b6040516100c09190610a48565b60405180910390f35b3480156100d4575f80fd5b506100dd61023d565b6040516100ea9190610a48565b60405180910390f35b3480156100fe575f80fd5b5061011960048036038101906101149190610abf565b610243565b6040516101269190610a48565b60405180910390f35b34801561013a575f80fd5b50610143610258565b6040516101509190610b5d565b60405180910390f35b348015610164575f80fd5b5061016d61026a565b60405161017a9190610b96565b60405180910390f35b34801561018e575f80fd5b5061019761028d565b6040516101a49190610b96565b60405180910390f35b3480156101b8575f80fd5b506101c16102b2565b6040516101ce9190610c1f565b60405180910390f35b3480156101e2575f80fd5b506101eb61033e565b005b6101f56103c0565b005b348015610202575f80fd5b5061020b6106bc565b6040516102189190610a48565b60405180910390f35b34801561022c575f80fd5b506102356106c2565b005b60025481565b60015481565b6007602052805f5260405f205f915090505481565b60045f9054906101000a900460ff1681565b5f8054906101000a900473ffffffffffffffffffffffffffffffffffffffff1681565b60065f9054906101000a900473ffffffffffffffffffffffffffffffffffffffff1681565b600380546102bf90610c6c565b80601f01602080910402602001604051908101604052809291908181526020018280546102eb90610c6c565b80156103365780601f1061030d57610100808354040283529160200191610336565b820191905f5260205f20905b81548152906001019060200180831161031957829003601f168201915b505050505081565b5f8054906101000a900473ffffffffffffffffffffffffffffffffffffffff1673ffffffffffffffffffffffffffffffffffffffff163373ffffffffffffffffffffffffffffffffffffffff1614610394575f80fd5b600360045f6101000a81548160ff021916908360038111156103b9576103b8610aea565b5b0217905550565b5f8054906101000a900473ffffffffffffffffffffffffffffffffffffffff1673ffffffffffffffffffffffffffffffffffffffff163373ffffffffffffffffffffffffffffffffffffffff1603610416575f80fd5b600154431015610424575f80fd5b600254431115610432575f80fd5b6001600381111561044657610445610aea565b5b60045f9054906101000a900460ff16600381111561046757610466610aea565b5b14610470575f80fd5b606434101561047d575f80fd5b5f3460075f3373ffffffffffffffffffffffffffffffffffffffff1673ffffffffffffffffffffffffffffffffffffffff1681526020019081526020015f20546104c79190610cc9565b905060055481116104d6575f80fd5b8060075f3373ffffffffffffffffffffffffffffffffffffffff1673ffffffffffffffffffffffffffffffffffffffff1681526020019081526020015f208190555060075f60065f9054906101000a900473ffffffffffffffffffffffffffffffffffffffff1673ffffffffffffffffffffffffffffffffffffffff1673ffffffffffffffffffffffffffffffffffffffff1681526020019081526020015f205481116105fd576105f26008548261058e9190610cc9565b60075f60065f9054906101000a900473ffffffffffffffffffffffffffffffffffffffff1673ffffffffffffffffffffffffffffffffffffffff1673ffffffffffffffffffffffffffffffffffffffff1681526020019081526020015f2054610a16565b6005819055506106b9565b6106728160085460075f60065f9054906101000a900473ffffffffffffffffffffffffffffffffffffffff1673ffffffffffffffffffffffffffffffffffffffff1673ffffffffffffffffffffffffffffffffffffffff1681526020019081526020015f205461066d9190610cc9565b610a16565b6005819055503360065f6101000a81548173ffffffffffffffffffffffffffffffffffffffff021916908373ffffffffffffffffffffffffffffffffffffffff1602179055505b50565b60055481565b6003808111156106d5576106d4610aea565b5b60045f9054906101000a900460ff1660038111156106f6576106f5610aea565b5b146106ff575f80fd5b5f8054906101000a900473ffffffffffffffffffffffffffffffffffffffff1673ffffffffffffffffffffffffffffffffffffffff163373ffffffffffffffffffffffffffffffffffffffff16148061079457505f60075f3373ffffffffffffffffffffffffffffffffffffffff1673ffffffffffffffffffffffffffffffffffffffff1681526020019081526020015f2054115b61079c575f80fd5b5f806003808111156107b1576107b0610aea565b5b60045f9054906101000a900460ff1660038111156107d2576107d1610aea565b5b0361081f5733915060075f3373ffffffffffffffffffffffffffffffffffffffff1673ffffffffffffffffffffffffffffffffffffffff1681526020019081526020015f205490506109ce565b5f8054906101000a900473ffffffffffffffffffffffffffffffffffffffff1673ffffffffffffffffffffffffffffffffffffffff163373ffffffffffffffffffffffffffffffffffffffff160361089d575f8054906101000a900473ffffffffffffffffffffffffffffffffffffffff16915060055490506109cd565b60065f9054906101000a900473ffffffffffffffffffffffffffffffffffffffff1673ffffffffffffffffffffffffffffffffffffffff163373ffffffffffffffffffffffffffffffffffffffff16036109885760065f9054906101000a900473ffffffffffffffffffffffffffffffffffffffff16915060055460075f60065f9054906101000a900473ffffffffffffffffffffffffffffffffffffffff1673ffffffffffffffffffffffffffffffffffffffff1673ffffffffffffffffffffffffffffffffffffffff1681526020019081526020015f20546109819190610cfc565b90506109cc565b33915060075f3373ffffffffffffffffffffffffffffffffffffffff1673ffffffffffffffffffffffffffffffffffffffff1681526020019081526020015f205490505b5b5b8173ffffffffffffffffffffffffffffffffffffffff166108fc8290811502906040515f60405180830381858888f19350505050158015610a11573d5f803e3d5ffd5b505050565b5f818311610a2657829050610a2a565b8190505b92915050565b5f819050919050565b610a4281610a30565b82525050565b5f602082019050610a5b5f830184610a39565b92915050565b5f80fd5b5f73ffffffffffffffffffffffffffffffffffffffff82169050919050565b5f610a8e82610a65565b9050919050565b610a9e81610a84565b8114610aa8575f80fd5b50565b5f81359050610ab981610a95565b92915050565b5f60208284031215610ad457610ad3610a61565b5b5f610ae184828501610aab565b91505092915050565b7f4e487b71000000000000000000000000000000000000000000000000000000005f52602160045260245ffd5b60048110610b2857610b27610aea565b5b50565b5f819050610b3882610b17565b919050565b5f610b4782610b2b565b9050919050565b610b5781610b3d565b82525050565b5f602082019050610b705f830184610b4e565b92915050565b5f610b8082610a65565b9050919050565b610b9081610b76565b82525050565b5f602082019050610ba95f830184610b87565b92915050565b5f81519050919050565b5f82825260208201905092915050565b8281835e5f83830152505050565b5f601f19601f8301169050919050565b5f610bf182610baf565b610bfb8185610bb9565b9350610c0b818560208601610bc9565b610c1481610bd7565b840191505092915050565b5f6020820190508181035f830152610c378184610be7565b905092915050565b7f4e487b71000000000000000000000000000000000000000000000000000000005f52602260045260245ffd5b5f6002820490506001821680610c8357607f821691505b602082108103610c9657610c95610c3f565b5b50919050565b7f4e487b71000000000000000000000000000000000000000000000000000000005f52601160045260245ffd5b5f610cd382610a30565b9150610cde83610a30565b9250828201905080821115610cf657610cf5610c9c565b5b92915050565b5f610d0682610a30565b9150610d1183610a30565b9250828203905081811115610d2957610d28610c9c565b5b9291505056fea264697066735822122084f2fdb7aa2879fa3057af7480740bb04d7a1c38b605c8d40ebd1f42e298aebf64736f6c634300081a0033",
					"opcodes": "PUSH1 0x80 PUSH1 0x40 MSTORE CALLVALUE DUP1 ISZERO PUSH2 0xF JUMPI PUSH0 DUP1 REVERT JUMPDEST POP CALLER PUSH0 DUP1 PUSH2 0x100 EXP DUP2 SLOAD DUP2 PUSH20 0xFFFFFFFFFFFFFFFFFFFFFFFFFFFFFFFFFFFFFFFF MUL NOT AND SWAP1 DUP4 PUSH20 0xFFFFFFFFFFFFFFFFFFFFFFFFFFFFFFFFFFFFFFFF AND MUL OR SWAP1 SSTORE POP PUSH1 0x1 PUSH1 0x4 PUSH0 PUSH2 0x100 EXP DUP2 SLOAD DUP2 PUSH1 0xFF MUL NOT AND SWAP1 DUP4 PUSH1 0x3 DUP2 GT ISZERO PUSH2 0x74 JUMPI PUSH2 0x73 PUSH2 0xC1 JUMP JUMPDEST JUMPDEST MUL OR SWAP1 SSTORE POP NUMBER PUSH1 0x1 DUP2 SWAP1 SSTORE POP PUSH2 0x9D80 PUSH1 0x1 SLOAD PUSH2 0x90 SWAP2 SWAP1 PUSH2 0x124 JUMP JUMPDEST PUSH1 0x2 DUP2 SWAP1 SSTORE POP PUSH1 0x40 MLOAD DUP1 PUSH1 0x20 ADD PUSH1 0x40 MSTORE DUP1 PUSH0 DUP2 MSTORE POP PUSH1 0x3 SWAP1 DUP2 PUSH2 0xB3 SWAP2 SWAP1 PUSH2 0x388 JUMP JUMPDEST POP PUSH1 0x64 PUSH1 0x8 DUP2 SWAP1 SSTORE POP PUSH2 0x457 JUMP JUMPDEST PUSH32 0x4E487B7100000000000000000000000000000000000000000000000000000000 PUSH0 MSTORE PUSH1 0x21 PUSH1 0x4 MSTORE PUSH1 0x24 PUSH0 REVERT JUMPDEST PUSH0 DUP2 SWAP1 POP SWAP2 SWAP1 POP JUMP JUMPDEST PUSH32 0x4E487B7100000000000000000000000000000000000000000000000000000000 PUSH0 MSTORE PUSH1 0x11 PUSH1 0x4 MSTORE PUSH1 0x24 PUSH0 REVERT JUMPDEST PUSH0 PUSH2 0x12E DUP3 PUSH2 0xEE JUMP JUMPDEST SWAP2 POP PUSH2 0x139 DUP4 PUSH2 0xEE JUMP JUMPDEST SWAP3 POP DUP3 DUP3 ADD SWAP1 POP DUP1 DUP3 GT ISZERO PUSH2 0x151 JUMPI PUSH2 0x150 PUSH2 0xF7 JUMP JUMPDEST JUMPDEST SWAP3 SWAP2 POP POP JUMP JUMPDEST PUSH0 DUP2 MLOAD SWAP1 POP SWAP2 SWAP1 POP JUMP JUMPDEST PUSH32 0x4E487B7100000000000000000000000000000000000000000000000000000000 PUSH0 MSTORE PUSH1 0x41 PUSH1 0x4 MSTORE PUSH1 0x24 PUSH0 REVERT JUMPDEST PUSH32 0x4E487B7100000000000000000000000000000000000000000000000000000000 PUSH0 MSTORE PUSH1 0x22 PUSH1 0x4 MSTORE PUSH1 0x24 PUSH0 REVERT JUMPDEST PUSH0 PUSH1 0x2 DUP3 DIV SWAP1 POP PUSH1 0x1 DUP3 AND DUP1 PUSH2 0x1D2 JUMPI PUSH1 0x7F DUP3 AND SWAP2 POP JUMPDEST PUSH1 0x20 DUP3 LT DUP2 SUB PUSH2 0x1E5 JUMPI PUSH2 0x1E4 PUSH2 0x18E JUMP JUMPDEST JUMPDEST POP SWAP2 SWAP1 POP JUMP JUMPDEST PUSH0 DUP2 SWAP1 POP DUP2 PUSH0 MSTORE PUSH1 0x20 PUSH0 KECCAK256 SWAP1 POP SWAP2 SWAP1 POP JUMP JUMPDEST PUSH0 PUSH1 0x20 PUSH1 0x1F DUP4 ADD DIV SWAP1 POP SWAP2 SWAP1 POP JUMP JUMPDEST PUSH0 DUP3 DUP3 SHL SWAP1 POP SWAP3 SWAP2 POP POP JUMP JUMPDEST PUSH0 PUSH1 0x8 DUP4 MUL PUSH2 0x247 PUSH32 0xFFFFFFFFFFFFFFFFFFFFFFFFFFFFFFFFFFFFFFFFFFFFFFFFFFFFFFFFFFFFFFFF DUP3 PUSH2 0x20C JUMP JUMPDEST PUSH2 0x251 DUP7 DUP4 PUSH2 0x20C JUMP JUMPDEST SWAP6 POP DUP1 NOT DUP5 AND SWAP4 POP DUP1 DUP7 AND DUP5 OR SWAP3 POP POP POP SWAP4 SWAP3 POP POP POP JUMP JUMPDEST PUSH0 DUP2 SWAP1 POP SWAP2 SWAP1 POP JUMP JUMPDEST PUSH0 PUSH2 0x28C PUSH2 0x287 PUSH2 0x282 DUP5 PUSH2 0xEE JUMP JUMPDEST PUSH2 0x269 JUMP JUMPDEST PUSH2 0xEE JUMP JUMPDEST SWAP1 POP SWAP2 SWAP1 POP JUMP JUMPDEST PUSH0 DUP2 SWAP1 POP SWAP2 SWAP1 POP JUMP JUMPDEST PUSH2 0x2A5 DUP4 PUSH2 0x272 JUMP JUMPDEST PUSH2 0x2B9 PUSH2 0x2B1 DUP3 PUSH2 0x293 JUMP JUMPDEST DUP5 DUP5 SLOAD PUSH2 0x218 JUMP JUMPDEST DUP3 SSTORE POP POP POP POP JUMP JUMPDEST PUSH0 SWAP1 JUMP JUMPDEST PUSH2 0x2CD PUSH2 0x2C1 JUMP JUMPDEST PUSH2 0x2D8 DUP2 DUP5 DUP5 PUSH2 0x29C JUMP JUMPDEST POP POP POP JUMP JUMPDEST JUMPDEST DUP2 DUP2 LT ISZERO PUSH2 0x2FB JUMPI PUSH2 0x2F0 PUSH0 DUP3 PUSH2 0x2C5 JUMP JUMPDEST PUSH1 0x1 DUP2 ADD SWAP1 POP PUSH2 0x2DE JUMP JUMPDEST POP POP JUMP JUMPDEST PUSH1 0x1F DUP3 GT ISZERO PUSH2 0x340 JUMPI PUSH2 0x311 DUP2 PUSH2 0x1EB JUMP JUMPDEST PUSH2 0x31A DUP5 PUSH2 0x1FD JUMP JUMPDEST DUP2 ADD PUSH1 0x20 DUP6 LT ISZERO PUSH2 0x329 JUMPI DUP2 SWAP1 POP JUMPDEST PUSH2 0x33D PUSH2 0x335 DUP6 PUSH2 0x1FD JUMP JUMPDEST DUP4 ADD DUP3 PUSH2 0x2DD JUMP JUMPDEST POP POP JUMPDEST POP POP POP JUMP JUMPDEST PUSH0 DUP3 DUP3 SHR SWAP1 POP SWAP3 SWAP2 POP POP JUMP JUMPDEST PUSH0 PUSH2 0x360 PUSH0 NOT DUP5 PUSH1 0x8 MUL PUSH2 0x345 JUMP JUMPDEST NOT DUP1 DUP4 AND SWAP2 POP POP SWAP3 SWAP2 POP POP JUMP JUMPDEST PUSH0 PUSH2 0x378 DUP4 DUP4 PUSH2 0x351 JUMP JUMPDEST SWAP2 POP DUP3 PUSH1 0x2 MUL DUP3 OR SWAP1 POP SWAP3 SWAP2 POP POP JUMP JUMPDEST PUSH2 0x391 DUP3 PUSH2 0x157 JUMP JUMPDEST PUSH8 0xFFFFFFFFFFFFFFFF DUP2 GT ISZERO PUSH2 0x3AA JUMPI PUSH2 0x3A9 PUSH2 0x161 JUMP JUMPDEST JUMPDEST PUSH2 0x3B4 DUP3 SLOAD PUSH2 0x1BB JUMP JUMPDEST PUSH2 0x3BF DUP3 DUP3 DUP6 PUSH2 0x2FF JUMP JUMPDEST PUSH0 PUSH1 0x20 SWAP1 POP PUSH1 0x1F DUP4 GT PUSH1 0x1 DUP2 EQ PUSH2 0x3F0 JUMPI PUSH0 DUP5 ISZERO PUSH2 0x3DE JUMPI DUP3 DUP8 ADD MLOAD SWAP1 POP JUMPDEST PUSH2 0x3E8 DUP6 DUP3 PUSH2 0x36D JUMP JUMPDEST DUP7 SSTORE POP PUSH2 0x44F JUMP JUMPDEST PUSH1 0x1F NOT DUP5 AND PUSH2 0x3FE DUP7 PUSH2 0x1EB JUMP JUMPDEST PUSH0 JUMPDEST DUP3 DUP2 LT ISZERO PUSH2 0x425 JUMPI DUP5 DUP10 ADD MLOAD DUP3 SSTORE PUSH1 0x1 DUP3 ADD SWAP2 POP PUSH1 0x20 DUP6 ADD SWAP5 POP PUSH1 0x20 DUP2 ADD SWAP1 POP PUSH2 0x400 JUMP JUMPDEST DUP7 DUP4 LT ISZERO PUSH2 0x442 JUMPI DUP5 DUP10 ADD MLOAD PUSH2 0x43E PUSH1 0x1F DUP10 AND DUP3 PUSH2 0x351 JUMP JUMPDEST DUP4 SSTORE POP JUMPDEST PUSH1 0x1 PUSH1 0x2 DUP9 MUL ADD DUP9 SSTORE POP POP POP JUMPDEST POP POP POP POP POP POP JUMP JUMPDEST PUSH2 0xD65 DUP1 PUSH2 0x464 PUSH0 CODECOPY PUSH0 RETURN INVALID PUSH1 0x80 PUSH1 0x40 MSTORE PUSH1 0x4 CALLDATASIZE LT PUSH2 0x9B JUMPI PUSH0 CALLDATALOAD PUSH1 0xE0 SHR DUP1 PUSH4 0x91F90157 GT PUSH2 0x63 JUMPI DUP1 PUSH4 0x91F90157 EQ PUSH2 0x183 JUMPI DUP1 PUSH4 0xC623674F EQ PUSH2 0x1AD JUMPI DUP1 PUSH4 0xDE31C95B EQ PUSH2 0x1D7 JUMPI DUP1 PUSH4 0xECFC7ECC EQ PUSH2 0x1ED JUMPI DUP1 PUSH4 0xF5B56C56 EQ PUSH2 0x1F7 JUMPI DUP1 PUSH4 0xF77282AB EQ PUSH2 0x221 JUMPI PUSH2 0x9B JUMP JUMPDEST DUP1 PUSH4 0x83C6323 EQ PUSH2 0x9F JUMPI DUP1 PUSH4 0x48CD4CB1 EQ PUSH2 0xC9 JUMPI DUP1 PUSH4 0x62EA82DB EQ PUSH2 0xF3 JUMPI DUP1 PUSH4 0x7FB45099 EQ PUSH2 0x12F JUMPI DUP1 PUSH4 0x8DA5CB5B EQ PUSH2 0x159 JUMPI JUMPDEST PUSH0 DUP1 REVERT JUMPDEST CALLVALUE DUP1 ISZERO PUSH2 0xAA JUMPI PUSH0 DUP1 REVERT JUMPDEST POP PUSH2 0xB3 PUSH2 0x237 JUMP JUMPDEST PUSH1 0x40 MLOAD PUSH2 0xC0 SWAP2 SWAP1 PUSH2 0xA48 JUMP JUMPDEST PUSH1 0x40 MLOAD DUP1 SWAP2 SUB SWAP1 RETURN JUMPDEST CALLVALUE DUP1 ISZERO PUSH2 0xD4 JUMPI PUSH0 DUP1 REVERT JUMPDEST POP PUSH2 0xDD PUSH2 0x23D JUMP JUMPDEST PUSH1 0x40 MLOAD PUSH2 0xEA SWAP2 SWAP1 PUSH2 0xA48 JUMP JUMPDEST PUSH1 0x40 MLOAD DUP1 SWAP2 SUB SWAP1 RETURN JUMPDEST CALLVALUE DUP1 ISZERO PUSH2 0xFE JUMPI PUSH0 DUP1 REVERT JUMPDEST POP PUSH2 0x119 PUSH1 0x4 DUP1 CALLDATASIZE SUB DUP2 ADD SWAP1 PUSH2 0x114 SWAP2 SWAP1 PUSH2 0xABF JUMP JUMPDEST PUSH2 0x243 JUMP JUMPDEST PUSH1 0x40 MLOAD PUSH2 0x126 SWAP2 SWAP1 PUSH2 0xA48 JUMP JUMPDEST PUSH1 0x40 MLOAD DUP1 SWAP2 SUB SWAP1 RETURN JUMPDEST CALLVALUE DUP1 ISZERO PUSH2 0x13A JUMPI PUSH0 DUP1 REVERT JUMPDEST POP PUSH2 0x143 PUSH2 0x258 JUMP JUMPDEST PUSH1 0x40 MLOAD PUSH2 0x150 SWAP2 SWAP1 PUSH2 0xB5D JUMP JUMPDEST PUSH1 0x40 MLOAD DUP1 SWAP2 SUB SWAP1 RETURN JUMPDEST CALLVALUE DUP1 ISZERO PUSH2 0x164 JUMPI PUSH0 DUP1 REVERT JUMPDEST POP PUSH2 0x16D PUSH2 0x26A JUMP JUMPDEST PUSH1 0x40 MLOAD PUSH2 0x17A SWAP2 SWAP1 PUSH2 0xB96 JUMP JUMPDEST PUSH1 0x40 MLOAD DUP1 SWAP2 SUB SWAP1 RETURN JUMPDEST CALLVALUE DUP1 ISZERO PUSH2 0x18E JUMPI PUSH0 DUP1 REVERT JUMPDEST POP PUSH2 0x197 PUSH2 0x28D JUMP JUMPDEST PUSH1 0x40 MLOAD PUSH2 0x1A4 SWAP2 SWAP1 PUSH2 0xB96 JUMP JUMPDEST PUSH1 0x40 MLOAD DUP1 SWAP2 SUB SWAP1 RETURN JUMPDEST CALLVALUE DUP1 ISZERO PUSH2 0x1B8 JUMPI PUSH0 DUP1 REVERT JUMPDEST POP PUSH2 0x1C1 PUSH2 0x2B2 JUMP JUMPDEST PUSH1 0x40 MLOAD PUSH2 0x1CE SWAP2 SWAP1 PUSH2 0xC1F JUMP JUMPDEST PUSH1 0x40 MLOAD DUP1 SWAP2 SUB SWAP1 RETURN JUMPDEST CALLVALUE DUP1 ISZERO PUSH2 0x1E2 JUMPI PUSH0 DUP1 REVERT JUMPDEST POP PUSH2 0x1EB PUSH2 0x33E JUMP JUMPDEST STOP JUMPDEST PUSH2 0x1F5 PUSH2 0x3C0 JUMP JUMPDEST STOP JUMPDEST CALLVALUE DUP1 ISZERO PUSH2 0x202 JUMPI PUSH0 DUP1 REVERT JUMPDEST POP PUSH2 0x20B PUSH2 0x6BC JUMP JUMPDEST PUSH1 0x40 MLOAD PUSH2 0x218 SWAP2 SWAP1 PUSH2 0xA48 JUMP JUMPDEST PUSH1 0x40 MLOAD DUP1 SWAP2 SUB SWAP1 RETURN JUMPDEST CALLVALUE DUP1 ISZERO PUSH2 0x22C JUMPI PUSH0 DUP1 REVERT JUMPDEST POP PUSH2 0x235 PUSH2 0x6C2 JUMP JUMPDEST STOP JUMPDEST PUSH1 0x2 SLOAD DUP2 JUMP JUMPDEST PUSH1 0x1 SLOAD DUP2 JUMP JUMPDEST PUSH1 0x7 PUSH1 0x20 MSTORE DUP1 PUSH0 MSTORE PUSH1 0x40 PUSH0 KECCAK256 PUSH0 SWAP2 POP SWAP1 POP SLOAD DUP2 JUMP JUMPDEST PUSH1 0x4 PUSH0 SWAP1 SLOAD SWAP1 PUSH2 0x100 EXP SWAP1 DIV PUSH1 0xFF AND DUP2 JUMP JUMPDEST PUSH0 DUP1 SLOAD SWAP1 PUSH2 0x100 EXP SWAP1 DIV PUSH20 0xFFFFFFFFFFFFFFFFFFFFFFFFFFFFFFFFFFFFFFFF AND DUP2 JUMP JUMPDEST PUSH1 0x6 PUSH0 SWAP1 SLOAD SWAP1 PUSH2 0x100 EXP SWAP1 DIV PUSH20 0xFFFFFFFFFFFFFFFFFFFFFFFFFFFFFFFFFFFFFFFF AND DUP2 JUMP JUMPDEST PUSH1 0x3 DUP1 SLOAD PUSH2 0x2BF SWAP1 PUSH2 0xC6C JUMP JUMPDEST DUP1 PUSH1 0x1F ADD PUSH1 0x20 DUP1 SWAP2 DIV MUL PUSH1 0x20 ADD PUSH1 0x40 MLOAD SWAP1 DUP2 ADD PUSH1 0x40 MSTORE DUP1 SWAP3 SWAP2 SWAP1 DUP2 DUP2 MSTORE PUSH1 0x20 ADD DUP3 DUP1 SLOAD PUSH2 0x2EB SWAP1 PUSH2 0xC6C JUMP JUMPDEST DUP1 ISZERO PUSH2 0x336 JUMPI DUP1 PUSH1 0x1F LT PUSH2 0x30D JUMPI PUSH2 0x100 DUP1 DUP4 SLOAD DIV MUL DUP4 MSTORE SWAP2 PUSH1 0x20 ADD SWAP2 PUSH2 0x336 JUMP JUMPDEST DUP3 ADD SWAP2 SWAP1 PUSH0 MSTORE PUSH1 0x20 PUSH0 KECCAK256 SWAP1 JUMPDEST DUP2 SLOAD DUP2 MSTORE SWAP1 PUSH1 0x1 ADD SWAP1 PUSH1 0x20 ADD DUP1 DUP4 GT PUSH2 0x319 JUMPI DUP3 SWAP1 SUB PUSH1 0x1F AND DUP3 ADD SWAP2 JUMPDEST POP POP POP POP POP DUP2 JUMP JUMPDEST PUSH0 DUP1 SLOAD SWAP1 PUSH2 0x100 EXP SWAP1 DIV PUSH20 0xFFFFFFFFFFFFFFFFFFFFFFFFFFFFFFFFFFFFFFFF AND PUSH20 0xFFFFFFFFFFFFFFFFFFFFFFFFFFFFFFFFFFFFFFFF AND CALLER PUSH20 0xFFFFFFFFFFFFFFFFFFFFFFFFFFFFFFFFFFFFFFFF AND EQ PUSH2 0x394 JUMPI PUSH0 DUP1 REVERT JUMPDEST PUSH1 0x3 PUSH1 0x4 PUSH0 PUSH2 0x100 EXP DUP2 SLOAD DUP2 PUSH1 0xFF MUL NOT AND SWAP1 DUP4 PUSH1 0x3 DUP2 GT ISZERO PUSH2 0x3B9 JUMPI PUSH2 0x3B8 PUSH2 0xAEA JUMP JUMPDEST JUMPDEST MUL OR SWAP1 SSTORE POP JUMP JUMPDEST PUSH0 DUP1 SLOAD SWAP1 PUSH2 0x100 EXP SWAP1 DIV PUSH20 0xFFFFFFFFFFFFFFFFFFFFFFFFFFFFFFFFFFFFFFFF AND PUSH20 0xFFFFFFFFFFFFFFFFFFFFFFFFFFFFFFFFFFFFFFFF AND CALLER PUSH20 0xFFFFFFFFFFFFFFFFFFFFFFFFFFFFFFFFFFFFFFFF AND SUB PUSH2 0x416 JUMPI PUSH0 DUP1 REVERT JUMPDEST PUSH1 0x1 SLOAD NUMBER LT ISZERO PUSH2 0x424 JUMPI PUSH0 DUP1 REVERT JUMPDEST PUSH1 0x2 SLOAD NUMBER GT ISZERO PUSH2 0x432 JUMPI PUSH0 DUP1 REVERT JUMPDEST PUSH1 0x1 PUSH1 0x3 DUP2 GT ISZERO PUSH2 0x446 JUMPI PUSH2 0x445 PUSH2 0xAEA JUMP JUMPDEST JUMPDEST PUSH1 0x4 PUSH0 SWAP1 SLOAD SWAP1 PUSH2 0x100 EXP SWAP1 DIV PUSH1 0xFF AND PUSH1 0x3 DUP2 GT ISZERO PUSH2 0x467 JUMPI PUSH2 0x466 PUSH2 0xAEA JUMP JUMPDEST JUMPDEST EQ PUSH2 0x470 JUMPI PUSH0 DUP1 REVERT JUMPDEST PUSH1 0x64 CALLVALUE LT ISZERO PUSH2 0x47D JUMPI PUSH0 DUP1 REVERT JUMPDEST PUSH0 CALLVALUE PUSH1 0x7 PUSH0 CALLER PUSH20 0xFFFFFFFFFFFFFFFFFFFFFFFFFFFFFFFFFFFFFFFF AND PUSH20 0xFFFFFFFFFFFFFFFFFFFFFFFFFFFFFFFFFFFFFFFF AND DUP2 MSTORE PUSH1 0x20 ADD SWAP1 DUP2 MSTORE PUSH1 0x20 ADD PUSH0 KECCAK256 SLOAD PUSH2 0x4C7 SWAP2 SWAP1 PUSH2 0xCC9 JUMP JUMPDEST SWAP1 POP PUSH1 0x5 SLOAD DUP2 GT PUSH2 0x4D6 JUMPI PUSH0 DUP1 REVERT JUMPDEST DUP1 PUSH1 0x7 PUSH0 CALLER PUSH20 0xFFFFFFFFFFFFFFFFFFFFFFFFFFFFFFFFFFFFFFFF AND PUSH20 0xFFFFFFFFFFFFFFFFFFFFFFFFFFFFFFFFFFFFFFFF AND DUP2 MSTORE PUSH1 0x20 ADD SWAP1 DUP2 MSTORE PUSH1 0x20 ADD PUSH0 KECCAK256 DUP2 SWAP1 SSTORE POP PUSH1 0x7 PUSH0 PUSH1 0x6 PUSH0 SWAP1 SLOAD SWAP1 PUSH2 0x100 EXP SWAP1 DIV PUSH20 0xFFFFFFFFFFFFFFFFFFFFFFFFFFFFFFFFFFFFFFFF AND PUSH20 0xFFFFFFFFFFFFFFFFFFFFFFFFFFFFFFFFFFFFFFFF AND PUSH20 0xFFFFFFFFFFFFFFFFFFFFFFFFFFFFFFFFFFFFFFFF AND DUP2 MSTORE PUSH1 0x20 ADD SWAP1 DUP2 MSTORE PUSH1 0x20 ADD PUSH0 KECCAK256 SLOAD DUP2 GT PUSH2 0x5FD JUMPI PUSH2 0x5F2 PUSH1 0x8 SLOAD DUP3 PUSH2 0x58E SWAP2 SWAP1 PUSH2 0xCC9 JUMP JUMPDEST PUSH1 0x7 PUSH0 PUSH1 0x6 PUSH0 SWAP1 SLOAD SWAP1 PUSH2 0x100 EXP SWAP1 DIV PUSH20 0xFFFFFFFFFFFFFFFFFFFFFFFFFFFFFFFFFFFFFFFF AND PUSH20 0xFFFFFFFFFFFFFFFFFFFFFFFFFFFFFFFFFFFFFFFF AND PUSH20 0xFFFFFFFFFFFFFFFFFFFFFFFFFFFFFFFFFFFFFFFF AND DUP2 MSTORE PUSH1 0x20 ADD SWAP1 DUP2 MSTORE PUSH1 0x20 ADD PUSH0 KECCAK256 SLOAD PUSH2 0xA16 JUMP JUMPDEST PUSH1 0x5 DUP2 SWAP1 SSTORE POP PUSH2 0x6B9 JUMP JUMPDEST PUSH2 0x672 DUP2 PUSH1 0x8 SLOAD PUSH1 0x7 PUSH0 PUSH1 0x6 PUSH0 SWAP1 SLOAD SWAP1 PUSH2 0x100 EXP SWAP1 DIV PUSH20 0xFFFFFFFFFFFFFFFFFFFFFFFFFFFFFFFFFFFFFFFF AND PUSH20 0xFFFFFFFFFFFFFFFFFFFFFFFFFFFFFFFFFFFFFFFF AND PUSH20 0xFFFFFFFFFFFFFFFFFFFFFFFFFFFFFFFFFFFFFFFF AND DUP2 MSTORE PUSH1 0x20 ADD SWAP1 DUP2 MSTORE PUSH1 0x20 ADD PUSH0 KECCAK256 SLOAD PUSH2 0x66D SWAP2 SWAP1 PUSH2 0xCC9 JUMP JUMPDEST PUSH2 0xA16 JUMP JUMPDEST PUSH1 0x5 DUP2 SWAP1 SSTORE POP CALLER PUSH1 0x6 PUSH0 PUSH2 0x100 EXP DUP2 SLOAD DUP2 PUSH20 0xFFFFFFFFFFFFFFFFFFFFFFFFFFFFFFFFFFFFFFFF MUL NOT AND SWAP1 DUP4 PUSH20 0xFFFFFFFFFFFFFFFFFFFFFFFFFFFFFFFFFFFFFFFF AND MUL OR SWAP1 SSTORE POP JUMPDEST POP JUMP JUMPDEST PUSH1 0x5 SLOAD DUP2 JUMP JUMPDEST PUSH1 0x3 DUP1 DUP2 GT ISZERO PUSH2 0x6D5 JUMPI PUSH2 0x6D4 PUSH2 0xAEA JUMP JUMPDEST JUMPDEST PUSH1 0x4 PUSH0 SWAP1 SLOAD SWAP1 PUSH2 0x100 EXP SWAP1 DIV PUSH1 0xFF AND PUSH1 0x3 DUP2 GT ISZERO PUSH2 0x6F6 JUMPI PUSH2 0x6F5 PUSH2 0xAEA JUMP JUMPDEST JUMPDEST EQ PUSH2 0x6FF JUMPI PUSH0 DUP1 REVERT JUMPDEST PUSH0 DUP1 SLOAD SWAP1 PUSH2 0x100 EXP SWAP1 DIV PUSH20 0xFFFFFFFFFFFFFFFFFFFFFFFFFFFFFFFFFFFFFFFF AND PUSH20 0xFFFFFFFFFFFFFFFFFFFFFFFFFFFFFFFFFFFFFFFF AND CALLER PUSH20 0xFFFFFFFFFFFFFFFFFFFFFFFFFFFFFFFFFFFFFFFF AND EQ DUP1 PUSH2 0x794 JUMPI POP PUSH0 PUSH1 0x7 PUSH0 CALLER PUSH20 0xFFFFFFFFFFFFFFFFFFFFFFFFFFFFFFFFFFFFFFFF AND PUSH20 0xFFFFFFFFFFFFFFFFFFFFFFFFFFFFFFFFFFFFFFFF AND DUP2 MSTORE PUSH1 0x20 ADD SWAP1 DUP2 MSTORE PUSH1 0x20 ADD PUSH0 KECCAK256 SLOAD GT JUMPDEST PUSH2 0x79C JUMPI PUSH0 DUP1 REVERT JUMPDEST PUSH0 DUP1 PUSH1 0x3 DUP1 DUP2 GT ISZERO PUSH2 0x7B1 JUMPI PUSH2 0x7B0 PUSH2 0xAEA JUMP JUMPDEST JUMPDEST PUSH1 0x4 PUSH0 SWAP1 SLOAD SWAP1 PUSH2 0x100 EXP SWAP1 DIV PUSH1 0xFF AND PUSH1 0x3 DUP2 GT ISZERO PUSH2 0x7D2 JUMPI PUSH2 0x7D1 PUSH2 0xAEA JUMP JUMPDEST JUMPDEST SUB PUSH2 0x81F JUMPI CALLER SWAP2 POP PUSH1 0x7 PUSH0 CALLER PUSH20 0xFFFFFFFFFFFFFFFFFFFFFFFFFFFFFFFFFFFFFFFF AND PUSH20 0xFFFFFFFFFFFFFFFFFFFFFFFFFFFFFFFFFFFFFFFF AND DUP2 MSTORE PUSH1 0x20 ADD SWAP1 DUP2 MSTORE PUSH1 0x20 ADD PUSH0 KECCAK256 SLOAD SWAP1 POP PUSH2 0x9CE JUMP JUMPDEST PUSH0 DUP1 SLOAD SWAP1 PUSH2 0x100 EXP SWAP1 DIV PUSH20 0xFFFFFFFFFFFFFFFFFFFFFFFFFFFFFFFFFFFFFFFF AND PUSH20 0xFFFFFFFFFFFFFFFFFFFFFFFFFFFFFFFFFFFFFFFF AND CALLER PUSH20 0xFFFFFFFFFFFFFFFFFFFFFFFFFFFFFFFFFFFFFFFF AND SUB PUSH2 0x89D JUMPI PUSH0 DUP1 SLOAD SWAP1 PUSH2 0x100 EXP SWAP1 DIV PUSH20 0xFFFFFFFFFFFFFFFFFFFFFFFFFFFFFFFFFFFFFFFF AND SWAP2 POP PUSH1 0x5 SLOAD SWAP1 POP PUSH2 0x9CD JUMP JUMPDEST PUSH1 0x6 PUSH0 SWAP1 SLOAD SWAP1 PUSH2 0x100 EXP SWAP1 DIV PUSH20 0xFFFFFFFFFFFFFFFFFFFFFFFFFFFFFFFFFFFFFFFF AND PUSH20 0xFFFFFFFFFFFFFFFFFFFFFFFFFFFFFFFFFFFFFFFF AND CALLER PUSH20 0xFFFFFFFFFFFFFFFFFFFFFFFFFFFFFFFFFFFFFFFF AND SUB PUSH2 0x988 JUMPI PUSH1 0x6 PUSH0 SWAP1 SLOAD SWAP1 PUSH2 0x100 EXP SWAP1 DIV PUSH20 0xFFFFFFFFFFFFFFFFFFFFFFFFFFFFFFFFFFFFFFFF AND SWAP2 POP PUSH1 0x5 SLOAD PUSH1 0x7 PUSH0 PUSH1 0x6 PUSH0 SWAP1 SLOAD SWAP1 PUSH2 0x100 EXP SWAP1 DIV PUSH20 0xFFFFFFFFFFFFFFFFFFFFFFFFFFFFFFFFFFFFFFFF AND PUSH20 0xFFFFFFFFFFFFFFFFFFFFFFFFFFFFFFFFFFFFFFFF AND PUSH20 0xFFFFFFFFFFFFFFFFFFFFFFFFFFFFFFFFFFFFFFFF AND DUP2 MSTORE PUSH1 0x20 ADD SWAP1 DUP2 MSTORE PUSH1 0x20 ADD PUSH0 KECCAK256 SLOAD PUSH2 0x981 SWAP2 SWAP1 PUSH2 0xCFC JUMP JUMPDEST SWAP1 POP PUSH2 0x9CC JUMP JUMPDEST CALLER SWAP2 POP PUSH1 0x7 PUSH0 CALLER PUSH20 0xFFFFFFFFFFFFFFFFFFFFFFFFFFFFFFFFFFFFFFFF AND PUSH20 0xFFFFFFFFFFFFFFFFFFFFFFFFFFFFFFFFFFFFFFFF AND DUP2 MSTORE PUSH1 0x20 ADD SWAP1 DUP2 MSTORE PUSH1 0x20 ADD PUSH0 KECCAK256 SLOAD SWAP1 POP JUMPDEST JUMPDEST JUMPDEST DUP2 PUSH20 0xFFFFFFFFFFFFFFFFFFFFFFFFFFFFFFFFFFFFFFFF AND PUSH2 0x8FC DUP3 SWAP1 DUP2 ISZERO MUL SWAP1 PUSH1 0x40 MLOAD PUSH0 PUSH1 0x40 MLOAD DUP1 DUP4 SUB DUP2 DUP6 DUP9 DUP9 CALL SWAP4 POP POP POP POP ISZERO DUP1 ISZERO PUSH2 0xA11 JUMPI RETURNDATASIZE PUSH0 DUP1 RETURNDATACOPY RETURNDATASIZE PUSH0 REVERT JUMPDEST POP POP POP JUMP JUMPDEST PUSH0 DUP2 DUP4 GT PUSH2 0xA26 JUMPI DUP3 SWAP1 POP PUSH2 0xA2A JUMP JUMPDEST DUP2 SWAP1 POP JUMPDEST SWAP3 SWAP2 POP POP JUMP JUMPDEST PUSH0 DUP2 SWAP1 POP SWAP2 SWAP1 POP JUMP JUMPDEST PUSH2 0xA42 DUP2 PUSH2 0xA30 JUMP JUMPDEST DUP3 MSTORE POP POP JUMP JUMPDEST PUSH0 PUSH1 0x20 DUP3 ADD SWAP1 POP PUSH2 0xA5B PUSH0 DUP4 ADD DUP5 PUSH2 0xA39 JUMP JUMPDEST SWAP3 SWAP2 POP POP JUMP JUMPDEST PUSH0 DUP1 REVERT JUMPDEST PUSH0 PUSH20 0xFFFFFFFFFFFFFFFFFFFFFFFFFFFFFFFFFFFFFFFF DUP3 AND SWAP1 POP SWAP2 SWAP1 POP JUMP JUMPDEST PUSH0 PUSH2 0xA8E DUP3 PUSH2 0xA65 JUMP JUMPDEST SWAP1 POP SWAP2 SWAP1 POP JUMP JUMPDEST PUSH2 0xA9E DUP2 PUSH2 0xA84 JUMP JUMPDEST DUP2 EQ PUSH2 0xAA8 JUMPI PUSH0 DUP1 REVERT JUMPDEST POP JUMP JUMPDEST PUSH0 DUP2 CALLDATALOAD SWAP1 POP PUSH2 0xAB9 DUP2 PUSH2 0xA95 JUMP JUMPDEST SWAP3 SWAP2 POP POP JUMP JUMPDEST PUSH0 PUSH1 0x20 DUP3 DUP5 SUB SLT ISZERO PUSH2 0xAD4 JUMPI PUSH2 0xAD3 PUSH2 0xA61 JUMP JUMPDEST JUMPDEST PUSH0 PUSH2 0xAE1 DUP5 DUP3 DUP6 ADD PUSH2 0xAAB JUMP JUMPDEST SWAP2 POP POP SWAP3 SWAP2 POP POP JUMP JUMPDEST PUSH32 0x4E487B7100000000000000000000000000000000000000000000000000000000 PUSH0 MSTORE PUSH1 0x21 PUSH1 0x4 MSTORE PUSH1 0x24 PUSH0 REVERT JUMPDEST PUSH1 0x4 DUP2 LT PUSH2 0xB28 JUMPI PUSH2 0xB27 PUSH2 0xAEA JUMP JUMPDEST JUMPDEST POP JUMP JUMPDEST PUSH0 DUP2 SWAP1 POP PUSH2 0xB38 DUP3 PUSH2 0xB17 JUMP JUMPDEST SWAP2 SWAP1 POP JUMP JUMPDEST PUSH0 PUSH2 0xB47 DUP3 PUSH2 0xB2B JUMP JUMPDEST SWAP1 POP SWAP2 SWAP1 POP JUMP JUMPDEST PUSH2 0xB57 DUP2 PUSH2 0xB3D JUMP JUMPDEST DUP3 MSTORE POP POP JUMP JUMPDEST PUSH0 PUSH1 0x20 DUP3 ADD SWAP1 POP PUSH2 0xB70 PUSH0 DUP4 ADD DUP5 PUSH2 0xB4E JUMP JUMPDEST SWAP3 SWAP2 POP POP JUMP JUMPDEST PUSH0 PUSH2 0xB80 DUP3 PUSH2 0xA65 JUMP JUMPDEST SWAP1 POP SWAP2 SWAP1 POP JUMP JUMPDEST PUSH2 0xB90 DUP2 PUSH2 0xB76 JUMP JUMPDEST DUP3 MSTORE POP POP JUMP JUMPDEST PUSH0 PUSH1 0x20 DUP3 ADD SWAP1 POP PUSH2 0xBA9 PUSH0 DUP4 ADD DUP5 PUSH2 0xB87 JUMP JUMPDEST SWAP3 SWAP2 POP POP JUMP JUMPDEST PUSH0 DUP2 MLOAD SWAP1 POP SWAP2 SWAP1 POP JUMP JUMPDEST PUSH0 DUP3 DUP3 MSTORE PUSH1 0x20 DUP3 ADD SWAP1 POP SWAP3 SWAP2 POP POP JUMP JUMPDEST DUP3 DUP2 DUP4 MCOPY PUSH0 DUP4 DUP4 ADD MSTORE POP POP POP JUMP JUMPDEST PUSH0 PUSH1 0x1F NOT PUSH1 0x1F DUP4 ADD AND SWAP1 POP SWAP2 SWAP1 POP JUMP JUMPDEST PUSH0 PUSH2 0xBF1 DUP3 PUSH2 0xBAF JUMP JUMPDEST PUSH2 0xBFB DUP2 DUP6 PUSH2 0xBB9 JUMP JUMPDEST SWAP4 POP PUSH2 0xC0B DUP2 DUP6 PUSH1 0x20 DUP7 ADD PUSH2 0xBC9 JUMP JUMPDEST PUSH2 0xC14 DUP2 PUSH2 0xBD7 JUMP JUMPDEST DUP5 ADD SWAP2 POP POP SWAP3 SWAP2 POP POP JUMP JUMPDEST PUSH0 PUSH1 0x20 DUP3 ADD SWAP1 POP DUP2 DUP2 SUB PUSH0 DUP4 ADD MSTORE PUSH2 0xC37 DUP2 DUP5 PUSH2 0xBE7 JUMP JUMPDEST SWAP1 POP SWAP3 SWAP2 POP POP JUMP JUMPDEST PUSH32 0x4E487B7100000000000000000000000000000000000000000000000000000000 PUSH0 MSTORE PUSH1 0x22 PUSH1 0x4 MSTORE PUSH1 0x24 PUSH0 REVERT JUMPDEST PUSH0 PUSH1 0x2 DUP3 DIV SWAP1 POP PUSH1 0x1 DUP3 AND DUP1 PUSH2 0xC83 JUMPI PUSH1 0x7F DUP3 AND SWAP2 POP JUMPDEST PUSH1 0x20 DUP3 LT DUP2 SUB PUSH2 0xC96 JUMPI PUSH2 0xC95 PUSH2 0xC3F JUMP JUMPDEST JUMPDEST POP SWAP2 SWAP1 POP JUMP JUMPDEST PUSH32 0x4E487B7100000000000000000000000000000000000000000000000000000000 PUSH0 MSTORE PUSH1 0x11 PUSH1 0x4 MSTORE PUSH1 0x24 PUSH0 REVERT JUMPDEST PUSH0 PUSH2 0xCD3 DUP3 PUSH2 0xA30 JUMP JUMPDEST SWAP2 POP PUSH2 0xCDE DUP4 PUSH2 0xA30 JUMP JUMPDEST SWAP3 POP DUP3 DUP3 ADD SWAP1 POP DUP1 DUP3 GT ISZERO PUSH2 0xCF6 JUMPI PUSH2 0xCF5 PUSH2 0xC9C JUMP JUMPDEST JUMPDEST SWAP3 SWAP2 POP POP JUMP JUMPDEST PUSH0 PUSH2 0xD06 DUP3 PUSH2 0xA30 JUMP JUMPDEST SWAP2 POP PUSH2 0xD11 DUP4 PUSH2 0xA30 JUMP JUMPDEST SWAP3 POP DUP3 DUP3 SUB SWAP1 POP DUP2 DUP2 GT ISZERO PUSH2 0xD29 JUMPI PUSH2 0xD28 PUSH2 0xC9C JUMP JUMPDEST JUMPDEST SWAP3 SWAP2 POP POP JUMP INVALID LOG2 PUSH5 0x6970667358 0x22 SLT KECCAK256 DUP5 CALLCODE REVERT 0xB7 0xAA 0x28 PUSH26 0xFA3057AF7480740BB04D7A1C38B605C8D40EBD1F42E298AEBF64 PUSH20 0x6F6C634300081A00330000000000000000000000 "
				},
				"gasEstimates": {
					"creation": {
						"codeDepositCost": "685800",
						"executionCost": "infinite",
						"totalCost": "infinite"
					},
					"external": {
						"auctionState()": "2621",
						"bids(address)": "2847",
						"cancelAution()": "26639",
						"endBlock()": "2426",
						"finalizeAuction()": "infinite",
						"highestBidder()": "2508",
						"highestBindingBid()": "2513",
						"ipfsHash()": "infinite",
						"owner()": "2594",
						"placeBid()": "infinite",
						"startBlock()": "2448"
					},
					"internal": {
						"min(uint256,uint256)": "63"
					}
				},
				"methodIdentifiers": {
					"auctionState()": "7fb45099",
					"bids(address)": "62ea82db",
					"cancelAution()": "de31c95b",
					"endBlock()": "083c6323",
					"finalizeAuction()": "f77282ab",
					"highestBidder()": "91f90157",
					"highestBindingBid()": "f5b56c56",
					"ipfsHash()": "c623674f",
					"owner()": "8da5cb5b",
					"placeBid()": "ecfc7ecc",
					"startBlock()": "48cd4cb1"
				}
			},
			"storageLayout": {
				"storage": [
					{
						"astId": 3,
						"contract": "contracts/auction.sol:Auction",
						"label": "owner",
						"offset": 0,
						"slot": "0",
						"type": "t_address_payable"
					},
					{
						"astId": 5,
						"contract": "contracts/auction.sol:Auction",
						"label": "startBlock",
						"offset": 0,
						"slot": "1",
						"type": "t_uint256"
					},
					{
						"astId": 7,
						"contract": "contracts/auction.sol:Auction",
						"label": "endBlock",
						"offset": 0,
						"slot": "2",
						"type": "t_uint256"
					},
					{
						"astId": 9,
						"contract": "contracts/auction.sol:Auction",
						"label": "ipfsHash",
						"offset": 0,
						"slot": "3",
						"type": "t_string_storage"
					},
					{
						"astId": 17,
						"contract": "contracts/auction.sol:Auction",
						"label": "auctionState",
						"offset": 0,
						"slot": "4",
						"type": "t_enum(State)14"
					},
					{
						"astId": 19,
						"contract": "contracts/auction.sol:Auction",
						"label": "highestBindingBid",
						"offset": 0,
						"slot": "5",
						"type": "t_uint256"
					},
					{
						"astId": 21,
						"contract": "contracts/auction.sol:Auction",
						"label": "highestBidder",
						"offset": 0,
						"slot": "6",
						"type": "t_address_payable"
					},
					{
						"astId": 25,
						"contract": "contracts/auction.sol:Auction",
						"label": "bids",
						"offset": 0,
						"slot": "7",
						"type": "t_mapping(t_address,t_uint256)"
					},
					{
						"astId": 27,
						"contract": "contracts/auction.sol:Auction",
						"label": "bidIncreament",
						"offset": 0,
						"slot": "8",
						"type": "t_uint256"
					}
				],
				"types": {
					"t_address": {
						"encoding": "inplace",
						"label": "address",
						"numberOfBytes": "20"
					},
					"t_address_payable": {
						"encoding": "inplace",
						"label": "address payable",
						"numberOfBytes": "20"
					},
					"t_enum(State)14": {
						"encoding": "inplace",
						"label": "enum Auction.State",
						"numberOfBytes": "1"
					},
					"t_mapping(t_address,t_uint256)": {
						"encoding": "mapping",
						"key": "t_address",
						"label": "mapping(address => uint256)",
						"numberOfBytes": "32",
						"value": "t_uint256"
					},
					"t_string_storage": {
						"encoding": "bytes",
						"label": "string",
						"numberOfBytes": "32"
					},
					"t_uint256": {
						"encoding": "inplace",
						"label": "uint256",
						"numberOfBytes": "32"
					}
				}
			},
			"userdoc": {
				"kind": "user",
				"methods": {},
				"version": 1
			}
		}
	}
}